{
	"Bank.sol": {
		"Merchant": {
			"abi": [
				{
					"inputs": [
						{
							"internalType": "address",
							"name": "merchantAccount",
							"type": "address"
						}
					],
					"payable": false,
					"stateMutability": "nonpayable",
					"type": "constructor"
				},
				{
					"constant": false,
					"inputs": [
						{
							"internalType": "address",
							"name": "couponAddr",
							"type": "address"
						}
					],
					"name": "addToUsedCoupons",
					"outputs": [],
					"payable": false,
					"stateMutability": "nonpayable",
					"type": "function"
				},
				{
					"constant": false,
					"inputs": [
						{
							"internalType": "uint256",
							"name": "consumeValue",
							"type": "uint256"
						},
						{
							"internalType": "bytes32",
							"name": "consumeDate",
							"type": "bytes32"
						},
						{
							"internalType": "address",
							"name": "couponAddr",
							"type": "address"
						},
						{
							"internalType": "address",
							"name": "_consumer",
							"type": "address"
						}
					],
					"name": "confirmCouponPay",
					"outputs": [],
					"payable": false,
					"stateMutability": "nonpayable",
					"type": "function"
				},
				{
					"constant": true,
					"inputs": [
						{
							"internalType": "bytes32",
							"name": "mark",
							"type": "bytes32"
						}
					],
					"name": "getCorrespondingGrant",
					"outputs": [
						{
							"internalType": "address[]",
							"name": "",
							"type": "address[]"
						}
					],
					"payable": false,
					"stateMutability": "view",
					"type": "function"
				},
				{
					"constant": true,
					"inputs": [],
					"name": "getHistoryCoupons",
					"outputs": [
						{
							"internalType": "address[]",
							"name": "",
							"type": "address[]"
						}
					],
					"payable": false,
					"stateMutability": "view",
					"type": "function"
				},
				{
					"constant": true,
					"inputs": [],
					"name": "getNotGivenCoupons",
					"outputs": [
						{
							"internalType": "address[]",
							"name": "",
							"type": "address[]"
						}
					],
					"payable": false,
					"stateMutability": "view",
					"type": "function"
				},
				{
					"constant": true,
					"inputs": [],
					"name": "getOwner",
					"outputs": [
						{
							"internalType": "address",
							"name": "",
							"type": "address"
						}
					],
					"payable": false,
					"stateMutability": "view",
					"type": "function"
				},
				{
					"constant": true,
					"inputs": [],
					"name": "getSettlementBalance",
					"outputs": [
						{
							"internalType": "uint256",
							"name": "",
							"type": "uint256"
						}
					],
					"payable": false,
					"stateMutability": "view",
					"type": "function"
				},
				{
					"constant": true,
					"inputs": [],
					"name": "getUnusedCoupons",
					"outputs": [
						{
							"internalType": "address[]",
							"name": "",
							"type": "address[]"
						}
					],
					"payable": false,
					"stateMutability": "view",
					"type": "function"
				},
				{
					"constant": true,
					"inputs": [],
					"name": "getUsedCoupons",
					"outputs": [
						{
							"internalType": "address[]",
							"name": "",
							"type": "address[]"
						}
					],
					"payable": false,
					"stateMutability": "view",
					"type": "function"
				},
				{
					"constant": false,
					"inputs": [
						{
							"internalType": "address",
							"name": "_consumer",
							"type": "address"
						},
						{
							"internalType": "uint256",
							"name": "quantity",
							"type": "uint256"
						},
						{
							"internalType": "bytes32",
							"name": "date",
							"type": "bytes32"
						},
						{
							"internalType": "bytes32",
							"name": "mark",
							"type": "bytes32"
						},
						{
							"internalType": "uint256",
							"name": "obtainValue",
							"type": "uint256"
						}
					],
					"name": "grant",
					"outputs": [],
					"payable": false,
					"stateMutability": "nonpayable",
					"type": "function"
				},
				{
					"constant": false,
					"inputs": [
						{
							"internalType": "uint256",
							"name": "value",
							"type": "uint256"
						},
						{
							"internalType": "uint256",
							"name": "limit",
							"type": "uint256"
						},
						{
							"internalType": "uint256",
							"name": "quantity",
							"type": "uint256"
						},
						{
							"internalType": "bytes32",
							"name": "startDate",
							"type": "bytes32"
						},
						{
							"internalType": "bytes32",
							"name": "endDate",
							"type": "bytes32"
						}
					],
					"name": "issueCoupon",
					"outputs": [],
					"payable": false,
					"stateMutability": "nonpayable",
					"type": "function"
				},
				{
					"constant": false,
					"inputs": [
						{
							"internalType": "uint256",
							"name": "amount",
							"type": "uint256"
						}
					],
					"name": "settlementApprove",
					"outputs": [],
					"payable": false,
					"stateMutability": "nonpayable",
					"type": "function"
				},
				{
					"constant": false,
					"inputs": [],
					"name": "settlementWithdraw",
					"outputs": [],
					"payable": false,
					"stateMutability": "nonpayable",
					"type": "function"
				},
				{
					"constant": false,
					"inputs": [
						{
							"internalType": "bytes32",
							"name": "curDate",
							"type": "bytes32"
						}
					],
					"name": "terminateCoupon",
					"outputs": [],
					"payable": false,
					"stateMutability": "nonpayable",
					"type": "function"
				}
			],
			"devdoc": {
				"methods": {}
			},
			"evm": {
				"assembly": "    /* \"Bank.sol\":1282:6589  contract Merchant {\r... */\n  mstore(0x40, 0x80)\n    /* \"Bank.sol\":1890:2006  constructor(address merchantAccount) public {\r... */\n  callvalue\n    /* \"--CODEGEN--\":8:17   */\n  dup1\n    /* \"--CODEGEN--\":5:7   */\n  iszero\n  tag_1\n  jumpi\n    /* \"--CODEGEN--\":30:31   */\n  0x00\n    /* \"--CODEGEN--\":27:28   */\n  dup1\n    /* \"--CODEGEN--\":20:32   */\n  revert\n    /* \"--CODEGEN--\":5:7   */\ntag_1:\n    /* \"Bank.sol\":1890:2006  constructor(address merchantAccount) public {\r... */\n  pop\n  mload(0x40)\n  sub(codesize, bytecodeSize)\n  dup1\n  bytecodeSize\n  dup4\n  codecopy\n  dup2\n  dup2\n  add\n  0x40\n  mstore\n    /* \"--CODEGEN--\":13:15   */\n  0x20\n    /* \"--CODEGEN--\":8:11   */\n  dup2\n    /* \"--CODEGEN--\":5:16   */\n  lt\n    /* \"--CODEGEN--\":2:4   */\n  iszero\n  tag_2\n  jumpi\n    /* \"--CODEGEN--\":29:30   */\n  0x00\n    /* \"--CODEGEN--\":26:27   */\n  dup1\n    /* \"--CODEGEN--\":19:31   */\n  revert\n    /* \"--CODEGEN--\":2:4   */\ntag_2:\n    /* \"Bank.sol\":1890:2006  constructor(address merchantAccount) public {\r... */\n  dup2\n  add\n  swap1\n  dup1\n  dup1\n  mload\n  swap1\n  0x20\n  add\n  swap1\n  swap3\n  swap2\n  swap1\n  pop\n  pop\n  pop\n    /* \"Bank.sol\":1953:1968  merchantAccount */\n  dup1\n    /* \"Bank.sol\":1945:1950  owner */\n  0x00\n  dup1\n    /* \"Bank.sol\":1945:1968  owner = merchantAccount */\n  0x0100\n  exp\n  dup2\n  sload\n  dup2\n  0xffffffffffffffffffffffffffffffffffffffff\n  mul\n  not\n  and\n  swap1\n  dup4\n  0xffffffffffffffffffffffffffffffffffffffff\n  and\n  mul\n  or\n  swap1\n  sstore\n  pop\n    /* \"Bank.sol\":1988:1998  msg.sender */\n  caller\n    /* \"Bank.sol\":1979:1985  banker */\n  0x01\n  0x00\n    /* \"Bank.sol\":1979:1998  banker = msg.sender */\n  0x0100\n  exp\n  dup2\n  sload\n  dup2\n  0xffffffffffffffffffffffffffffffffffffffff\n  mul\n  not\n  and\n  swap1\n  dup4\n  0xffffffffffffffffffffffffffffffffffffffff\n  and\n  mul\n  or\n  swap1\n  sstore\n  pop\n    /* \"Bank.sol\":1890:2006  constructor(address merchantAccount) public {\r... */\n  pop\n    /* \"Bank.sol\":1282:6589  contract Merchant {\r... */\n  dataSize(sub_0)\n  dup1\n  dataOffset(sub_0)\n  0x00\n  codecopy\n  0x00\n  return\nstop\n\nsub_0: assembly {\n        /* \"Bank.sol\":1282:6589  contract Merchant {\r... */\n      mstore(0x40, 0x80)\n      callvalue\n        /* \"--CODEGEN--\":8:17   */\n      dup1\n        /* \"--CODEGEN--\":5:7   */\n      iszero\n      tag_1\n      jumpi\n        /* \"--CODEGEN--\":30:31   */\n      0x00\n        /* \"--CODEGEN--\":27:28   */\n      dup1\n        /* \"--CODEGEN--\":20:32   */\n      revert\n        /* \"--CODEGEN--\":5:7   */\n    tag_1:\n        /* \"Bank.sol\":1282:6589  contract Merchant {\r... */\n      pop\n      jumpi(tag_2, lt(calldatasize, 0x04))\n      shr(0xe0, calldataload(0x00))\n      dup1\n      0xa980d7c3\n      gt\n      tag_17\n      jumpi\n      dup1\n      0xd3015d37\n      gt\n      tag_18\n      jumpi\n      dup1\n      0xd3015d37\n      eq\n      tag_13\n      jumpi\n      dup1\n      0xdaafe6a5\n      eq\n      tag_14\n      jumpi\n      dup1\n      0xdfb83729\n      eq\n      tag_15\n      jumpi\n      dup1\n      0xf1ae6f87\n      eq\n      tag_16\n      jumpi\n      jump(tag_2)\n    tag_18:\n      dup1\n      0xa980d7c3\n      eq\n      tag_10\n      jumpi\n      dup1\n      0xbddab2cc\n      eq\n      tag_11\n      jumpi\n      dup1\n      0xc38369c0\n      eq\n      tag_12\n      jumpi\n      jump(tag_2)\n    tag_17:\n      dup1\n      0x69a8e6bf\n      gt\n      tag_19\n      jumpi\n      dup1\n      0x69a8e6bf\n      eq\n      tag_6\n      jumpi\n      dup1\n      0x7423fd04\n      eq\n      tag_7\n      jumpi\n      dup1\n      0x893d20e8\n      eq\n      tag_8\n      jumpi\n      dup1\n      0x97bb6bb5\n      eq\n      tag_9\n      jumpi\n      jump(tag_2)\n    tag_19:\n      dup1\n      0x05a3f9cc\n      eq\n      tag_3\n      jumpi\n      dup1\n      0x5134dcbd\n      eq\n      tag_4\n      jumpi\n      dup1\n      0x54b7349e\n      eq\n      tag_5\n      jumpi\n    tag_2:\n      0x00\n      dup1\n      revert\n        /* \"Bank.sol\":3634:3739  function getUnusedCoupons() public view returns(address[] memory) {\r... */\n    tag_3:\n      tag_20\n      tag_21\n      jump\t// in\n    tag_20:\n      mload(0x40)\n      dup1\n      dup1\n      0x20\n      add\n      dup3\n      dup2\n      sub\n      dup3\n      mstore\n      dup4\n      dup2\n      dup2\n      mload\n      dup2\n      mstore\n      0x20\n      add\n      swap2\n      pop\n      dup1\n      mload\n      swap1\n      0x20\n      add\n      swap1\n      0x20\n      mul\n      dup1\n      dup4\n      dup4\n        /* \"--CODEGEN--\":23:24   */\n      0x00\n        /* \"--CODEGEN--\":8:108   */\n    tag_22:\n        /* \"--CODEGEN--\":33:36   */\n      dup4\n        /* \"--CODEGEN--\":30:31   */\n      dup2\n        /* \"--CODEGEN--\":27:37   */\n      lt\n        /* \"--CODEGEN--\":8:108   */\n      iszero\n      tag_24\n      jumpi\n        /* \"--CODEGEN--\":99:100   */\n      dup1\n        /* \"--CODEGEN--\":94:97   */\n      dup3\n        /* \"--CODEGEN--\":90:101   */\n      add\n        /* \"--CODEGEN--\":84:102   */\n      mload\n        /* \"--CODEGEN--\":80:81   */\n      dup2\n        /* \"--CODEGEN--\":75:78   */\n      dup5\n        /* \"--CODEGEN--\":71:82   */\n      add\n        /* \"--CODEGEN--\":64:103   */\n      mstore\n        /* \"--CODEGEN--\":52:54   */\n      0x20\n        /* \"--CODEGEN--\":49:50   */\n      dup2\n        /* \"--CODEGEN--\":45:55   */\n      add\n        /* \"--CODEGEN--\":40:55   */\n      swap1\n      pop\n        /* \"--CODEGEN--\":8:108   */\n      jump(tag_22)\n    tag_24:\n        /* \"--CODEGEN--\":12:26   */\n      pop\n        /* \"Bank.sol\":3634:3739  function getUnusedCoupons() public view returns(address[] memory) {\r... */\n      pop\n      pop\n      pop\n      swap1\n      pop\n      add\n      swap3\n      pop\n      pop\n      pop\n      mload(0x40)\n      dup1\n      swap2\n      sub\n      swap1\n      return\n        /* \"Bank.sol\":2122:2210  function settlementWithdraw() public OnlyBanker {\r... */\n    tag_4:\n      tag_25\n      tag_26\n      jump\t// in\n    tag_25:\n      stop\n        /* \"Bank.sol\":2012:2116  function settlementApprove(uint amount) public OnlyBanker {\r... */\n    tag_5:\n      tag_27\n      0x04\n      dup1\n      calldatasize\n      sub\n        /* \"--CODEGEN--\":13:15   */\n      0x20\n        /* \"--CODEGEN--\":8:11   */\n      dup2\n        /* \"--CODEGEN--\":5:16   */\n      lt\n        /* \"--CODEGEN--\":2:4   */\n      iszero\n      tag_28\n      jumpi\n        /* \"--CODEGEN--\":29:30   */\n      0x00\n        /* \"--CODEGEN--\":26:27   */\n      dup1\n        /* \"--CODEGEN--\":19:31   */\n      revert\n        /* \"--CODEGEN--\":2:4   */\n    tag_28:\n        /* \"Bank.sol\":2012:2116  function settlementApprove(uint amount) public OnlyBanker {\r... */\n      dup2\n      add\n      swap1\n      dup1\n      dup1\n      calldataload\n      swap1\n      0x20\n      add\n      swap1\n      swap3\n      swap2\n      swap1\n      pop\n      pop\n      pop\n      tag_29\n      jump\t// in\n    tag_27:\n      stop\n        /* \"Bank.sol\":2837:3628  function terminateCoupon(bytes32 curDate) public OnlyOwner {\r... */\n    tag_6:\n      tag_30\n      0x04\n      dup1\n      calldatasize\n      sub\n        /* \"--CODEGEN--\":13:15   */\n      0x20\n        /* \"--CODEGEN--\":8:11   */\n      dup2\n        /* \"--CODEGEN--\":5:16   */\n      lt\n        /* \"--CODEGEN--\":2:4   */\n      iszero\n      tag_31\n      jumpi\n        /* \"--CODEGEN--\":29:30   */\n      0x00\n        /* \"--CODEGEN--\":26:27   */\n      dup1\n        /* \"--CODEGEN--\":19:31   */\n      revert\n        /* \"--CODEGEN--\":2:4   */\n    tag_31:\n        /* \"Bank.sol\":2837:3628  function terminateCoupon(bytes32 curDate) public OnlyOwner {\r... */\n      dup2\n      add\n      swap1\n      dup1\n      dup1\n      calldataload\n      swap1\n      0x20\n      add\n      swap1\n      swap3\n      swap2\n      swap1\n      pop\n      pop\n      pop\n      tag_32\n      jump\t// in\n    tag_30:\n      stop\n        /* \"Bank.sol\":5088:6394  function confirmCouponPay(uint consumeValue, bytes32 consumeDate, address couponAddr, address _consumer) public OnlyOwner {\r... */\n    tag_7:\n      tag_33\n      0x04\n      dup1\n      calldatasize\n      sub\n        /* \"--CODEGEN--\":13:16   */\n      0x80\n        /* \"--CODEGEN--\":8:11   */\n      dup2\n        /* \"--CODEGEN--\":5:17   */\n      lt\n        /* \"--CODEGEN--\":2:4   */\n      iszero\n      tag_34\n      jumpi\n        /* \"--CODEGEN--\":30:31   */\n      0x00\n        /* \"--CODEGEN--\":27:28   */\n      dup1\n        /* \"--CODEGEN--\":20:32   */\n      revert\n        /* \"--CODEGEN--\":2:4   */\n    tag_34:\n        /* \"Bank.sol\":5088:6394  function confirmCouponPay(uint consumeValue, bytes32 consumeDate, address couponAddr, address _consumer) public OnlyOwner {\r... */\n      dup2\n      add\n      swap1\n      dup1\n      dup1\n      calldataload\n      swap1\n      0x20\n      add\n      swap1\n      swap3\n      swap2\n      swap1\n      dup1\n      calldataload\n      swap1\n      0x20\n      add\n      swap1\n      swap3\n      swap2\n      swap1\n      dup1\n      calldataload\n      0xffffffffffffffffffffffffffffffffffffffff\n      and\n      swap1\n      0x20\n      add\n      swap1\n      swap3\n      swap2\n      swap1\n      dup1\n      calldataload\n      0xffffffffffffffffffffffffffffffffffffffff\n      and\n      swap1\n      0x20\n      add\n      swap1\n      swap3\n      swap2\n      swap1\n      pop\n      pop\n      pop\n      tag_35\n      jump\t// in\n    tag_33:\n      stop\n        /* \"Bank.sol\":6400:6480  function getOwner() public view returns(address) {\r... */\n    tag_8:\n      tag_36\n      tag_37\n      jump\t// in\n    tag_36:\n      mload(0x40)\n      dup1\n      dup3\n      0xffffffffffffffffffffffffffffffffffffffff\n      and\n      0xffffffffffffffffffffffffffffffffffffffff\n      and\n      dup2\n      mstore\n      0x20\n      add\n      swap2\n      pop\n      pop\n      mload(0x40)\n      dup1\n      swap2\n      sub\n      swap1\n      return\n        /* \"Bank.sol\":2722:2831  function getNotGivenCoupons() public view returns(address[] memory) {\r... */\n    tag_9:\n      tag_38\n      tag_39\n      jump\t// in\n    tag_38:\n      mload(0x40)\n      dup1\n      dup1\n      0x20\n      add\n      dup3\n      dup2\n      sub\n      dup3\n      mstore\n      dup4\n      dup2\n      dup2\n      mload\n      dup2\n      mstore\n      0x20\n      add\n      swap2\n      pop\n      dup1\n      mload\n      swap1\n      0x20\n      add\n      swap1\n      0x20\n      mul\n      dup1\n      dup4\n      dup4\n        /* \"--CODEGEN--\":23:24   */\n      0x00\n        /* \"--CODEGEN--\":8:108   */\n    tag_40:\n        /* \"--CODEGEN--\":33:36   */\n      dup4\n        /* \"--CODEGEN--\":30:31   */\n      dup2\n        /* \"--CODEGEN--\":27:37   */\n      lt\n        /* \"--CODEGEN--\":8:108   */\n      iszero\n      tag_42\n      jumpi\n        /* \"--CODEGEN--\":99:100   */\n      dup1\n        /* \"--CODEGEN--\":94:97   */\n      dup3\n        /* \"--CODEGEN--\":90:101   */\n      add\n        /* \"--CODEGEN--\":84:102   */\n      mload\n        /* \"--CODEGEN--\":80:81   */\n      dup2\n        /* \"--CODEGEN--\":75:78   */\n      dup5\n        /* \"--CODEGEN--\":71:82   */\n      add\n        /* \"--CODEGEN--\":64:103   */\n      mstore\n        /* \"--CODEGEN--\":52:54   */\n      0x20\n        /* \"--CODEGEN--\":49:50   */\n      dup2\n        /* \"--CODEGEN--\":45:55   */\n      add\n        /* \"--CODEGEN--\":40:55   */\n      swap1\n      pop\n        /* \"--CODEGEN--\":8:108   */\n      jump(tag_40)\n    tag_42:\n        /* \"--CODEGEN--\":12:26   */\n      pop\n        /* \"Bank.sol\":2722:2831  function getNotGivenCoupons() public view returns(address[] memory) {\r... */\n      pop\n      pop\n      pop\n      swap1\n      pop\n      add\n      swap3\n      pop\n      pop\n      pop\n      mload(0x40)\n      dup1\n      swap2\n      sub\n      swap1\n      return\n        /* \"Bank.sol\":3745:3846  function getUsedCoupons() public view returns(address[] memory) {\r... */\n    tag_10:\n      tag_43\n      tag_44\n      jump\t// in\n    tag_43:\n      mload(0x40)\n      dup1\n      dup1\n      0x20\n      add\n      dup3\n      dup2\n      sub\n      dup3\n      mstore\n      dup4\n      dup2\n      dup2\n      mload\n      dup2\n      mstore\n      0x20\n      add\n      swap2\n      pop\n      dup1\n      mload\n      swap1\n      0x20\n      add\n      swap1\n      0x20\n      mul\n      dup1\n      dup4\n      dup4\n        /* \"--CODEGEN--\":23:24   */\n      0x00\n        /* \"--CODEGEN--\":8:108   */\n    tag_45:\n        /* \"--CODEGEN--\":33:36   */\n      dup4\n        /* \"--CODEGEN--\":30:31   */\n      dup2\n        /* \"--CODEGEN--\":27:37   */\n      lt\n        /* \"--CODEGEN--\":8:108   */\n      iszero\n      tag_47\n      jumpi\n        /* \"--CODEGEN--\":99:100   */\n      dup1\n        /* \"--CODEGEN--\":94:97   */\n      dup3\n        /* \"--CODEGEN--\":90:101   */\n      add\n        /* \"--CODEGEN--\":84:102   */\n      mload\n        /* \"--CODEGEN--\":80:81   */\n      dup2\n        /* \"--CODEGEN--\":75:78   */\n      dup5\n        /* \"--CODEGEN--\":71:82   */\n      add\n        /* \"--CODEGEN--\":64:103   */\n      mstore\n        /* \"--CODEGEN--\":52:54   */\n      0x20\n        /* \"--CODEGEN--\":49:50   */\n      dup2\n        /* \"--CODEGEN--\":45:55   */\n      add\n        /* \"--CODEGEN--\":40:55   */\n      swap1\n      pop\n        /* \"--CODEGEN--\":8:108   */\n      jump(tag_45)\n    tag_47:\n        /* \"--CODEGEN--\":12:26   */\n      pop\n        /* \"Bank.sol\":3745:3846  function getUsedCoupons() public view returns(address[] memory) {\r... */\n      pop\n      pop\n      pop\n      swap1\n      pop\n      add\n      swap3\n      pop\n      pop\n      pop\n      mload(0x40)\n      dup1\n      swap2\n      sub\n      swap1\n      return\n        /* \"Bank.sol\":2323:2716  function issueCoupon(uint value, uint limit, uint quantity, bytes32 startDate, bytes32 endDate) public OnlyOwner {\r... */\n    tag_11:\n      tag_48\n      0x04\n      dup1\n      calldatasize\n      sub\n        /* \"--CODEGEN--\":13:16   */\n      0xa0\n        /* \"--CODEGEN--\":8:11   */\n      dup2\n        /* \"--CODEGEN--\":5:17   */\n      lt\n        /* \"--CODEGEN--\":2:4   */\n      iszero\n      tag_49\n      jumpi\n        /* \"--CODEGEN--\":30:31   */\n      0x00\n        /* \"--CODEGEN--\":27:28   */\n      dup1\n        /* \"--CODEGEN--\":20:32   */\n      revert\n        /* \"--CODEGEN--\":2:4   */\n    tag_49:\n        /* \"Bank.sol\":2323:2716  function issueCoupon(uint value, uint limit, uint quantity, bytes32 startDate, bytes32 endDate) public OnlyOwner {\r... */\n      dup2\n      add\n      swap1\n      dup1\n      dup1\n      calldataload\n      swap1\n      0x20\n      add\n      swap1\n      swap3\n      swap2\n      swap1\n      dup1\n      calldataload\n      swap1\n      0x20\n      add\n      swap1\n      swap3\n      swap2\n      swap1\n      dup1\n      calldataload\n      swap1\n      0x20\n      add\n      swap1\n      swap3\n      swap2\n      swap1\n      dup1\n      calldataload\n      swap1\n      0x20\n      add\n      swap1\n      swap3\n      swap2\n      swap1\n      dup1\n      calldataload\n      swap1\n      0x20\n      add\n      swap1\n      swap3\n      swap2\n      swap1\n      pop\n      pop\n      pop\n      tag_50\n      jump\t// in\n    tag_48:\n      stop\n        /* \"Bank.sol\":2216:2317  function getSettlementBalance() public view returns(uint) {\r... */\n    tag_12:\n      tag_51\n      tag_52\n      jump\t// in\n    tag_51:\n      mload(0x40)\n      dup1\n      dup3\n      dup2\n      mstore\n      0x20\n      add\n      swap2\n      pop\n      pop\n      mload(0x40)\n      dup1\n      swap2\n      sub\n      swap1\n      return\n        /* \"Bank.sol\":6486:6586  function addToUsedCoupons(address couponAddr) public {\r... */\n    tag_13:\n      tag_53\n      0x04\n      dup1\n      calldatasize\n      sub\n        /* \"--CODEGEN--\":13:15   */\n      0x20\n        /* \"--CODEGEN--\":8:11   */\n      dup2\n        /* \"--CODEGEN--\":5:16   */\n      lt\n        /* \"--CODEGEN--\":2:4   */\n      iszero\n      tag_54\n      jumpi\n        /* \"--CODEGEN--\":29:30   */\n      0x00\n        /* \"--CODEGEN--\":26:27   */\n      dup1\n        /* \"--CODEGEN--\":19:31   */\n      revert\n        /* \"--CODEGEN--\":2:4   */\n    tag_54:\n        /* \"Bank.sol\":6486:6586  function addToUsedCoupons(address couponAddr) public {\r... */\n      dup2\n      add\n      swap1\n      dup1\n      dup1\n      calldataload\n      0xffffffffffffffffffffffffffffffffffffffff\n      and\n      swap1\n      0x20\n      add\n      swap1\n      swap3\n      swap2\n      swap1\n      pop\n      pop\n      pop\n      tag_55\n      jump\t// in\n    tag_53:\n      stop\n        /* \"Bank.sol\":4958:5082  function getCorrespondingGrant(bytes32 mark) public view returns(address[] memory) {\r... */\n    tag_14:\n      tag_56\n      0x04\n      dup1\n      calldatasize\n      sub\n        /* \"--CODEGEN--\":13:15   */\n      0x20\n        /* \"--CODEGEN--\":8:11   */\n      dup2\n        /* \"--CODEGEN--\":5:16   */\n      lt\n        /* \"--CODEGEN--\":2:4   */\n      iszero\n      tag_57\n      jumpi\n        /* \"--CODEGEN--\":29:30   */\n      0x00\n        /* \"--CODEGEN--\":26:27   */\n      dup1\n        /* \"--CODEGEN--\":19:31   */\n      revert\n        /* \"--CODEGEN--\":2:4   */\n    tag_57:\n        /* \"Bank.sol\":4958:5082  function getCorrespondingGrant(bytes32 mark) public view returns(address[] memory) {\r... */\n      dup2\n      add\n      swap1\n      dup1\n      dup1\n      calldataload\n      swap1\n      0x20\n      add\n      swap1\n      swap3\n      swap2\n      swap1\n      pop\n      pop\n      pop\n      tag_58\n      jump\t// in\n    tag_56:\n      mload(0x40)\n      dup1\n      dup1\n      0x20\n      add\n      dup3\n      dup2\n      sub\n      dup3\n      mstore\n      dup4\n      dup2\n      dup2\n      mload\n      dup2\n      mstore\n      0x20\n      add\n      swap2\n      pop\n      dup1\n      mload\n      swap1\n      0x20\n      add\n      swap1\n      0x20\n      mul\n      dup1\n      dup4\n      dup4\n        /* \"--CODEGEN--\":23:24   */\n      0x00\n        /* \"--CODEGEN--\":8:108   */\n    tag_59:\n        /* \"--CODEGEN--\":33:36   */\n      dup4\n        /* \"--CODEGEN--\":30:31   */\n      dup2\n        /* \"--CODEGEN--\":27:37   */\n      lt\n        /* \"--CODEGEN--\":8:108   */\n      iszero\n      tag_61\n      jumpi\n        /* \"--CODEGEN--\":99:100   */\n      dup1\n        /* \"--CODEGEN--\":94:97   */\n      dup3\n        /* \"--CODEGEN--\":90:101   */\n      add\n        /* \"--CODEGEN--\":84:102   */\n      mload\n        /* \"--CODEGEN--\":80:81   */\n      dup2\n        /* \"--CODEGEN--\":75:78   */\n      dup5\n        /* \"--CODEGEN--\":71:82   */\n      add\n        /* \"--CODEGEN--\":64:103   */\n      mstore\n        /* \"--CODEGEN--\":52:54   */\n      0x20\n        /* \"--CODEGEN--\":49:50   */\n      dup2\n        /* \"--CODEGEN--\":45:55   */\n      add\n        /* \"--CODEGEN--\":40:55   */\n      swap1\n      pop\n        /* \"--CODEGEN--\":8:108   */\n      jump(tag_59)\n    tag_61:\n        /* \"--CODEGEN--\":12:26   */\n      pop\n        /* \"Bank.sol\":4958:5082  function getCorrespondingGrant(bytes32 mark) public view returns(address[] memory) {\r... */\n      pop\n      pop\n      pop\n      swap1\n      pop\n      add\n      swap3\n      pop\n      pop\n      pop\n      mload(0x40)\n      dup1\n      swap2\n      sub\n      swap1\n      return\n        /* \"Bank.sol\":3965:4952  function grant(address _consumer, uint quantity, bytes32 date, bytes32 mark, uint obtainValue) public OnlyOwner {\r... */\n    tag_15:\n      tag_62\n      0x04\n      dup1\n      calldatasize\n      sub\n        /* \"--CODEGEN--\":13:16   */\n      0xa0\n        /* \"--CODEGEN--\":8:11   */\n      dup2\n        /* \"--CODEGEN--\":5:17   */\n      lt\n        /* \"--CODEGEN--\":2:4   */\n      iszero\n      tag_63\n      jumpi\n        /* \"--CODEGEN--\":30:31   */\n      0x00\n        /* \"--CODEGEN--\":27:28   */\n      dup1\n        /* \"--CODEGEN--\":20:32   */\n      revert\n        /* \"--CODEGEN--\":2:4   */\n    tag_63:\n        /* \"Bank.sol\":3965:4952  function grant(address _consumer, uint quantity, bytes32 date, bytes32 mark, uint obtainValue) public OnlyOwner {\r... */\n      dup2\n      add\n      swap1\n      dup1\n      dup1\n      calldataload\n      0xffffffffffffffffffffffffffffffffffffffff\n      and\n      swap1\n      0x20\n      add\n      swap1\n      swap3\n      swap2\n      swap1\n      dup1\n      calldataload\n      swap1\n      0x20\n      add\n      swap1\n      swap3\n      swap2\n      swap1\n      dup1\n      calldataload\n      swap1\n      0x20\n      add\n      swap1\n      swap3\n      swap2\n      swap1\n      dup1\n      calldataload\n      swap1\n      0x20\n      add\n      swap1\n      swap3\n      swap2\n      swap1\n      dup1\n      calldataload\n      swap1\n      0x20\n      add\n      swap1\n      swap3\n      swap2\n      swap1\n      pop\n      pop\n      pop\n      tag_64\n      jump\t// in\n    tag_62:\n      stop\n        /* \"Bank.sol\":3852:3959  function getHistoryCoupons() public view returns(address[] memory) {\r... */\n    tag_16:\n      tag_65\n      tag_66\n      jump\t// in\n    tag_65:\n      mload(0x40)\n      dup1\n      dup1\n      0x20\n      add\n      dup3\n      dup2\n      sub\n      dup3\n      mstore\n      dup4\n      dup2\n      dup2\n      mload\n      dup2\n      mstore\n      0x20\n      add\n      swap2\n      pop\n      dup1\n      mload\n      swap1\n      0x20\n      add\n      swap1\n      0x20\n      mul\n      dup1\n      dup4\n      dup4\n        /* \"--CODEGEN--\":23:24   */\n      0x00\n        /* \"--CODEGEN--\":8:108   */\n    tag_67:\n        /* \"--CODEGEN--\":33:36   */\n      dup4\n        /* \"--CODEGEN--\":30:31   */\n      dup2\n        /* \"--CODEGEN--\":27:37   */\n      lt\n        /* \"--CODEGEN--\":8:108   */\n      iszero\n      tag_69\n      jumpi\n        /* \"--CODEGEN--\":99:100   */\n      dup1\n        /* \"--CODEGEN--\":94:97   */\n      dup3\n        /* \"--CODEGEN--\":90:101   */\n      add\n        /* \"--CODEGEN--\":84:102   */\n      mload\n        /* \"--CODEGEN--\":80:81   */\n      dup2\n        /* \"--CODEGEN--\":75:78   */\n      dup5\n        /* \"--CODEGEN--\":71:82   */\n      add\n        /* \"--CODEGEN--\":64:103   */\n      mstore\n        /* \"--CODEGEN--\":52:54   */\n      0x20\n        /* \"--CODEGEN--\":49:50   */\n      dup2\n        /* \"--CODEGEN--\":45:55   */\n      add\n        /* \"--CODEGEN--\":40:55   */\n      swap1\n      pop\n        /* \"--CODEGEN--\":8:108   */\n      jump(tag_67)\n    tag_69:\n        /* \"--CODEGEN--\":12:26   */\n      pop\n        /* \"Bank.sol\":3852:3959  function getHistoryCoupons() public view returns(address[] memory) {\r... */\n      pop\n      pop\n      pop\n      swap1\n      pop\n      add\n      swap3\n      pop\n      pop\n      pop\n      mload(0x40)\n      dup1\n      swap2\n      sub\n      swap1\n      return\n        /* \"Bank.sol\":3634:3739  function getUnusedCoupons() public view returns(address[] memory) {\r... */\n    tag_21:\n        /* \"Bank.sol\":3682:3698  address[] memory */\n      0x60\n        /* \"Bank.sol\":3718:3731  unusedCoupons */\n      0x03\n        /* \"Bank.sol\":3711:3731  return unusedCoupons */\n      dup1\n      sload\n      dup1\n      0x20\n      mul\n      0x20\n      add\n      mload(0x40)\n      swap1\n      dup2\n      add\n      0x40\n      mstore\n      dup1\n      swap3\n      swap2\n      swap1\n      dup2\n      dup2\n      mstore\n      0x20\n      add\n      dup3\n      dup1\n      sload\n      dup1\n      iszero\n      tag_71\n      jumpi\n      0x20\n      mul\n      dup3\n      add\n      swap2\n      swap1\n      0x00\n      mstore\n      keccak256(0x00, 0x20)\n      swap1\n    tag_72:\n      dup2\n      0x00\n      swap1\n      sload\n      swap1\n      0x0100\n      exp\n      swap1\n      div\n      0xffffffffffffffffffffffffffffffffffffffff\n      and\n      0xffffffffffffffffffffffffffffffffffffffff\n      and\n      dup2\n      mstore\n      0x20\n      add\n      swap1\n      0x01\n      add\n      swap1\n      dup1\n      dup4\n      gt\n      tag_72\n      jumpi\n    tag_71:\n      pop\n      pop\n      pop\n      pop\n      pop\n      swap1\n      pop\n        /* \"Bank.sol\":3634:3739  function getUnusedCoupons() public view returns(address[] memory) {\r... */\n      swap1\n      jump\t// out\n        /* \"Bank.sol\":2122:2210  function settlementWithdraw() public OnlyBanker {\r... */\n    tag_26:\n        /* \"Bank.sol\":1636:1642  banker */\n      0x01\n      0x00\n      swap1\n      sload\n      swap1\n      0x0100\n      exp\n      swap1\n      div\n      0xffffffffffffffffffffffffffffffffffffffff\n      and\n        /* \"Bank.sol\":1622:1642  msg.sender == banker */\n      0xffffffffffffffffffffffffffffffffffffffff\n      and\n        /* \"Bank.sol\":1622:1632  msg.sender */\n      caller\n        /* \"Bank.sol\":1622:1642  msg.sender == banker */\n      0xffffffffffffffffffffffffffffffffffffffff\n      and\n      eq\n        /* \"Bank.sol\":1600:1705  require(\r... */\n      tag_74\n      jumpi\n      mload(0x40)\n      0x08c379a000000000000000000000000000000000000000000000000000000000\n      dup2\n      mstore\n      0x04\n      add\n      dup1\n      dup1\n      0x20\n      add\n      dup3\n      dup2\n      sub\n      dup3\n      mstore\n      0x23\n      dup2\n      mstore\n      0x20\n      add\n      dup1\n      data_79b44a84c820c09f00f273ed31145b46bd857ccbc252f2824b552a9e6858c2a0\n      0x23\n      swap2\n      codecopy\n      0x40\n      add\n      swap2\n      pop\n      pop\n      mload(0x40)\n      dup1\n      swap2\n      sub\n      swap1\n      revert\n    tag_74:\n        /* \"Bank.sol\":2201:2202  0 */\n      0x00\n        /* \"Bank.sol\":2181:2198  settlementBalance */\n      0x02\n        /* \"Bank.sol\":2181:2202  settlementBalance = 0 */\n      dup2\n      swap1\n      sstore\n      pop\n        /* \"Bank.sol\":2122:2210  function settlementWithdraw() public OnlyBanker {\r... */\n      jump\t// out\n        /* \"Bank.sol\":2012:2116  function settlementApprove(uint amount) public OnlyBanker {\r... */\n    tag_29:\n        /* \"Bank.sol\":1636:1642  banker */\n      0x01\n      0x00\n      swap1\n      sload\n      swap1\n      0x0100\n      exp\n      swap1\n      div\n      0xffffffffffffffffffffffffffffffffffffffff\n      and\n        /* \"Bank.sol\":1622:1642  msg.sender == banker */\n      0xffffffffffffffffffffffffffffffffffffffff\n      and\n        /* \"Bank.sol\":1622:1632  msg.sender */\n      caller\n        /* \"Bank.sol\":1622:1642  msg.sender == banker */\n      0xffffffffffffffffffffffffffffffffffffffff\n      and\n      eq\n        /* \"Bank.sol\":1600:1705  require(\r... */\n      tag_77\n      jumpi\n      mload(0x40)\n      0x08c379a000000000000000000000000000000000000000000000000000000000\n      dup2\n      mstore\n      0x04\n      add\n      dup1\n      dup1\n      0x20\n      add\n      dup3\n      dup2\n      sub\n      dup3\n      mstore\n      0x23\n      dup2\n      mstore\n      0x20\n      add\n      dup1\n      data_79b44a84c820c09f00f273ed31145b46bd857ccbc252f2824b552a9e6858c2a0\n      0x23\n      swap2\n      codecopy\n      0x40\n      add\n      swap2\n      pop\n      pop\n      mload(0x40)\n      dup1\n      swap2\n      sub\n      swap1\n      revert\n    tag_77:\n        /* \"Bank.sol\":2102:2108  amount */\n      dup1\n        /* \"Bank.sol\":2081:2098  settlementBalance */\n      0x02\n      0x00\n        /* \"Bank.sol\":2081:2108  settlementBalance += amount */\n      dup3\n      dup3\n      sload\n      add\n      swap3\n      pop\n      pop\n      dup2\n      swap1\n      sstore\n      pop\n        /* \"Bank.sol\":2012:2116  function settlementApprove(uint amount) public OnlyBanker {\r... */\n      pop\n      jump\t// out\n        /* \"Bank.sol\":2837:3628  function terminateCoupon(bytes32 curDate) public OnlyOwner {\r... */\n    tag_32:\n        /* \"Bank.sol\":1797:1802  owner */\n      0x00\n      dup1\n      swap1\n      sload\n      swap1\n      0x0100\n      exp\n      swap1\n      div\n      0xffffffffffffffffffffffffffffffffffffffff\n      and\n        /* \"Bank.sol\":1783:1802  msg.sender == owner */\n      0xffffffffffffffffffffffffffffffffffffffff\n      and\n        /* \"Bank.sol\":1783:1793  msg.sender */\n      caller\n        /* \"Bank.sol\":1783:1802  msg.sender == owner */\n      0xffffffffffffffffffffffffffffffffffffffff\n      and\n      eq\n        /* \"Bank.sol\":1761:1864  require(\r... */\n      tag_80\n      jumpi\n      mload(0x40)\n      0x08c379a000000000000000000000000000000000000000000000000000000000\n      dup2\n      mstore\n      0x04\n      add\n      dup1\n      dup1\n      0x20\n      add\n      dup3\n      dup2\n      sub\n      dup3\n      mstore\n      0x22\n      dup2\n      mstore\n      0x20\n      add\n      dup1\n      data_0fcea41e877c4f84237ea6b9061acc9b3fc97555de5ba31615eb7b8cf7110239\n      0x22\n      swap2\n      codecopy\n      0x40\n      add\n      swap2\n      pop\n      pop\n      mload(0x40)\n      dup1\n      swap2\n      sub\n      swap1\n      revert\n    tag_80:\n        /* \"Bank.sol\":2912:2918  uint k */\n      0x00\n        /* \"Bank.sol\":2921:2922  0 */\n      dup1\n        /* \"Bank.sol\":2912:2922  uint k = 0 */\n      swap1\n      pop\n        /* \"Bank.sol\":2907:3123  for (uint k = 0; k < notGivenCoupons.length; k++) {\r... */\n    tag_82:\n        /* \"Bank.sol\":2928:2943  notGivenCoupons */\n      0x05\n        /* \"Bank.sol\":2928:2950  notGivenCoupons.length */\n      dup1\n      sload\n      swap1\n      pop\n        /* \"Bank.sol\":2924:2925  k */\n      dup2\n        /* \"Bank.sol\":2924:2950  k < notGivenCoupons.length */\n      lt\n        /* \"Bank.sol\":2907:3123  for (uint k = 0; k < notGivenCoupons.length; k++) {\r... */\n      iszero\n      tag_83\n      jumpi\n        /* \"Bank.sol\":2972:2986  historyCoupons */\n      0x06\n        /* \"Bank.sol\":2992:3007  notGivenCoupons */\n      0x05\n        /* \"Bank.sol\":3008:3009  k */\n      dup3\n        /* \"Bank.sol\":2992:3010  notGivenCoupons[k] */\n      dup2\n      sload\n      dup2\n      lt\n      tag_85\n      jumpi\n      invalid\n    tag_85:\n      swap1\n      0x00\n      mstore\n      keccak256(0x00, 0x20)\n      add\n      0x00\n      swap1\n      sload\n      swap1\n      0x0100\n      exp\n      swap1\n      div\n      0xffffffffffffffffffffffffffffffffffffffff\n      and\n        /* \"Bank.sol\":2972:3011  historyCoupons.push(notGivenCoupons[k]) */\n      swap1\n      dup1\n        /* \"--CODEGEN--\":39:40   */\n      0x01\n        /* \"--CODEGEN--\":33:36   */\n      dup2\n        /* \"--CODEGEN--\":27:37   */\n      sload\n        /* \"--CODEGEN--\":23:41   */\n      add\n        /* \"--CODEGEN--\":57:67   */\n      dup1\n        /* \"--CODEGEN--\":52:55   */\n      dup3\n        /* \"--CODEGEN--\":45:68   */\n      sstore\n        /* \"--CODEGEN--\":79:89   */\n      dup1\n        /* \"--CODEGEN--\":72:89   */\n      swap2\n      pop\n        /* \"--CODEGEN--\":0:93   */\n      pop\n        /* \"Bank.sol\":2972:3011  historyCoupons.push(notGivenCoupons[k]) */\n      swap1\n      0x01\n      dup3\n      sub\n      swap1\n      0x00\n      mstore\n      keccak256(0x00, 0x20)\n      add\n      0x00\n      swap1\n      swap2\n      swap3\n      swap1\n      swap2\n      swap1\n      swap2\n      0x0100\n      exp\n      dup2\n      sload\n      dup2\n      0xffffffffffffffffffffffffffffffffffffffff\n      mul\n      not\n      and\n      swap1\n      dup4\n      0xffffffffffffffffffffffffffffffffffffffff\n      and\n      mul\n      or\n      swap1\n      sstore\n      pop\n      pop\n        /* \"Bank.sol\":3026:3034  Coupon c */\n      0x00\n        /* \"Bank.sol\":3044:3059  notGivenCoupons */\n      0x05\n        /* \"Bank.sol\":3060:3061  k */\n      dup3\n        /* \"Bank.sol\":3044:3062  notGivenCoupons[k] */\n      dup2\n      sload\n      dup2\n      lt\n      tag_88\n      jumpi\n      invalid\n    tag_88:\n      swap1\n      0x00\n      mstore\n      keccak256(0x00, 0x20)\n      add\n      0x00\n      swap1\n      sload\n      swap1\n      0x0100\n      exp\n      swap1\n      div\n      0xffffffffffffffffffffffffffffffffffffffff\n      and\n        /* \"Bank.sol\":3026:3063  Coupon c = Coupon(notGivenCoupons[k]) */\n      swap1\n      pop\n        /* \"Bank.sol\":3099:3100  c */\n      dup1\n        /* \"Bank.sol\":3099:3109  c.getValue */\n      0xffffffffffffffffffffffffffffffffffffffff\n      and\n      0x20965255\n        /* \"Bank.sol\":3099:3111  c.getValue() */\n      mload(0x40)\n      dup2\n      0xffffffff\n      and\n      0xe0\n      shl\n      dup2\n      mstore\n      0x04\n      add\n      0x20\n      mload(0x40)\n      dup1\n      dup4\n      sub\n      dup2\n      dup7\n      dup1\n      extcodesize\n      iszero\n        /* \"--CODEGEN--\":8:17   */\n      dup1\n        /* \"--CODEGEN--\":5:7   */\n      iszero\n      tag_90\n      jumpi\n        /* \"--CODEGEN--\":30:31   */\n      0x00\n        /* \"--CODEGEN--\":27:28   */\n      dup1\n        /* \"--CODEGEN--\":20:32   */\n      revert\n        /* \"--CODEGEN--\":5:7   */\n    tag_90:\n        /* \"Bank.sol\":3099:3111  c.getValue() */\n      pop\n      gas\n      staticcall\n      iszero\n        /* \"--CODEGEN--\":8:17   */\n      dup1\n        /* \"--CODEGEN--\":5:7   */\n      iszero\n      tag_91\n      jumpi\n        /* \"--CODEGEN--\":45:61   */\n      returndatasize\n        /* \"--CODEGEN--\":42:43   */\n      0x00\n        /* \"--CODEGEN--\":39:40   */\n      dup1\n        /* \"--CODEGEN--\":24:62   */\n      returndatacopy\n        /* \"--CODEGEN--\":77:93   */\n      returndatasize\n        /* \"--CODEGEN--\":74:75   */\n      0x00\n        /* \"--CODEGEN--\":67:94   */\n      revert\n        /* \"--CODEGEN--\":5:7   */\n    tag_91:\n        /* \"Bank.sol\":3099:3111  c.getValue() */\n      pop\n      pop\n      pop\n      pop\n      mload(0x40)\n      returndatasize\n        /* \"--CODEGEN--\":13:15   */\n      0x20\n        /* \"--CODEGEN--\":8:11   */\n      dup2\n        /* \"--CODEGEN--\":5:16   */\n      lt\n        /* \"--CODEGEN--\":2:4   */\n      iszero\n      tag_92\n      jumpi\n        /* \"--CODEGEN--\":29:30   */\n      0x00\n        /* \"--CODEGEN--\":26:27   */\n      dup1\n        /* \"--CODEGEN--\":19:31   */\n      revert\n        /* \"--CODEGEN--\":2:4   */\n    tag_92:\n        /* \"Bank.sol\":3099:3111  c.getValue() */\n      dup2\n      add\n      swap1\n      dup1\n      dup1\n      mload\n      swap1\n      0x20\n      add\n      swap1\n      swap3\n      swap2\n      swap1\n      pop\n      pop\n      pop\n        /* \"Bank.sol\":3078:3095  settlementBalance */\n      0x02\n      0x00\n        /* \"Bank.sol\":3078:3111  settlementBalance += c.getValue() */\n      dup3\n      dup3\n      sload\n      add\n      swap3\n      pop\n      pop\n      dup2\n      swap1\n      sstore\n      pop\n        /* \"Bank.sol\":2907:3123  for (uint k = 0; k < notGivenCoupons.length; k++) {\r... */\n      pop\n        /* \"Bank.sol\":2952:2955  k++ */\n      dup1\n      dup1\n      0x01\n      add\n      swap2\n      pop\n      pop\n        /* \"Bank.sol\":2907:3123  for (uint k = 0; k < notGivenCoupons.length; k++) {\r... */\n      jump(tag_82)\n    tag_83:\n      pop\n        /* \"Bank.sol\":3140:3155  notGivenCoupons */\n      0x05\n      0x00\n        /* \"Bank.sol\":3133:3155  delete notGivenCoupons */\n      tag_93\n      swap2\n      swap1\n      tag_94\n      jump\t// in\n    tag_93:\n        /* \"Bank.sol\":3171:3177  uint i */\n      0x00\n        /* \"Bank.sol\":3180:3181  0 */\n      dup1\n        /* \"Bank.sol\":3171:3181  uint i = 0 */\n      swap1\n      pop\n        /* \"Bank.sol\":3166:3443  for (uint i = 0; i < unusedCoupons.length; i++) {\r... */\n    tag_95:\n        /* \"Bank.sol\":3187:3200  unusedCoupons */\n      0x03\n        /* \"Bank.sol\":3187:3207  unusedCoupons.length */\n      dup1\n      sload\n      swap1\n      pop\n        /* \"Bank.sol\":3183:3184  i */\n      dup2\n        /* \"Bank.sol\":3183:3207  i < unusedCoupons.length */\n      lt\n        /* \"Bank.sol\":3166:3443  for (uint i = 0; i < unusedCoupons.length; i++) {\r... */\n      iszero\n      tag_96\n      jumpi\n        /* \"Bank.sol\":3229:3238  Coupon c1 */\n      0x00\n        /* \"Bank.sol\":3248:3261  unusedCoupons */\n      0x03\n        /* \"Bank.sol\":3262:3263  i */\n      dup3\n        /* \"Bank.sol\":3248:3264  unusedCoupons[i] */\n      dup2\n      sload\n      dup2\n      lt\n      tag_98\n      jumpi\n      invalid\n    tag_98:\n      swap1\n      0x00\n      mstore\n      keccak256(0x00, 0x20)\n      add\n      0x00\n      swap1\n      sload\n      swap1\n      0x0100\n      exp\n      swap1\n      div\n      0xffffffffffffffffffffffffffffffffffffffff\n      and\n        /* \"Bank.sol\":3229:3265  Coupon c1 = Coupon(unusedCoupons[i]) */\n      swap1\n      pop\n        /* \"Bank.sol\":3302:3309  curDate */\n      dup3\n        /* \"Bank.sol\":3284:3286  c1 */\n      dup2\n        /* \"Bank.sol\":3284:3297  c1.getEndDate */\n      0xffffffffffffffffffffffffffffffffffffffff\n      and\n      0xb1356488\n        /* \"Bank.sol\":3284:3299  c1.getEndDate() */\n      mload(0x40)\n      dup2\n      0xffffffff\n      and\n      0xe0\n      shl\n      dup2\n      mstore\n      0x04\n      add\n      0x20\n      mload(0x40)\n      dup1\n      dup4\n      sub\n      dup2\n      dup7\n      dup1\n      extcodesize\n      iszero\n        /* \"--CODEGEN--\":8:17   */\n      dup1\n        /* \"--CODEGEN--\":5:7   */\n      iszero\n      tag_100\n      jumpi\n        /* \"--CODEGEN--\":30:31   */\n      0x00\n        /* \"--CODEGEN--\":27:28   */\n      dup1\n        /* \"--CODEGEN--\":20:32   */\n      revert\n        /* \"--CODEGEN--\":5:7   */\n    tag_100:\n        /* \"Bank.sol\":3284:3299  c1.getEndDate() */\n      pop\n      gas\n      staticcall\n      iszero\n        /* \"--CODEGEN--\":8:17   */\n      dup1\n        /* \"--CODEGEN--\":5:7   */\n      iszero\n      tag_101\n      jumpi\n        /* \"--CODEGEN--\":45:61   */\n      returndatasize\n        /* \"--CODEGEN--\":42:43   */\n      0x00\n        /* \"--CODEGEN--\":39:40   */\n      dup1\n        /* \"--CODEGEN--\":24:62   */\n      returndatacopy\n        /* \"--CODEGEN--\":77:93   */\n      returndatasize\n        /* \"--CODEGEN--\":74:75   */\n      0x00\n        /* \"--CODEGEN--\":67:94   */\n      revert\n        /* \"--CODEGEN--\":5:7   */\n    tag_101:\n        /* \"Bank.sol\":3284:3299  c1.getEndDate() */\n      pop\n      pop\n      pop\n      pop\n      mload(0x40)\n      returndatasize\n        /* \"--CODEGEN--\":13:15   */\n      0x20\n        /* \"--CODEGEN--\":8:11   */\n      dup2\n        /* \"--CODEGEN--\":5:16   */\n      lt\n        /* \"--CODEGEN--\":2:4   */\n      iszero\n      tag_102\n      jumpi\n        /* \"--CODEGEN--\":29:30   */\n      0x00\n        /* \"--CODEGEN--\":26:27   */\n      dup1\n        /* \"--CODEGEN--\":19:31   */\n      revert\n        /* \"--CODEGEN--\":2:4   */\n    tag_102:\n        /* \"Bank.sol\":3284:3299  c1.getEndDate() */\n      dup2\n      add\n      swap1\n      dup1\n      dup1\n      mload\n      swap1\n      0x20\n      add\n      swap1\n      swap3\n      swap2\n      swap1\n      pop\n      pop\n      pop\n        /* \"Bank.sol\":3284:3309  c1.getEndDate() < curDate */\n      lt\n        /* \"Bank.sol\":3280:3380  if (c1.getEndDate() < curDate) {\r... */\n      iszero\n      tag_103\n      jumpi\n        /* \"Bank.sol\":3351:3353  c1 */\n      dup1\n        /* \"Bank.sol\":3351:3362  c1.getValue */\n      0xffffffffffffffffffffffffffffffffffffffff\n      and\n      0x20965255\n        /* \"Bank.sol\":3351:3364  c1.getValue() */\n      mload(0x40)\n      dup2\n      0xffffffff\n      and\n      0xe0\n      shl\n      dup2\n      mstore\n      0x04\n      add\n      0x20\n      mload(0x40)\n      dup1\n      dup4\n      sub\n      dup2\n      dup7\n      dup1\n      extcodesize\n      iszero\n        /* \"--CODEGEN--\":8:17   */\n      dup1\n        /* \"--CODEGEN--\":5:7   */\n      iszero\n      tag_104\n      jumpi\n        /* \"--CODEGEN--\":30:31   */\n      0x00\n        /* \"--CODEGEN--\":27:28   */\n      dup1\n        /* \"--CODEGEN--\":20:32   */\n      revert\n        /* \"--CODEGEN--\":5:7   */\n    tag_104:\n        /* \"Bank.sol\":3351:3364  c1.getValue() */\n      pop\n      gas\n      staticcall\n      iszero\n        /* \"--CODEGEN--\":8:17   */\n      dup1\n        /* \"--CODEGEN--\":5:7   */\n      iszero\n      tag_105\n      jumpi\n        /* \"--CODEGEN--\":45:61   */\n      returndatasize\n        /* \"--CODEGEN--\":42:43   */\n      0x00\n        /* \"--CODEGEN--\":39:40   */\n      dup1\n        /* \"--CODEGEN--\":24:62   */\n      returndatacopy\n        /* \"--CODEGEN--\":77:93   */\n      returndatasize\n        /* \"--CODEGEN--\":74:75   */\n      0x00\n        /* \"--CODEGEN--\":67:94   */\n      revert\n        /* \"--CODEGEN--\":5:7   */\n    tag_105:\n        /* \"Bank.sol\":3351:3364  c1.getValue() */\n      pop\n      pop\n      pop\n      pop\n      mload(0x40)\n      returndatasize\n        /* \"--CODEGEN--\":13:15   */\n      0x20\n        /* \"--CODEGEN--\":8:11   */\n      dup2\n        /* \"--CODEGEN--\":5:16   */\n      lt\n        /* \"--CODEGEN--\":2:4   */\n      iszero\n      tag_106\n      jumpi\n        /* \"--CODEGEN--\":29:30   */\n      0x00\n        /* \"--CODEGEN--\":26:27   */\n      dup1\n        /* \"--CODEGEN--\":19:31   */\n      revert\n        /* \"--CODEGEN--\":2:4   */\n    tag_106:\n        /* \"Bank.sol\":3351:3364  c1.getValue() */\n      dup2\n      add\n      swap1\n      dup1\n      dup1\n      mload\n      swap1\n      0x20\n      add\n      swap1\n      swap3\n      swap2\n      swap1\n      pop\n      pop\n      pop\n        /* \"Bank.sol\":3330:3347  settlementBalance */\n      0x02\n      0x00\n        /* \"Bank.sol\":3330:3364  settlementBalance += c1.getValue() */\n      dup3\n      dup3\n      sload\n      add\n      swap3\n      pop\n      pop\n      dup2\n      swap1\n      sstore\n      pop\n        /* \"Bank.sol\":3280:3380  if (c1.getEndDate() < curDate) {\r... */\n    tag_103:\n        /* \"Bank.sol\":3394:3408  historyCoupons */\n      0x06\n        /* \"Bank.sol\":3414:3427  unusedCoupons */\n      0x03\n        /* \"Bank.sol\":3428:3429  i */\n      dup4\n        /* \"Bank.sol\":3414:3430  unusedCoupons[i] */\n      dup2\n      sload\n      dup2\n      lt\n      tag_107\n      jumpi\n      invalid\n    tag_107:\n      swap1\n      0x00\n      mstore\n      keccak256(0x00, 0x20)\n      add\n      0x00\n      swap1\n      sload\n      swap1\n      0x0100\n      exp\n      swap1\n      div\n      0xffffffffffffffffffffffffffffffffffffffff\n      and\n        /* \"Bank.sol\":3394:3431  historyCoupons.push(unusedCoupons[i]) */\n      swap1\n      dup1\n        /* \"--CODEGEN--\":39:40   */\n      0x01\n        /* \"--CODEGEN--\":33:36   */\n      dup2\n        /* \"--CODEGEN--\":27:37   */\n      sload\n        /* \"--CODEGEN--\":23:41   */\n      add\n        /* \"--CODEGEN--\":57:67   */\n      dup1\n        /* \"--CODEGEN--\":52:55   */\n      dup3\n        /* \"--CODEGEN--\":45:68   */\n      sstore\n        /* \"--CODEGEN--\":79:89   */\n      dup1\n        /* \"--CODEGEN--\":72:89   */\n      swap2\n      pop\n        /* \"--CODEGEN--\":0:93   */\n      pop\n        /* \"Bank.sol\":3394:3431  historyCoupons.push(unusedCoupons[i]) */\n      swap1\n      0x01\n      dup3\n      sub\n      swap1\n      0x00\n      mstore\n      keccak256(0x00, 0x20)\n      add\n      0x00\n      swap1\n      swap2\n      swap3\n      swap1\n      swap2\n      swap1\n      swap2\n      0x0100\n      exp\n      dup2\n      sload\n      dup2\n      0xffffffffffffffffffffffffffffffffffffffff\n      mul\n      not\n      and\n      swap1\n      dup4\n      0xffffffffffffffffffffffffffffffffffffffff\n      and\n      mul\n      or\n      swap1\n      sstore\n      pop\n      pop\n        /* \"Bank.sol\":3166:3443  for (uint i = 0; i < unusedCoupons.length; i++) {\r... */\n      pop\n        /* \"Bank.sol\":3209:3212  i++ */\n      dup1\n      dup1\n      0x01\n      add\n      swap2\n      pop\n      pop\n        /* \"Bank.sol\":3166:3443  for (uint i = 0; i < unusedCoupons.length; i++) {\r... */\n      jump(tag_95)\n    tag_96:\n      pop\n        /* \"Bank.sol\":3460:3473  unusedCoupons */\n      0x03\n      0x00\n        /* \"Bank.sol\":3453:3473  delete unusedCoupons */\n      tag_110\n      swap2\n      swap1\n      tag_94\n      jump\t// in\n    tag_110:\n        /* \"Bank.sol\":3489:3495  uint j */\n      0x00\n        /* \"Bank.sol\":3498:3499  0 */\n      dup1\n        /* \"Bank.sol\":3489:3499  uint j = 0 */\n      swap1\n      pop\n        /* \"Bank.sol\":3484:3592  for (uint j = 0; j < usedCoupons.length; j++) {\r... */\n    tag_111:\n        /* \"Bank.sol\":3505:3516  usedCoupons */\n      0x04\n        /* \"Bank.sol\":3505:3523  usedCoupons.length */\n      dup1\n      sload\n      swap1\n      pop\n        /* \"Bank.sol\":3501:3502  j */\n      dup2\n        /* \"Bank.sol\":3501:3523  j < usedCoupons.length */\n      lt\n        /* \"Bank.sol\":3484:3592  for (uint j = 0; j < usedCoupons.length; j++) {\r... */\n      iszero\n      tag_112\n      jumpi\n        /* \"Bank.sol\":3545:3559  historyCoupons */\n      0x06\n        /* \"Bank.sol\":3565:3576  usedCoupons */\n      0x04\n        /* \"Bank.sol\":3577:3578  j */\n      dup3\n        /* \"Bank.sol\":3565:3579  usedCoupons[j] */\n      dup2\n      sload\n      dup2\n      lt\n      tag_114\n      jumpi\n      invalid\n    tag_114:\n      swap1\n      0x00\n      mstore\n      keccak256(0x00, 0x20)\n      add\n      0x00\n      swap1\n      sload\n      swap1\n      0x0100\n      exp\n      swap1\n      div\n      0xffffffffffffffffffffffffffffffffffffffff\n      and\n        /* \"Bank.sol\":3545:3580  historyCoupons.push(usedCoupons[j]) */\n      swap1\n      dup1\n        /* \"--CODEGEN--\":39:40   */\n      0x01\n        /* \"--CODEGEN--\":33:36   */\n      dup2\n        /* \"--CODEGEN--\":27:37   */\n      sload\n        /* \"--CODEGEN--\":23:41   */\n      add\n        /* \"--CODEGEN--\":57:67   */\n      dup1\n        /* \"--CODEGEN--\":52:55   */\n      dup3\n        /* \"--CODEGEN--\":45:68   */\n      sstore\n        /* \"--CODEGEN--\":79:89   */\n      dup1\n        /* \"--CODEGEN--\":72:89   */\n      swap2\n      pop\n        /* \"--CODEGEN--\":0:93   */\n      pop\n        /* \"Bank.sol\":3545:3580  historyCoupons.push(usedCoupons[j]) */\n      swap1\n      0x01\n      dup3\n      sub\n      swap1\n      0x00\n      mstore\n      keccak256(0x00, 0x20)\n      add\n      0x00\n      swap1\n      swap2\n      swap3\n      swap1\n      swap2\n      swap1\n      swap2\n      0x0100\n      exp\n      dup2\n      sload\n      dup2\n      0xffffffffffffffffffffffffffffffffffffffff\n      mul\n      not\n      and\n      swap1\n      dup4\n      0xffffffffffffffffffffffffffffffffffffffff\n      and\n      mul\n      or\n      swap1\n      sstore\n      pop\n      pop\n        /* \"Bank.sol\":3525:3528  j++ */\n      dup1\n      dup1\n      0x01\n      add\n      swap2\n      pop\n      pop\n        /* \"Bank.sol\":3484:3592  for (uint j = 0; j < usedCoupons.length; j++) {\r... */\n      jump(tag_111)\n    tag_112:\n      pop\n        /* \"Bank.sol\":3609:3620  usedCoupons */\n      0x04\n      0x00\n        /* \"Bank.sol\":3602:3620  delete usedCoupons */\n      tag_117\n      swap2\n      swap1\n      tag_94\n      jump\t// in\n    tag_117:\n        /* \"Bank.sol\":2837:3628  function terminateCoupon(bytes32 curDate) public OnlyOwner {\r... */\n      pop\n      jump\t// out\n        /* \"Bank.sol\":5088:6394  function confirmCouponPay(uint consumeValue, bytes32 consumeDate, address couponAddr, address _consumer) public OnlyOwner {\r... */\n    tag_35:\n        /* \"Bank.sol\":1797:1802  owner */\n      0x00\n      dup1\n      swap1\n      sload\n      swap1\n      0x0100\n      exp\n      swap1\n      div\n      0xffffffffffffffffffffffffffffffffffffffff\n      and\n        /* \"Bank.sol\":1783:1802  msg.sender == owner */\n      0xffffffffffffffffffffffffffffffffffffffff\n      and\n        /* \"Bank.sol\":1783:1793  msg.sender */\n      caller\n        /* \"Bank.sol\":1783:1802  msg.sender == owner */\n      0xffffffffffffffffffffffffffffffffffffffff\n      and\n      eq\n        /* \"Bank.sol\":1761:1864  require(\r... */\n      tag_119\n      jumpi\n      mload(0x40)\n      0x08c379a000000000000000000000000000000000000000000000000000000000\n      dup2\n      mstore\n      0x04\n      add\n      dup1\n      dup1\n      0x20\n      add\n      dup3\n      dup2\n      sub\n      dup3\n      mstore\n      0x22\n      dup2\n      mstore\n      0x20\n      add\n      dup1\n      data_0fcea41e877c4f84237ea6b9061acc9b3fc97555de5ba31615eb7b8cf7110239\n      0x22\n      swap2\n      codecopy\n      0x40\n      add\n      swap2\n      pop\n      pop\n      mload(0x40)\n      dup1\n      swap2\n      sub\n      swap1\n      revert\n    tag_119:\n        /* \"Bank.sol\":5221:5234  Coupon coupon */\n      0x00\n        /* \"Bank.sol\":5244:5254  couponAddr */\n      dup3\n        /* \"Bank.sol\":5221:5255  Coupon coupon = Coupon(couponAddr) */\n      swap1\n      pop\n        /* \"Bank.sol\":5286:5292  coupon */\n      dup1\n        /* \"Bank.sol\":5286:5301  coupon.getLimit */\n      0xffffffffffffffffffffffffffffffffffffffff\n      and\n      0xb295a00e\n        /* \"Bank.sol\":5286:5303  coupon.getLimit() */\n      mload(0x40)\n      dup2\n      0xffffffff\n      and\n      0xe0\n      shl\n      dup2\n      mstore\n      0x04\n      add\n      0x20\n      mload(0x40)\n      dup1\n      dup4\n      sub\n      dup2\n      dup7\n      dup1\n      extcodesize\n      iszero\n        /* \"--CODEGEN--\":8:17   */\n      dup1\n        /* \"--CODEGEN--\":5:7   */\n      iszero\n      tag_121\n      jumpi\n        /* \"--CODEGEN--\":30:31   */\n      0x00\n        /* \"--CODEGEN--\":27:28   */\n      dup1\n        /* \"--CODEGEN--\":20:32   */\n      revert\n        /* \"--CODEGEN--\":5:7   */\n    tag_121:\n        /* \"Bank.sol\":5286:5303  coupon.getLimit() */\n      pop\n      gas\n      staticcall\n      iszero\n        /* \"--CODEGEN--\":8:17   */\n      dup1\n        /* \"--CODEGEN--\":5:7   */\n      iszero\n      tag_122\n      jumpi\n        /* \"--CODEGEN--\":45:61   */\n      returndatasize\n        /* \"--CODEGEN--\":42:43   */\n      0x00\n        /* \"--CODEGEN--\":39:40   */\n      dup1\n        /* \"--CODEGEN--\":24:62   */\n      returndatacopy\n        /* \"--CODEGEN--\":77:93   */\n      returndatasize\n        /* \"--CODEGEN--\":74:75   */\n      0x00\n        /* \"--CODEGEN--\":67:94   */\n      revert\n        /* \"--CODEGEN--\":5:7   */\n    tag_122:\n        /* \"Bank.sol\":5286:5303  coupon.getLimit() */\n      pop\n      pop\n      pop\n      pop\n      mload(0x40)\n      returndatasize\n        /* \"--CODEGEN--\":13:15   */\n      0x20\n        /* \"--CODEGEN--\":8:11   */\n      dup2\n        /* \"--CODEGEN--\":5:16   */\n      lt\n        /* \"--CODEGEN--\":2:4   */\n      iszero\n      tag_123\n      jumpi\n        /* \"--CODEGEN--\":29:30   */\n      0x00\n        /* \"--CODEGEN--\":26:27   */\n      dup1\n        /* \"--CODEGEN--\":19:31   */\n      revert\n        /* \"--CODEGEN--\":2:4   */\n    tag_123:\n        /* \"Bank.sol\":5286:5303  coupon.getLimit() */\n      dup2\n      add\n      swap1\n      dup1\n      dup1\n      mload\n      swap1\n      0x20\n      add\n      swap1\n      swap3\n      swap2\n      swap1\n      pop\n      pop\n      pop\n        /* \"Bank.sol\":5270:5282  consumeValue */\n      dup6\n        /* \"Bank.sol\":5270:5303  consumeValue >= coupon.getLimit() */\n      lt\n        /* \"Bank.sol\":5266:6387  if (consumeValue >= coupon.getLimit()) {\r... */\n      tag_124\n      jumpi\n        /* \"Bank.sol\":5320:5326  coupon */\n      dup1\n        /* \"Bank.sol\":5320:5342  coupon.setConsumeValue */\n      0xffffffffffffffffffffffffffffffffffffffff\n      and\n      0xfb61d1dc\n        /* \"Bank.sol\":5343:5355  consumeValue */\n      dup7\n        /* \"Bank.sol\":5320:5356  coupon.setConsumeValue(consumeValue) */\n      mload(0x40)\n      dup3\n      0xffffffff\n      and\n      0xe0\n      shl\n      dup2\n      mstore\n      0x04\n      add\n      dup1\n      dup3\n      dup2\n      mstore\n      0x20\n      add\n      swap2\n      pop\n      pop\n      0x00\n      mload(0x40)\n      dup1\n      dup4\n      sub\n      dup2\n      0x00\n      dup8\n      dup1\n      extcodesize\n      iszero\n        /* \"--CODEGEN--\":8:17   */\n      dup1\n        /* \"--CODEGEN--\":5:7   */\n      iszero\n      tag_125\n      jumpi\n        /* \"--CODEGEN--\":30:31   */\n      0x00\n        /* \"--CODEGEN--\":27:28   */\n      dup1\n        /* \"--CODEGEN--\":20:32   */\n      revert\n        /* \"--CODEGEN--\":5:7   */\n    tag_125:\n        /* \"Bank.sol\":5320:5356  coupon.setConsumeValue(consumeValue) */\n      pop\n      gas\n      call\n      iszero\n        /* \"--CODEGEN--\":8:17   */\n      dup1\n        /* \"--CODEGEN--\":5:7   */\n      iszero\n      tag_126\n      jumpi\n        /* \"--CODEGEN--\":45:61   */\n      returndatasize\n        /* \"--CODEGEN--\":42:43   */\n      0x00\n        /* \"--CODEGEN--\":39:40   */\n      dup1\n        /* \"--CODEGEN--\":24:62   */\n      returndatacopy\n        /* \"--CODEGEN--\":77:93   */\n      returndatasize\n        /* \"--CODEGEN--\":74:75   */\n      0x00\n        /* \"--CODEGEN--\":67:94   */\n      revert\n        /* \"--CODEGEN--\":5:7   */\n    tag_126:\n        /* \"Bank.sol\":5320:5356  coupon.setConsumeValue(consumeValue) */\n      pop\n      pop\n      pop\n      pop\n        /* \"Bank.sol\":5371:5377  coupon */\n      dup1\n        /* \"Bank.sol\":5371:5392  coupon.setConsumeDate */\n      0xffffffffffffffffffffffffffffffffffffffff\n      and\n      0x54da0114\n        /* \"Bank.sol\":5393:5404  consumeDate */\n      dup6\n        /* \"Bank.sol\":5371:5405  coupon.setConsumeDate(consumeDate) */\n      mload(0x40)\n      dup3\n      0xffffffff\n      and\n      0xe0\n      shl\n      dup2\n      mstore\n      0x04\n      add\n      dup1\n      dup3\n      dup2\n      mstore\n      0x20\n      add\n      swap2\n      pop\n      pop\n      0x00\n      mload(0x40)\n      dup1\n      dup4\n      sub\n      dup2\n      0x00\n      dup8\n      dup1\n      extcodesize\n      iszero\n        /* \"--CODEGEN--\":8:17   */\n      dup1\n        /* \"--CODEGEN--\":5:7   */\n      iszero\n      tag_127\n      jumpi\n        /* \"--CODEGEN--\":30:31   */\n      0x00\n        /* \"--CODEGEN--\":27:28   */\n      dup1\n        /* \"--CODEGEN--\":20:32   */\n      revert\n        /* \"--CODEGEN--\":5:7   */\n    tag_127:\n        /* \"Bank.sol\":5371:5405  coupon.setConsumeDate(consumeDate) */\n      pop\n      gas\n      call\n      iszero\n        /* \"--CODEGEN--\":8:17   */\n      dup1\n        /* \"--CODEGEN--\":5:7   */\n      iszero\n      tag_128\n      jumpi\n        /* \"--CODEGEN--\":45:61   */\n      returndatasize\n        /* \"--CODEGEN--\":42:43   */\n      0x00\n        /* \"--CODEGEN--\":39:40   */\n      dup1\n        /* \"--CODEGEN--\":24:62   */\n      returndatacopy\n        /* \"--CODEGEN--\":77:93   */\n      returndatasize\n        /* \"--CODEGEN--\":74:75   */\n      0x00\n        /* \"--CODEGEN--\":67:94   */\n      revert\n        /* \"--CODEGEN--\":5:7   */\n    tag_128:\n        /* \"Bank.sol\":5371:5405  coupon.setConsumeDate(consumeDate) */\n      pop\n      pop\n      pop\n      pop\n        /* \"Bank.sol\":5420:5426  coupon */\n      dup1\n        /* \"Bank.sol\":5420:5435  coupon.setState */\n      0xffffffffffffffffffffffffffffffffffffffff\n      and\n      0xa9e966b7\n        /* \"Bank.sol\":5436:5437  3 */\n      0x03\n        /* \"Bank.sol\":5420:5438  coupon.setState(3) */\n      mload(0x40)\n      dup3\n      0xffffffff\n      and\n      0xe0\n      shl\n      dup2\n      mstore\n      0x04\n      add\n      dup1\n      dup3\n      dup2\n      mstore\n      0x20\n      add\n      swap2\n      pop\n      pop\n      0x00\n      mload(0x40)\n      dup1\n      dup4\n      sub\n      dup2\n      0x00\n      dup8\n      dup1\n      extcodesize\n      iszero\n        /* \"--CODEGEN--\":8:17   */\n      dup1\n        /* \"--CODEGEN--\":5:7   */\n      iszero\n      tag_129\n      jumpi\n        /* \"--CODEGEN--\":30:31   */\n      0x00\n        /* \"--CODEGEN--\":27:28   */\n      dup1\n        /* \"--CODEGEN--\":20:32   */\n      revert\n        /* \"--CODEGEN--\":5:7   */\n    tag_129:\n        /* \"Bank.sol\":5420:5438  coupon.setState(3) */\n      pop\n      gas\n      call\n      iszero\n        /* \"--CODEGEN--\":8:17   */\n      dup1\n        /* \"--CODEGEN--\":5:7   */\n      iszero\n      tag_130\n      jumpi\n        /* \"--CODEGEN--\":45:61   */\n      returndatasize\n        /* \"--CODEGEN--\":42:43   */\n      0x00\n        /* \"--CODEGEN--\":39:40   */\n      dup1\n        /* \"--CODEGEN--\":24:62   */\n      returndatacopy\n        /* \"--CODEGEN--\":77:93   */\n      returndatasize\n        /* \"--CODEGEN--\":74:75   */\n      0x00\n        /* \"--CODEGEN--\":67:94   */\n      revert\n        /* \"--CODEGEN--\":5:7   */\n    tag_130:\n        /* \"Bank.sol\":5420:5438  coupon.setState(3) */\n      pop\n      pop\n      pop\n      pop\n        /* \"Bank.sol\":5453:5470  Consumer consumer */\n      0x00\n        /* \"Bank.sol\":5482:5491  _consumer */\n      dup3\n        /* \"Bank.sol\":5453:5492  Consumer consumer = Consumer(_consumer) */\n      swap1\n      pop\n        /* \"Bank.sol\":5507:5515  consumer */\n      dup1\n        /* \"Bank.sol\":5507:5525  consumer.couponPay */\n      0xffffffffffffffffffffffffffffffffffffffff\n      and\n      0x985e665d\n        /* \"Bank.sol\":5526:5536  couponAddr */\n      dup6\n        /* \"Bank.sol\":5507:5537  consumer.couponPay(couponAddr) */\n      mload(0x40)\n      dup3\n      0xffffffff\n      and\n      0xe0\n      shl\n      dup2\n      mstore\n      0x04\n      add\n      dup1\n      dup3\n      0xffffffffffffffffffffffffffffffffffffffff\n      and\n      0xffffffffffffffffffffffffffffffffffffffff\n      and\n      dup2\n      mstore\n      0x20\n      add\n      swap2\n      pop\n      pop\n      0x00\n      mload(0x40)\n      dup1\n      dup4\n      sub\n      dup2\n      0x00\n      dup8\n      dup1\n      extcodesize\n      iszero\n        /* \"--CODEGEN--\":8:17   */\n      dup1\n        /* \"--CODEGEN--\":5:7   */\n      iszero\n      tag_131\n      jumpi\n        /* \"--CODEGEN--\":30:31   */\n      0x00\n        /* \"--CODEGEN--\":27:28   */\n      dup1\n        /* \"--CODEGEN--\":20:32   */\n      revert\n        /* \"--CODEGEN--\":5:7   */\n    tag_131:\n        /* \"Bank.sol\":5507:5537  consumer.couponPay(couponAddr) */\n      pop\n      gas\n      call\n      iszero\n        /* \"--CODEGEN--\":8:17   */\n      dup1\n        /* \"--CODEGEN--\":5:7   */\n      iszero\n      tag_132\n      jumpi\n        /* \"--CODEGEN--\":45:61   */\n      returndatasize\n        /* \"--CODEGEN--\":42:43   */\n      0x00\n        /* \"--CODEGEN--\":39:40   */\n      dup1\n        /* \"--CODEGEN--\":24:62   */\n      returndatacopy\n        /* \"--CODEGEN--\":77:93   */\n      returndatasize\n        /* \"--CODEGEN--\":74:75   */\n      0x00\n        /* \"--CODEGEN--\":67:94   */\n      revert\n        /* \"--CODEGEN--\":5:7   */\n    tag_132:\n        /* \"Bank.sol\":5507:5537  consumer.couponPay(couponAddr) */\n      pop\n      pop\n      pop\n      pop\n        /* \"Bank.sol\":5552:5558  uint i */\n      0x00\n        /* \"Bank.sol\":5561:5574  unusedCoupons */\n      0x03\n        /* \"Bank.sol\":5561:5581  unusedCoupons.length */\n      dup1\n      sload\n      swap1\n      pop\n        /* \"Bank.sol\":5552:5581  uint i = unusedCoupons.length */\n      swap1\n      pop\n        /* \"Bank.sol\":5605:5606  0 */\n      0x00\n        /* \"Bank.sol\":5601:5606  i = 0 */\n      swap1\n      pop\n        /* \"Bank.sol\":5596:5757  for (i = 0; i < unusedCoupons.length; i++) {\r... */\n    tag_133:\n        /* \"Bank.sol\":5612:5625  unusedCoupons */\n      0x03\n        /* \"Bank.sol\":5612:5632  unusedCoupons.length */\n      dup1\n      sload\n      swap1\n      pop\n        /* \"Bank.sol\":5608:5609  i */\n      dup2\n        /* \"Bank.sol\":5608:5632  i < unusedCoupons.length */\n      lt\n        /* \"Bank.sol\":5596:5757  for (i = 0; i < unusedCoupons.length; i++) {\r... */\n      iszero\n      tag_134\n      jumpi\n        /* \"Bank.sol\":5682:5692  couponAddr */\n      dup5\n        /* \"Bank.sol\":5662:5692  unusedCoupons[i] == couponAddr */\n      0xffffffffffffffffffffffffffffffffffffffff\n      and\n        /* \"Bank.sol\":5662:5675  unusedCoupons */\n      0x03\n        /* \"Bank.sol\":5676:5677  i */\n      dup3\n        /* \"Bank.sol\":5662:5678  unusedCoupons[i] */\n      dup2\n      sload\n      dup2\n      lt\n      tag_136\n      jumpi\n      invalid\n    tag_136:\n      swap1\n      0x00\n      mstore\n      keccak256(0x00, 0x20)\n      add\n      0x00\n      swap1\n      sload\n      swap1\n      0x0100\n      exp\n      swap1\n      div\n      0xffffffffffffffffffffffffffffffffffffffff\n      and\n        /* \"Bank.sol\":5662:5692  unusedCoupons[i] == couponAddr */\n      0xffffffffffffffffffffffffffffffffffffffff\n      and\n      eq\n        /* \"Bank.sol\":5658:5742  if (unusedCoupons[i] == couponAddr) {\r... */\n      iszero\n      tag_138\n      jumpi\n        /* \"Bank.sol\":5717:5722  break */\n      jump(tag_134)\n        /* \"Bank.sol\":5658:5742  if (unusedCoupons[i] == couponAddr) {\r... */\n    tag_138:\n        /* \"Bank.sol\":5634:5637  i++ */\n      dup1\n      dup1\n      0x01\n      add\n      swap2\n      pop\n      pop\n        /* \"Bank.sol\":5596:5757  for (i = 0; i < unusedCoupons.length; i++) {\r... */\n      jump(tag_133)\n    tag_134:\n        /* \"Bank.sol\":5780:5793  unusedCoupons */\n      0x03\n        /* \"Bank.sol\":5780:5800  unusedCoupons.length */\n      dup1\n      sload\n      swap1\n      pop\n        /* \"Bank.sol\":5775:5776  i */\n      dup2\n        /* \"Bank.sol\":5775:5800  i != unusedCoupons.length */\n      eq\n        /* \"Bank.sol\":5771:6376  if (i != unusedCoupons.length) {\r... */\n      tag_139\n      jumpi\n        /* \"Bank.sol\":5826:5832  uint j */\n      0x00\n        /* \"Bank.sol\":5835:5836  i */\n      dup2\n        /* \"Bank.sol\":5826:5836  uint j = i */\n      swap1\n      pop\n        /* \"Bank.sol\":5821:5955  for (uint j = i; j < unusedCoupons.length - 1; j++) {\r... */\n    tag_140:\n        /* \"Bank.sol\":5865:5866  1 */\n      0x01\n        /* \"Bank.sol\":5842:5855  unusedCoupons */\n      0x03\n        /* \"Bank.sol\":5842:5862  unusedCoupons.length */\n      dup1\n      sload\n      swap1\n      pop\n        /* \"Bank.sol\":5842:5866  unusedCoupons.length - 1 */\n      sub\n        /* \"Bank.sol\":5838:5839  j */\n      dup2\n        /* \"Bank.sol\":5838:5866  j < unusedCoupons.length - 1 */\n      lt\n        /* \"Bank.sol\":5821:5955  for (uint j = i; j < unusedCoupons.length - 1; j++) {\r... */\n      iszero\n      tag_141\n      jumpi\n        /* \"Bank.sol\":5915:5928  unusedCoupons */\n      0x03\n        /* \"Bank.sol\":5933:5934  1 */\n      0x01\n        /* \"Bank.sol\":5929:5930  j */\n      dup3\n        /* \"Bank.sol\":5929:5934  j + 1 */\n      add\n        /* \"Bank.sol\":5915:5935  unusedCoupons[j + 1] */\n      dup2\n      sload\n      dup2\n      lt\n      tag_143\n      jumpi\n      invalid\n    tag_143:\n      swap1\n      0x00\n      mstore\n      keccak256(0x00, 0x20)\n      add\n      0x00\n      swap1\n      sload\n      swap1\n      0x0100\n      exp\n      swap1\n      div\n      0xffffffffffffffffffffffffffffffffffffffff\n      and\n        /* \"Bank.sol\":5896:5909  unusedCoupons */\n      0x03\n        /* \"Bank.sol\":5910:5911  j */\n      dup3\n        /* \"Bank.sol\":5896:5912  unusedCoupons[j] */\n      dup2\n      sload\n      dup2\n      lt\n      tag_145\n      jumpi\n      invalid\n    tag_145:\n      swap1\n      0x00\n      mstore\n      keccak256(0x00, 0x20)\n      add\n      0x00\n        /* \"Bank.sol\":5896:5935  unusedCoupons[j] = unusedCoupons[j + 1] */\n      0x0100\n      exp\n      dup2\n      sload\n      dup2\n      0xffffffffffffffffffffffffffffffffffffffff\n      mul\n      not\n      and\n      swap1\n      dup4\n      0xffffffffffffffffffffffffffffffffffffffff\n      and\n      mul\n      or\n      swap1\n      sstore\n      pop\n        /* \"Bank.sol\":5868:5871  j++ */\n      dup1\n      dup1\n      0x01\n      add\n      swap2\n      pop\n      pop\n        /* \"Bank.sol\":5821:5955  for (uint j = i; j < unusedCoupons.length - 1; j++) {\r... */\n      jump(tag_140)\n    tag_141:\n      pop\n        /* \"Bank.sol\":5997:5998  1 */\n      0x01\n        /* \"Bank.sol\":5973:5986  unusedCoupons */\n      0x03\n        /* \"Bank.sol\":5973:5998  unusedCoupons.length -= 1 */\n      dup2\n      dup2\n      dup1\n      sload\n      swap1\n      pop\n      sub\n      swap2\n      pop\n      dup2\n      tag_147\n      swap2\n      swap1\n      tag_148\n      jump\t// in\n    tag_147:\n      pop\n        /* \"Bank.sol\":6017:6028  usedCoupons */\n      0x04\n        /* \"Bank.sol\":6034:6044  couponAddr */\n      dup6\n        /* \"Bank.sol\":6017:6045  usedCoupons.push(couponAddr) */\n      swap1\n      dup1\n        /* \"--CODEGEN--\":39:40   */\n      0x01\n        /* \"--CODEGEN--\":33:36   */\n      dup2\n        /* \"--CODEGEN--\":27:37   */\n      sload\n        /* \"--CODEGEN--\":23:41   */\n      add\n        /* \"--CODEGEN--\":57:67   */\n      dup1\n        /* \"--CODEGEN--\":52:55   */\n      dup3\n        /* \"--CODEGEN--\":45:68   */\n      sstore\n        /* \"--CODEGEN--\":79:89   */\n      dup1\n        /* \"--CODEGEN--\":72:89   */\n      swap2\n      pop\n        /* \"--CODEGEN--\":0:93   */\n      pop\n        /* \"Bank.sol\":6017:6045  usedCoupons.push(couponAddr) */\n      swap1\n      0x01\n      dup3\n      sub\n      swap1\n      0x00\n      mstore\n      keccak256(0x00, 0x20)\n      add\n      0x00\n      swap1\n      swap2\n      swap3\n      swap1\n      swap2\n      swap1\n      swap2\n      0x0100\n      exp\n      dup2\n      sload\n      dup2\n      0xffffffffffffffffffffffffffffffffffffffff\n      mul\n      not\n      and\n      swap1\n      dup4\n      0xffffffffffffffffffffffffffffffffffffffff\n      and\n      mul\n      or\n      swap1\n      sstore\n      pop\n      pop\n        /* \"Bank.sol\":6085:6091  coupon */\n      dup3\n        /* \"Bank.sol\":6085:6100  coupon.getValue */\n      0xffffffffffffffffffffffffffffffffffffffff\n      and\n      0x20965255\n        /* \"Bank.sol\":6085:6102  coupon.getValue() */\n      mload(0x40)\n      dup2\n      0xffffffff\n      and\n      0xe0\n      shl\n      dup2\n      mstore\n      0x04\n      add\n      0x20\n      mload(0x40)\n      dup1\n      dup4\n      sub\n      dup2\n      dup7\n      dup1\n      extcodesize\n      iszero\n        /* \"--CODEGEN--\":8:17   */\n      dup1\n        /* \"--CODEGEN--\":5:7   */\n      iszero\n      tag_150\n      jumpi\n        /* \"--CODEGEN--\":30:31   */\n      0x00\n        /* \"--CODEGEN--\":27:28   */\n      dup1\n        /* \"--CODEGEN--\":20:32   */\n      revert\n        /* \"--CODEGEN--\":5:7   */\n    tag_150:\n        /* \"Bank.sol\":6085:6102  coupon.getValue() */\n      pop\n      gas\n      staticcall\n      iszero\n        /* \"--CODEGEN--\":8:17   */\n      dup1\n        /* \"--CODEGEN--\":5:7   */\n      iszero\n      tag_151\n      jumpi\n        /* \"--CODEGEN--\":45:61   */\n      returndatasize\n        /* \"--CODEGEN--\":42:43   */\n      0x00\n        /* \"--CODEGEN--\":39:40   */\n      dup1\n        /* \"--CODEGEN--\":24:62   */\n      returndatacopy\n        /* \"--CODEGEN--\":77:93   */\n      returndatasize\n        /* \"--CODEGEN--\":74:75   */\n      0x00\n        /* \"--CODEGEN--\":67:94   */\n      revert\n        /* \"--CODEGEN--\":5:7   */\n    tag_151:\n        /* \"Bank.sol\":6085:6102  coupon.getValue() */\n      pop\n      pop\n      pop\n      pop\n      mload(0x40)\n      returndatasize\n        /* \"--CODEGEN--\":13:15   */\n      0x20\n        /* \"--CODEGEN--\":8:11   */\n      dup2\n        /* \"--CODEGEN--\":5:16   */\n      lt\n        /* \"--CODEGEN--\":2:4   */\n      iszero\n      tag_152\n      jumpi\n        /* \"--CODEGEN--\":29:30   */\n      0x00\n        /* \"--CODEGEN--\":26:27   */\n      dup1\n        /* \"--CODEGEN--\":19:31   */\n      revert\n        /* \"--CODEGEN--\":2:4   */\n    tag_152:\n        /* \"Bank.sol\":6085:6102  coupon.getValue() */\n      dup2\n      add\n      swap1\n      dup1\n      dup1\n      mload\n      swap1\n      0x20\n      add\n      swap1\n      swap3\n      swap2\n      swap1\n      pop\n      pop\n      pop\n        /* \"Bank.sol\":6064:6081  settlementBalance */\n      0x02\n      0x00\n        /* \"Bank.sol\":6064:6102  settlementBalance += coupon.getValue() */\n      dup3\n      dup3\n      sload\n      add\n      swap3\n      pop\n      pop\n      dup2\n      swap1\n      sstore\n      pop\n        /* \"Bank.sol\":5771:6376  if (i != unusedCoupons.length) {\r... */\n      jump(tag_153)\n    tag_139:\n        /* \"Bank.sol\":6164:6170  coupon */\n      dup3\n        /* \"Bank.sol\":6164:6179  coupon.getValue */\n      0xffffffffffffffffffffffffffffffffffffffff\n      and\n      0x20965255\n        /* \"Bank.sol\":6164:6181  coupon.getValue() */\n      mload(0x40)\n      dup2\n      0xffffffff\n      and\n      0xe0\n      shl\n      dup2\n      mstore\n      0x04\n      add\n      0x20\n      mload(0x40)\n      dup1\n      dup4\n      sub\n      dup2\n      dup7\n      dup1\n      extcodesize\n      iszero\n        /* \"--CODEGEN--\":8:17   */\n      dup1\n        /* \"--CODEGEN--\":5:7   */\n      iszero\n      tag_154\n      jumpi\n        /* \"--CODEGEN--\":30:31   */\n      0x00\n        /* \"--CODEGEN--\":27:28   */\n      dup1\n        /* \"--CODEGEN--\":20:32   */\n      revert\n        /* \"--CODEGEN--\":5:7   */\n    tag_154:\n        /* \"Bank.sol\":6164:6181  coupon.getValue() */\n      pop\n      gas\n      staticcall\n      iszero\n        /* \"--CODEGEN--\":8:17   */\n      dup1\n        /* \"--CODEGEN--\":5:7   */\n      iszero\n      tag_155\n      jumpi\n        /* \"--CODEGEN--\":45:61   */\n      returndatasize\n        /* \"--CODEGEN--\":42:43   */\n      0x00\n        /* \"--CODEGEN--\":39:40   */\n      dup1\n        /* \"--CODEGEN--\":24:62   */\n      returndatacopy\n        /* \"--CODEGEN--\":77:93   */\n      returndatasize\n        /* \"--CODEGEN--\":74:75   */\n      0x00\n        /* \"--CODEGEN--\":67:94   */\n      revert\n        /* \"--CODEGEN--\":5:7   */\n    tag_155:\n        /* \"Bank.sol\":6164:6181  coupon.getValue() */\n      pop\n      pop\n      pop\n      pop\n      mload(0x40)\n      returndatasize\n        /* \"--CODEGEN--\":13:15   */\n      0x20\n        /* \"--CODEGEN--\":8:11   */\n      dup2\n        /* \"--CODEGEN--\":5:16   */\n      lt\n        /* \"--CODEGEN--\":2:4   */\n      iszero\n      tag_156\n      jumpi\n        /* \"--CODEGEN--\":29:30   */\n      0x00\n        /* \"--CODEGEN--\":26:27   */\n      dup1\n        /* \"--CODEGEN--\":19:31   */\n      revert\n        /* \"--CODEGEN--\":2:4   */\n    tag_156:\n        /* \"Bank.sol\":6164:6181  coupon.getValue() */\n      dup2\n      add\n      swap1\n      dup1\n      dup1\n      mload\n      swap1\n      0x20\n      add\n      swap1\n      swap3\n      swap2\n      swap1\n      pop\n      pop\n      pop\n        /* \"Bank.sol\":6143:6160  settlementBalance */\n      0x02\n      0x00\n        /* \"Bank.sol\":6143:6181  settlementBalance += coupon.getValue() */\n      dup3\n      dup3\n      sload\n      add\n      swap3\n      pop\n      pop\n      dup2\n      swap1\n      sstore\n      pop\n        /* \"Bank.sol\":6200:6210  Merchant m */\n      0x00\n        /* \"Bank.sol\":6222:6228  coupon */\n      dup4\n        /* \"Bank.sol\":6222:6239  coupon.getGranter */\n      0xffffffffffffffffffffffffffffffffffffffff\n      and\n      0x988a6e0e\n        /* \"Bank.sol\":6222:6241  coupon.getGranter() */\n      mload(0x40)\n      dup2\n      0xffffffff\n      and\n      0xe0\n      shl\n      dup2\n      mstore\n      0x04\n      add\n      0x20\n      mload(0x40)\n      dup1\n      dup4\n      sub\n      dup2\n      dup7\n      dup1\n      extcodesize\n      iszero\n        /* \"--CODEGEN--\":8:17   */\n      dup1\n        /* \"--CODEGEN--\":5:7   */\n      iszero\n      tag_157\n      jumpi\n        /* \"--CODEGEN--\":30:31   */\n      0x00\n        /* \"--CODEGEN--\":27:28   */\n      dup1\n        /* \"--CODEGEN--\":20:32   */\n      revert\n        /* \"--CODEGEN--\":5:7   */\n    tag_157:\n        /* \"Bank.sol\":6222:6241  coupon.getGranter() */\n      pop\n      gas\n      staticcall\n      iszero\n        /* \"--CODEGEN--\":8:17   */\n      dup1\n        /* \"--CODEGEN--\":5:7   */\n      iszero\n      tag_158\n      jumpi\n        /* \"--CODEGEN--\":45:61   */\n      returndatasize\n        /* \"--CODEGEN--\":42:43   */\n      0x00\n        /* \"--CODEGEN--\":39:40   */\n      dup1\n        /* \"--CODEGEN--\":24:62   */\n      returndatacopy\n        /* \"--CODEGEN--\":77:93   */\n      returndatasize\n        /* \"--CODEGEN--\":74:75   */\n      0x00\n        /* \"--CODEGEN--\":67:94   */\n      revert\n        /* \"--CODEGEN--\":5:7   */\n    tag_158:\n        /* \"Bank.sol\":6222:6241  coupon.getGranter() */\n      pop\n      pop\n      pop\n      pop\n      mload(0x40)\n      returndatasize\n        /* \"--CODEGEN--\":13:15   */\n      0x20\n        /* \"--CODEGEN--\":8:11   */\n      dup2\n        /* \"--CODEGEN--\":5:16   */\n      lt\n        /* \"--CODEGEN--\":2:4   */\n      iszero\n      tag_159\n      jumpi\n        /* \"--CODEGEN--\":29:30   */\n      0x00\n        /* \"--CODEGEN--\":26:27   */\n      dup1\n        /* \"--CODEGEN--\":19:31   */\n      revert\n        /* \"--CODEGEN--\":2:4   */\n    tag_159:\n        /* \"Bank.sol\":6222:6241  coupon.getGranter() */\n      dup2\n      add\n      swap1\n      dup1\n      dup1\n      mload\n      swap1\n      0x20\n      add\n      swap1\n      swap3\n      swap2\n      swap1\n      pop\n      pop\n      pop\n        /* \"Bank.sol\":6200:6242  Merchant m = Merchant(coupon.getGranter()) */\n      swap1\n      pop\n        /* \"Bank.sol\":6281:6286  owner */\n      0x00\n      dup1\n      swap1\n      sload\n      swap1\n      0x0100\n      exp\n      swap1\n      div\n      0xffffffffffffffffffffffffffffffffffffffff\n      and\n        /* \"Bank.sol\":6265:6286  m.getOwner() != owner */\n      0xffffffffffffffffffffffffffffffffffffffff\n      and\n        /* \"Bank.sol\":6265:6266  m */\n      dup2\n        /* \"Bank.sol\":6265:6275  m.getOwner */\n      0xffffffffffffffffffffffffffffffffffffffff\n      and\n      0x893d20e8\n        /* \"Bank.sol\":6265:6277  m.getOwner() */\n      mload(0x40)\n      dup2\n      0xffffffff\n      and\n      0xe0\n      shl\n      dup2\n      mstore\n      0x04\n      add\n      0x20\n      mload(0x40)\n      dup1\n      dup4\n      sub\n      dup2\n      dup7\n      dup1\n      extcodesize\n      iszero\n        /* \"--CODEGEN--\":8:17   */\n      dup1\n        /* \"--CODEGEN--\":5:7   */\n      iszero\n      tag_160\n      jumpi\n        /* \"--CODEGEN--\":30:31   */\n      0x00\n        /* \"--CODEGEN--\":27:28   */\n      dup1\n        /* \"--CODEGEN--\":20:32   */\n      revert\n        /* \"--CODEGEN--\":5:7   */\n    tag_160:\n        /* \"Bank.sol\":6265:6277  m.getOwner() */\n      pop\n      gas\n      staticcall\n      iszero\n        /* \"--CODEGEN--\":8:17   */\n      dup1\n        /* \"--CODEGEN--\":5:7   */\n      iszero\n      tag_161\n      jumpi\n        /* \"--CODEGEN--\":45:61   */\n      returndatasize\n        /* \"--CODEGEN--\":42:43   */\n      0x00\n        /* \"--CODEGEN--\":39:40   */\n      dup1\n        /* \"--CODEGEN--\":24:62   */\n      returndatacopy\n        /* \"--CODEGEN--\":77:93   */\n      returndatasize\n        /* \"--CODEGEN--\":74:75   */\n      0x00\n        /* \"--CODEGEN--\":67:94   */\n      revert\n        /* \"--CODEGEN--\":5:7   */\n    tag_161:\n        /* \"Bank.sol\":6265:6277  m.getOwner() */\n      pop\n      pop\n      pop\n      pop\n      mload(0x40)\n      returndatasize\n        /* \"--CODEGEN--\":13:15   */\n      0x20\n        /* \"--CODEGEN--\":8:11   */\n      dup2\n        /* \"--CODEGEN--\":5:16   */\n      lt\n        /* \"--CODEGEN--\":2:4   */\n      iszero\n      tag_162\n      jumpi\n        /* \"--CODEGEN--\":29:30   */\n      0x00\n        /* \"--CODEGEN--\":26:27   */\n      dup1\n        /* \"--CODEGEN--\":19:31   */\n      revert\n        /* \"--CODEGEN--\":2:4   */\n    tag_162:\n        /* \"Bank.sol\":6265:6277  m.getOwner() */\n      dup2\n      add\n      swap1\n      dup1\n      dup1\n      mload\n      swap1\n      0x20\n      add\n      swap1\n      swap3\n      swap2\n      swap1\n      pop\n      pop\n      pop\n        /* \"Bank.sol\":6265:6286  m.getOwner() != owner */\n      0xffffffffffffffffffffffffffffffffffffffff\n      and\n      eq\n        /* \"Bank.sol\":6261:6361  if (m.getOwner() != owner) {\r... */\n      tag_163\n      jumpi\n        /* \"Bank.sol\":6311:6312  m */\n      dup1\n        /* \"Bank.sol\":6311:6329  m.addToUsedCoupons */\n      0xffffffffffffffffffffffffffffffffffffffff\n      and\n      0xd3015d37\n        /* \"Bank.sol\":6330:6340  couponAddr */\n      dup8\n        /* \"Bank.sol\":6311:6341  m.addToUsedCoupons(couponAddr) */\n      mload(0x40)\n      dup3\n      0xffffffff\n      and\n      0xe0\n      shl\n      dup2\n      mstore\n      0x04\n      add\n      dup1\n      dup3\n      0xffffffffffffffffffffffffffffffffffffffff\n      and\n      0xffffffffffffffffffffffffffffffffffffffff\n      and\n      dup2\n      mstore\n      0x20\n      add\n      swap2\n      pop\n      pop\n      0x00\n      mload(0x40)\n      dup1\n      dup4\n      sub\n      dup2\n      0x00\n      dup8\n      dup1\n      extcodesize\n      iszero\n        /* \"--CODEGEN--\":8:17   */\n      dup1\n        /* \"--CODEGEN--\":5:7   */\n      iszero\n      tag_164\n      jumpi\n        /* \"--CODEGEN--\":30:31   */\n      0x00\n        /* \"--CODEGEN--\":27:28   */\n      dup1\n        /* \"--CODEGEN--\":20:32   */\n      revert\n        /* \"--CODEGEN--\":5:7   */\n    tag_164:\n        /* \"Bank.sol\":6311:6341  m.addToUsedCoupons(couponAddr) */\n      pop\n      gas\n      call\n      iszero\n        /* \"--CODEGEN--\":8:17   */\n      dup1\n        /* \"--CODEGEN--\":5:7   */\n      iszero\n      tag_165\n      jumpi\n        /* \"--CODEGEN--\":45:61   */\n      returndatasize\n        /* \"--CODEGEN--\":42:43   */\n      0x00\n        /* \"--CODEGEN--\":39:40   */\n      dup1\n        /* \"--CODEGEN--\":24:62   */\n      returndatacopy\n        /* \"--CODEGEN--\":77:93   */\n      returndatasize\n        /* \"--CODEGEN--\":74:75   */\n      0x00\n        /* \"--CODEGEN--\":67:94   */\n      revert\n        /* \"--CODEGEN--\":5:7   */\n    tag_165:\n        /* \"Bank.sol\":6311:6341  m.addToUsedCoupons(couponAddr) */\n      pop\n      pop\n      pop\n      pop\n        /* \"Bank.sol\":6261:6361  if (m.getOwner() != owner) {\r... */\n    tag_163:\n        /* \"Bank.sol\":5771:6376  if (i != unusedCoupons.length) {\r... */\n      pop\n    tag_153:\n        /* \"Bank.sol\":5266:6387  if (consumeValue >= coupon.getLimit()) {\r... */\n      pop\n      pop\n    tag_124:\n        /* \"Bank.sol\":1875:1876  _ */\n      pop\n        /* \"Bank.sol\":5088:6394  function confirmCouponPay(uint consumeValue, bytes32 consumeDate, address couponAddr, address _consumer) public OnlyOwner {\r... */\n      pop\n      pop\n      pop\n      pop\n      jump\t// out\n        /* \"Bank.sol\":6400:6480  function getOwner() public view returns(address) {\r... */\n    tag_37:\n        /* \"Bank.sol\":6440:6447  address */\n      0x00\n        /* \"Bank.sol\":6467:6472  owner */\n      dup1\n      0x00\n      swap1\n      sload\n      swap1\n      0x0100\n      exp\n      swap1\n      div\n      0xffffffffffffffffffffffffffffffffffffffff\n      and\n        /* \"Bank.sol\":6460:6472  return owner */\n      swap1\n      pop\n        /* \"Bank.sol\":6400:6480  function getOwner() public view returns(address) {\r... */\n      swap1\n      jump\t// out\n        /* \"Bank.sol\":2722:2831  function getNotGivenCoupons() public view returns(address[] memory) {\r... */\n    tag_39:\n        /* \"Bank.sol\":2772:2788  address[] memory */\n      0x60\n        /* \"Bank.sol\":2808:2823  notGivenCoupons */\n      0x05\n        /* \"Bank.sol\":2801:2823  return notGivenCoupons */\n      dup1\n      sload\n      dup1\n      0x20\n      mul\n      0x20\n      add\n      mload(0x40)\n      swap1\n      dup2\n      add\n      0x40\n      mstore\n      dup1\n      swap3\n      swap2\n      swap1\n      dup2\n      dup2\n      mstore\n      0x20\n      add\n      dup3\n      dup1\n      sload\n      dup1\n      iszero\n      tag_168\n      jumpi\n      0x20\n      mul\n      dup3\n      add\n      swap2\n      swap1\n      0x00\n      mstore\n      keccak256(0x00, 0x20)\n      swap1\n    tag_169:\n      dup2\n      0x00\n      swap1\n      sload\n      swap1\n      0x0100\n      exp\n      swap1\n      div\n      0xffffffffffffffffffffffffffffffffffffffff\n      and\n      0xffffffffffffffffffffffffffffffffffffffff\n      and\n      dup2\n      mstore\n      0x20\n      add\n      swap1\n      0x01\n      add\n      swap1\n      dup1\n      dup4\n      gt\n      tag_169\n      jumpi\n    tag_168:\n      pop\n      pop\n      pop\n      pop\n      pop\n      swap1\n      pop\n        /* \"Bank.sol\":2722:2831  function getNotGivenCoupons() public view returns(address[] memory) {\r... */\n      swap1\n      jump\t// out\n        /* \"Bank.sol\":3745:3846  function getUsedCoupons() public view returns(address[] memory) {\r... */\n    tag_44:\n        /* \"Bank.sol\":3791:3807  address[] memory */\n      0x60\n        /* \"Bank.sol\":3827:3838  usedCoupons */\n      0x04\n        /* \"Bank.sol\":3820:3838  return usedCoupons */\n      dup1\n      sload\n      dup1\n      0x20\n      mul\n      0x20\n      add\n      mload(0x40)\n      swap1\n      dup2\n      add\n      0x40\n      mstore\n      dup1\n      swap3\n      swap2\n      swap1\n      dup2\n      dup2\n      mstore\n      0x20\n      add\n      dup3\n      dup1\n      sload\n      dup1\n      iszero\n      tag_171\n      jumpi\n      0x20\n      mul\n      dup3\n      add\n      swap2\n      swap1\n      0x00\n      mstore\n      keccak256(0x00, 0x20)\n      swap1\n    tag_172:\n      dup2\n      0x00\n      swap1\n      sload\n      swap1\n      0x0100\n      exp\n      swap1\n      div\n      0xffffffffffffffffffffffffffffffffffffffff\n      and\n      0xffffffffffffffffffffffffffffffffffffffff\n      and\n      dup2\n      mstore\n      0x20\n      add\n      swap1\n      0x01\n      add\n      swap1\n      dup1\n      dup4\n      gt\n      tag_172\n      jumpi\n    tag_171:\n      pop\n      pop\n      pop\n      pop\n      pop\n      swap1\n      pop\n        /* \"Bank.sol\":3745:3846  function getUsedCoupons() public view returns(address[] memory) {\r... */\n      swap1\n      jump\t// out\n        /* \"Bank.sol\":2323:2716  function issueCoupon(uint value, uint limit, uint quantity, bytes32 startDate, bytes32 endDate) public OnlyOwner {\r... */\n    tag_50:\n        /* \"Bank.sol\":1797:1802  owner */\n      0x00\n      dup1\n      swap1\n      sload\n      swap1\n      0x0100\n      exp\n      swap1\n      div\n      0xffffffffffffffffffffffffffffffffffffffff\n      and\n        /* \"Bank.sol\":1783:1802  msg.sender == owner */\n      0xffffffffffffffffffffffffffffffffffffffff\n      and\n        /* \"Bank.sol\":1783:1793  msg.sender */\n      caller\n        /* \"Bank.sol\":1783:1802  msg.sender == owner */\n      0xffffffffffffffffffffffffffffffffffffffff\n      and\n      eq\n        /* \"Bank.sol\":1761:1864  require(\r... */\n      tag_174\n      jumpi\n      mload(0x40)\n      0x08c379a000000000000000000000000000000000000000000000000000000000\n      dup2\n      mstore\n      0x04\n      add\n      dup1\n      dup1\n      0x20\n      add\n      dup3\n      dup2\n      sub\n      dup3\n      mstore\n      0x22\n      dup2\n      mstore\n      0x20\n      add\n      dup1\n      data_0fcea41e877c4f84237ea6b9061acc9b3fc97555de5ba31615eb7b8cf7110239\n      0x22\n      swap2\n      codecopy\n      0x40\n      add\n      swap2\n      pop\n      pop\n      mload(0x40)\n      dup1\n      swap2\n      sub\n      swap1\n      revert\n    tag_174:\n        /* \"Bank.sol\":2481:2489  quantity */\n      dup3\n        /* \"Bank.sol\":2473:2478  value */\n      dup6\n        /* \"Bank.sol\":2473:2489  value * quantity */\n      mul\n        /* \"Bank.sol\":2451:2468  settlementBalance */\n      sload(0x02)\n        /* \"Bank.sol\":2451:2490  settlementBalance >= (value * quantity) */\n      lt\n        /* \"Bank.sol\":2447:2709  if (settlementBalance >= (value * quantity)) {\r... */\n      tag_176\n      jumpi\n        /* \"Bank.sol\":2512:2518  uint i */\n      0x00\n        /* \"Bank.sol\":2521:2522  0 */\n      dup1\n        /* \"Bank.sol\":2512:2522  uint i = 0 */\n      swap1\n      pop\n        /* \"Bank.sol\":2507:2698  for (uint i = 0; i < quantity; i++) {\r... */\n    tag_177:\n        /* \"Bank.sol\":2528:2536  quantity */\n      dup4\n        /* \"Bank.sol\":2524:2525  i */\n      dup2\n        /* \"Bank.sol\":2524:2536  i < quantity */\n      lt\n        /* \"Bank.sol\":2507:2698  for (uint i = 0; i < quantity; i++) {\r... */\n      iszero\n      tag_178\n      jumpi\n        /* \"Bank.sol\":2562:2577  notGivenCoupons */\n      0x05\n        /* \"Bank.sol\":2602:2607  value */\n      dup7\n        /* \"Bank.sol\":2609:2614  limit */\n      dup7\n        /* \"Bank.sol\":2616:2625  startDate */\n      dup6\n        /* \"Bank.sol\":2627:2634  endDate */\n      dup6\n        /* \"Bank.sol\":2591:2635  new Coupon(value, limit, startDate, endDate) */\n      mload(0x40)\n      tag_180\n      swap1\n      tag_181\n      jump\t// in\n    tag_180:\n      dup1\n      dup6\n      dup2\n      mstore\n      0x20\n      add\n      dup5\n      dup2\n      mstore\n      0x20\n      add\n      dup4\n      dup2\n      mstore\n      0x20\n      add\n      dup3\n      dup2\n      mstore\n      0x20\n      add\n      swap5\n      pop\n      pop\n      pop\n      pop\n      pop\n      mload(0x40)\n      dup1\n      swap2\n      sub\n      swap1\n      0x00\n      create\n      dup1\n      iszero\n        /* \"--CODEGEN--\":8:17   */\n      dup1\n        /* \"--CODEGEN--\":5:7   */\n      iszero\n      tag_182\n      jumpi\n        /* \"--CODEGEN--\":45:61   */\n      returndatasize\n        /* \"--CODEGEN--\":42:43   */\n      0x00\n        /* \"--CODEGEN--\":39:40   */\n      dup1\n        /* \"--CODEGEN--\":24:62   */\n      returndatacopy\n        /* \"--CODEGEN--\":77:93   */\n      returndatasize\n        /* \"--CODEGEN--\":74:75   */\n      0x00\n        /* \"--CODEGEN--\":67:94   */\n      revert\n        /* \"--CODEGEN--\":5:7   */\n    tag_182:\n        /* \"Bank.sol\":2591:2635  new Coupon(value, limit, startDate, endDate) */\n      pop\n        /* \"Bank.sol\":2562:2637  notGivenCoupons.push(address(new Coupon(value, limit, startDate, endDate))) */\n      swap1\n      dup1\n        /* \"--CODEGEN--\":39:40   */\n      0x01\n        /* \"--CODEGEN--\":33:36   */\n      dup2\n        /* \"--CODEGEN--\":27:37   */\n      sload\n        /* \"--CODEGEN--\":23:41   */\n      add\n        /* \"--CODEGEN--\":57:67   */\n      dup1\n        /* \"--CODEGEN--\":52:55   */\n      dup3\n        /* \"--CODEGEN--\":45:68   */\n      sstore\n        /* \"--CODEGEN--\":79:89   */\n      dup1\n        /* \"--CODEGEN--\":72:89   */\n      swap2\n      pop\n        /* \"--CODEGEN--\":0:93   */\n      pop\n        /* \"Bank.sol\":2562:2637  notGivenCoupons.push(address(new Coupon(value, limit, startDate, endDate))) */\n      swap1\n      0x01\n      dup3\n      sub\n      swap1\n      0x00\n      mstore\n      keccak256(0x00, 0x20)\n      add\n      0x00\n      swap1\n      swap2\n      swap3\n      swap1\n      swap2\n      swap1\n      swap2\n      0x0100\n      exp\n      dup2\n      sload\n      dup2\n      0xffffffffffffffffffffffffffffffffffffffff\n      mul\n      not\n      and\n      swap1\n      dup4\n      0xffffffffffffffffffffffffffffffffffffffff\n      and\n      mul\n      or\n      swap1\n      sstore\n      pop\n      pop\n        /* \"Bank.sol\":2677:2682  value */\n      dup6\n        /* \"Bank.sol\":2656:2673  settlementBalance */\n      0x02\n      0x00\n        /* \"Bank.sol\":2656:2682  settlementBalance -= value */\n      dup3\n      dup3\n      sload\n      sub\n      swap3\n      pop\n      pop\n      dup2\n      swap1\n      sstore\n      pop\n        /* \"Bank.sol\":2538:2541  i++ */\n      dup1\n      dup1\n      0x01\n      add\n      swap2\n      pop\n      pop\n        /* \"Bank.sol\":2507:2698  for (uint i = 0; i < quantity; i++) {\r... */\n      jump(tag_177)\n    tag_178:\n      pop\n        /* \"Bank.sol\":2447:2709  if (settlementBalance >= (value * quantity)) {\r... */\n    tag_176:\n        /* \"Bank.sol\":2323:2716  function issueCoupon(uint value, uint limit, uint quantity, bytes32 startDate, bytes32 endDate) public OnlyOwner {\r... */\n      pop\n      pop\n      pop\n      pop\n      pop\n      jump\t// out\n        /* \"Bank.sol\":2216:2317  function getSettlementBalance() public view returns(uint) {\r... */\n    tag_52:\n        /* \"Bank.sol\":2268:2272  uint */\n      0x00\n        /* \"Bank.sol\":2292:2309  settlementBalance */\n      sload(0x02)\n        /* \"Bank.sol\":2285:2309  return settlementBalance */\n      swap1\n      pop\n        /* \"Bank.sol\":2216:2317  function getSettlementBalance() public view returns(uint) {\r... */\n      swap1\n      jump\t// out\n        /* \"Bank.sol\":6486:6586  function addToUsedCoupons(address couponAddr) public {\r... */\n    tag_55:\n        /* \"Bank.sol\":6550:6561  usedCoupons */\n      0x04\n        /* \"Bank.sol\":6567:6577  couponAddr */\n      dup2\n        /* \"Bank.sol\":6550:6578  usedCoupons.push(couponAddr) */\n      swap1\n      dup1\n        /* \"--CODEGEN--\":39:40   */\n      0x01\n        /* \"--CODEGEN--\":33:36   */\n      dup2\n        /* \"--CODEGEN--\":27:37   */\n      sload\n        /* \"--CODEGEN--\":23:41   */\n      add\n        /* \"--CODEGEN--\":57:67   */\n      dup1\n        /* \"--CODEGEN--\":52:55   */\n      dup3\n        /* \"--CODEGEN--\":45:68   */\n      sstore\n        /* \"--CODEGEN--\":79:89   */\n      dup1\n        /* \"--CODEGEN--\":72:89   */\n      swap2\n      pop\n        /* \"--CODEGEN--\":0:93   */\n      pop\n        /* \"Bank.sol\":6550:6578  usedCoupons.push(couponAddr) */\n      swap1\n      0x01\n      dup3\n      sub\n      swap1\n      0x00\n      mstore\n      keccak256(0x00, 0x20)\n      add\n      0x00\n      swap1\n      swap2\n      swap3\n      swap1\n      swap2\n      swap1\n      swap2\n      0x0100\n      exp\n      dup2\n      sload\n      dup2\n      0xffffffffffffffffffffffffffffffffffffffff\n      mul\n      not\n      and\n      swap1\n      dup4\n      0xffffffffffffffffffffffffffffffffffffffff\n      and\n      mul\n      or\n      swap1\n      sstore\n      pop\n      pop\n        /* \"Bank.sol\":6486:6586  function addToUsedCoupons(address couponAddr) public {\r... */\n      pop\n      jump\t// out\n        /* \"Bank.sol\":4958:5082  function getCorrespondingGrant(bytes32 mark) public view returns(address[] memory) {\r... */\n    tag_58:\n        /* \"Bank.sol\":5023:5039  address[] memory */\n      0x60\n        /* \"Bank.sol\":5059:5068  grantPair */\n      0x08\n        /* \"Bank.sol\":5059:5074  grantPair[mark] */\n      0x00\n        /* \"Bank.sol\":5069:5073  mark */\n      dup4\n        /* \"Bank.sol\":5059:5074  grantPair[mark] */\n      dup2\n      mstore\n      0x20\n      add\n      swap1\n      dup2\n      mstore\n      0x20\n      add\n      0x00\n      keccak256\n        /* \"Bank.sol\":5052:5074  return grantPair[mark] */\n      dup1\n      sload\n      dup1\n      0x20\n      mul\n      0x20\n      add\n      mload(0x40)\n      swap1\n      dup2\n      add\n      0x40\n      mstore\n      dup1\n      swap3\n      swap2\n      swap1\n      dup2\n      dup2\n      mstore\n      0x20\n      add\n      dup3\n      dup1\n      sload\n      dup1\n      iszero\n      tag_188\n      jumpi\n      0x20\n      mul\n      dup3\n      add\n      swap2\n      swap1\n      0x00\n      mstore\n      keccak256(0x00, 0x20)\n      swap1\n    tag_189:\n      dup2\n      0x00\n      swap1\n      sload\n      swap1\n      0x0100\n      exp\n      swap1\n      div\n      0xffffffffffffffffffffffffffffffffffffffff\n      and\n      0xffffffffffffffffffffffffffffffffffffffff\n      and\n      dup2\n      mstore\n      0x20\n      add\n      swap1\n      0x01\n      add\n      swap1\n      dup1\n      dup4\n      gt\n      tag_189\n      jumpi\n    tag_188:\n      pop\n      pop\n      pop\n      pop\n      pop\n      swap1\n      pop\n        /* \"Bank.sol\":4958:5082  function getCorrespondingGrant(bytes32 mark) public view returns(address[] memory) {\r... */\n      swap2\n      swap1\n      pop\n      jump\t// out\n        /* \"Bank.sol\":3965:4952  function grant(address _consumer, uint quantity, bytes32 date, bytes32 mark, uint obtainValue) public OnlyOwner {\r... */\n    tag_64:\n        /* \"Bank.sol\":1797:1802  owner */\n      0x00\n      dup1\n      swap1\n      sload\n      swap1\n      0x0100\n      exp\n      swap1\n      div\n      0xffffffffffffffffffffffffffffffffffffffff\n      and\n        /* \"Bank.sol\":1783:1802  msg.sender == owner */\n      0xffffffffffffffffffffffffffffffffffffffff\n      and\n        /* \"Bank.sol\":1783:1793  msg.sender */\n      caller\n        /* \"Bank.sol\":1783:1802  msg.sender == owner */\n      0xffffffffffffffffffffffffffffffffffffffff\n      and\n      eq\n        /* \"Bank.sol\":1761:1864  require(\r... */\n      tag_191\n      jumpi\n      mload(0x40)\n      0x08c379a000000000000000000000000000000000000000000000000000000000\n      dup2\n      mstore\n      0x04\n      add\n      dup1\n      dup1\n      0x20\n      add\n      dup3\n      dup2\n      sub\n      dup3\n      mstore\n      0x22\n      dup2\n      mstore\n      0x20\n      add\n      dup1\n      data_0fcea41e877c4f84237ea6b9061acc9b3fc97555de5ba31615eb7b8cf7110239\n      0x22\n      swap2\n      codecopy\n      0x40\n      add\n      swap2\n      pop\n      pop\n      mload(0x40)\n      dup1\n      swap2\n      sub\n      swap1\n      revert\n    tag_191:\n        /* \"Bank.sol\":4104:4119  notGivenCoupons */\n      0x05\n        /* \"Bank.sol\":4104:4126  notGivenCoupons.length */\n      dup1\n      sload\n      swap1\n      pop\n        /* \"Bank.sol\":4092:4100  quantity */\n      dup5\n        /* \"Bank.sol\":4092:4126  quantity <= notGivenCoupons.length */\n      gt\n        /* \"Bank.sol\":4088:4945  if (quantity <= notGivenCoupons.length) {\r... */\n      tag_193\n      jumpi\n        /* \"Bank.sol\":4143:4160  Consumer consumer */\n      0x00\n        /* \"Bank.sol\":4172:4181  _consumer */\n      dup6\n        /* \"Bank.sol\":4143:4182  Consumer consumer = Consumer(_consumer) */\n      swap1\n      pop\n        /* \"Bank.sol\":4202:4208  uint i */\n      0x00\n        /* \"Bank.sol\":4236:4237  1 */\n      0x01\n        /* \"Bank.sol\":4211:4226  notGivenCoupons */\n      0x05\n        /* \"Bank.sol\":4211:4233  notGivenCoupons.length */\n      dup1\n      sload\n      swap1\n      pop\n        /* \"Bank.sol\":4211:4237  notGivenCoupons.length - 1 */\n      sub\n        /* \"Bank.sol\":4202:4237  uint i = notGivenCoupons.length - 1 */\n      swap1\n      pop\n        /* \"Bank.sol\":4197:4790  for (uint i = notGivenCoupons.length - 1; i >= notGivenCoupons.length - quantity; i--) {\r... */\n    tag_194:\n        /* \"Bank.sol\":4269:4277  quantity */\n      dup6\n        /* \"Bank.sol\":4244:4259  notGivenCoupons */\n      0x05\n        /* \"Bank.sol\":4244:4266  notGivenCoupons.length */\n      dup1\n      sload\n      swap1\n      pop\n        /* \"Bank.sol\":4244:4277  notGivenCoupons.length - quantity */\n      sub\n        /* \"Bank.sol\":4239:4240  i */\n      dup2\n        /* \"Bank.sol\":4239:4277  i >= notGivenCoupons.length - quantity */\n      lt\n        /* \"Bank.sol\":4197:4790  for (uint i = notGivenCoupons.length - 1; i >= notGivenCoupons.length - quantity; i--) {\r... */\n      tag_195\n      jumpi\n        /* \"Bank.sol\":4303:4320  Coupon couponTemp */\n      0x00\n        /* \"Bank.sol\":4330:4345  notGivenCoupons */\n      0x05\n        /* \"Bank.sol\":4346:4347  i */\n      dup3\n        /* \"Bank.sol\":4330:4348  notGivenCoupons[i] */\n      dup2\n      sload\n      dup2\n      lt\n      tag_197\n      jumpi\n      invalid\n    tag_197:\n      swap1\n      0x00\n      mstore\n      keccak256(0x00, 0x20)\n      add\n      0x00\n      swap1\n      sload\n      swap1\n      0x0100\n      exp\n      swap1\n      div\n      0xffffffffffffffffffffffffffffffffffffffff\n      and\n        /* \"Bank.sol\":4303:4349  Coupon couponTemp = Coupon(notGivenCoupons[i]) */\n      swap1\n      pop\n        /* \"Bank.sol\":4368:4378  couponTemp */\n      dup1\n        /* \"Bank.sol\":4368:4392  couponTemp.setObtainDate */\n      0xffffffffffffffffffffffffffffffffffffffff\n      and\n      0x16016af8\n        /* \"Bank.sol\":4393:4397  date */\n      dup8\n        /* \"Bank.sol\":4368:4398  couponTemp.setObtainDate(date) */\n      mload(0x40)\n      dup3\n      0xffffffff\n      and\n      0xe0\n      shl\n      dup2\n      mstore\n      0x04\n      add\n      dup1\n      dup3\n      dup2\n      mstore\n      0x20\n      add\n      swap2\n      pop\n      pop\n      0x00\n      mload(0x40)\n      dup1\n      dup4\n      sub\n      dup2\n      0x00\n      dup8\n      dup1\n      extcodesize\n      iszero\n        /* \"--CODEGEN--\":8:17   */\n      dup1\n        /* \"--CODEGEN--\":5:7   */\n      iszero\n      tag_199\n      jumpi\n        /* \"--CODEGEN--\":30:31   */\n      0x00\n        /* \"--CODEGEN--\":27:28   */\n      dup1\n        /* \"--CODEGEN--\":20:32   */\n      revert\n        /* \"--CODEGEN--\":5:7   */\n    tag_199:\n        /* \"Bank.sol\":4368:4398  couponTemp.setObtainDate(date) */\n      pop\n      gas\n      call\n      iszero\n        /* \"--CODEGEN--\":8:17   */\n      dup1\n        /* \"--CODEGEN--\":5:7   */\n      iszero\n      tag_200\n      jumpi\n        /* \"--CODEGEN--\":45:61   */\n      returndatasize\n        /* \"--CODEGEN--\":42:43   */\n      0x00\n        /* \"--CODEGEN--\":39:40   */\n      dup1\n        /* \"--CODEGEN--\":24:62   */\n      returndatacopy\n        /* \"--CODEGEN--\":77:93   */\n      returndatasize\n        /* \"--CODEGEN--\":74:75   */\n      0x00\n        /* \"--CODEGEN--\":67:94   */\n      revert\n        /* \"--CODEGEN--\":5:7   */\n    tag_200:\n        /* \"Bank.sol\":4368:4398  couponTemp.setObtainDate(date) */\n      pop\n      pop\n      pop\n      pop\n        /* \"Bank.sol\":4417:4427  couponTemp */\n      dup1\n        /* \"Bank.sol\":4417:4436  couponTemp.setState */\n      0xffffffffffffffffffffffffffffffffffffffff\n      and\n      0xa9e966b7\n        /* \"Bank.sol\":4437:4438  2 */\n      0x02\n        /* \"Bank.sol\":4417:4439  couponTemp.setState(2) */\n      mload(0x40)\n      dup3\n      0xffffffff\n      and\n      0xe0\n      shl\n      dup2\n      mstore\n      0x04\n      add\n      dup1\n      dup3\n      dup2\n      mstore\n      0x20\n      add\n      swap2\n      pop\n      pop\n      0x00\n      mload(0x40)\n      dup1\n      dup4\n      sub\n      dup2\n      0x00\n      dup8\n      dup1\n      extcodesize\n      iszero\n        /* \"--CODEGEN--\":8:17   */\n      dup1\n        /* \"--CODEGEN--\":5:7   */\n      iszero\n      tag_201\n      jumpi\n        /* \"--CODEGEN--\":30:31   */\n      0x00\n        /* \"--CODEGEN--\":27:28   */\n      dup1\n        /* \"--CODEGEN--\":20:32   */\n      revert\n        /* \"--CODEGEN--\":5:7   */\n    tag_201:\n        /* \"Bank.sol\":4417:4439  couponTemp.setState(2) */\n      pop\n      gas\n      call\n      iszero\n        /* \"--CODEGEN--\":8:17   */\n      dup1\n        /* \"--CODEGEN--\":5:7   */\n      iszero\n      tag_202\n      jumpi\n        /* \"--CODEGEN--\":45:61   */\n      returndatasize\n        /* \"--CODEGEN--\":42:43   */\n      0x00\n        /* \"--CODEGEN--\":39:40   */\n      dup1\n        /* \"--CODEGEN--\":24:62   */\n      returndatacopy\n        /* \"--CODEGEN--\":77:93   */\n      returndatasize\n        /* \"--CODEGEN--\":74:75   */\n      0x00\n        /* \"--CODEGEN--\":67:94   */\n      revert\n        /* \"--CODEGEN--\":5:7   */\n    tag_202:\n        /* \"Bank.sol\":4417:4439  couponTemp.setState(2) */\n      pop\n      pop\n      pop\n      pop\n        /* \"Bank.sol\":4458:4468  couponTemp */\n      dup1\n        /* \"Bank.sol\":4458:4483  couponTemp.setObtainValue */\n      0xffffffffffffffffffffffffffffffffffffffff\n      and\n      0xa8ac6a19\n        /* \"Bank.sol\":4484:4495  obtainValue */\n      dup6\n        /* \"Bank.sol\":4458:4496  couponTemp.setObtainValue(obtainValue) */\n      mload(0x40)\n      dup3\n      0xffffffff\n      and\n      0xe0\n      shl\n      dup2\n      mstore\n      0x04\n      add\n      dup1\n      dup3\n      dup2\n      mstore\n      0x20\n      add\n      swap2\n      pop\n      pop\n      0x00\n      mload(0x40)\n      dup1\n      dup4\n      sub\n      dup2\n      0x00\n      dup8\n      dup1\n      extcodesize\n      iszero\n        /* \"--CODEGEN--\":8:17   */\n      dup1\n        /* \"--CODEGEN--\":5:7   */\n      iszero\n      tag_203\n      jumpi\n        /* \"--CODEGEN--\":30:31   */\n      0x00\n        /* \"--CODEGEN--\":27:28   */\n      dup1\n        /* \"--CODEGEN--\":20:32   */\n      revert\n        /* \"--CODEGEN--\":5:7   */\n    tag_203:\n        /* \"Bank.sol\":4458:4496  couponTemp.setObtainValue(obtainValue) */\n      pop\n      gas\n      call\n      iszero\n        /* \"--CODEGEN--\":8:17   */\n      dup1\n        /* \"--CODEGEN--\":5:7   */\n      iszero\n      tag_204\n      jumpi\n        /* \"--CODEGEN--\":45:61   */\n      returndatasize\n        /* \"--CODEGEN--\":42:43   */\n      0x00\n        /* \"--CODEGEN--\":39:40   */\n      dup1\n        /* \"--CODEGEN--\":24:62   */\n      returndatacopy\n        /* \"--CODEGEN--\":77:93   */\n      returndatasize\n        /* \"--CODEGEN--\":74:75   */\n      0x00\n        /* \"--CODEGEN--\":67:94   */\n      revert\n        /* \"--CODEGEN--\":5:7   */\n    tag_204:\n        /* \"Bank.sol\":4458:4496  couponTemp.setObtainValue(obtainValue) */\n      pop\n      pop\n      pop\n      pop\n        /* \"Bank.sol\":4515:4525  couponTemp */\n      dup1\n        /* \"Bank.sol\":4515:4536  couponTemp.setGranter */\n      0xffffffffffffffffffffffffffffffffffffffff\n      and\n      0x6d86ee28\n        /* \"Bank.sol\":4537:4547  couponTemp */\n      dup3\n        /* \"Bank.sol\":4537:4556  couponTemp.getOwner */\n      0xffffffffffffffffffffffffffffffffffffffff\n      and\n      0x893d20e8\n        /* \"Bank.sol\":4537:4558  couponTemp.getOwner() */\n      mload(0x40)\n      dup2\n      0xffffffff\n      and\n      0xe0\n      shl\n      dup2\n      mstore\n      0x04\n      add\n      0x20\n      mload(0x40)\n      dup1\n      dup4\n      sub\n      dup2\n      dup7\n      dup1\n      extcodesize\n      iszero\n        /* \"--CODEGEN--\":8:17   */\n      dup1\n        /* \"--CODEGEN--\":5:7   */\n      iszero\n      tag_205\n      jumpi\n        /* \"--CODEGEN--\":30:31   */\n      0x00\n        /* \"--CODEGEN--\":27:28   */\n      dup1\n        /* \"--CODEGEN--\":20:32   */\n      revert\n        /* \"--CODEGEN--\":5:7   */\n    tag_205:\n        /* \"Bank.sol\":4537:4558  couponTemp.getOwner() */\n      pop\n      gas\n      staticcall\n      iszero\n        /* \"--CODEGEN--\":8:17   */\n      dup1\n        /* \"--CODEGEN--\":5:7   */\n      iszero\n      tag_206\n      jumpi\n        /* \"--CODEGEN--\":45:61   */\n      returndatasize\n        /* \"--CODEGEN--\":42:43   */\n      0x00\n        /* \"--CODEGEN--\":39:40   */\n      dup1\n        /* \"--CODEGEN--\":24:62   */\n      returndatacopy\n        /* \"--CODEGEN--\":77:93   */\n      returndatasize\n        /* \"--CODEGEN--\":74:75   */\n      0x00\n        /* \"--CODEGEN--\":67:94   */\n      revert\n        /* \"--CODEGEN--\":5:7   */\n    tag_206:\n        /* \"Bank.sol\":4537:4558  couponTemp.getOwner() */\n      pop\n      pop\n      pop\n      pop\n      mload(0x40)\n      returndatasize\n        /* \"--CODEGEN--\":13:15   */\n      0x20\n        /* \"--CODEGEN--\":8:11   */\n      dup2\n        /* \"--CODEGEN--\":5:16   */\n      lt\n        /* \"--CODEGEN--\":2:4   */\n      iszero\n      tag_207\n      jumpi\n        /* \"--CODEGEN--\":29:30   */\n      0x00\n        /* \"--CODEGEN--\":26:27   */\n      dup1\n        /* \"--CODEGEN--\":19:31   */\n      revert\n        /* \"--CODEGEN--\":2:4   */\n    tag_207:\n        /* \"Bank.sol\":4537:4558  couponTemp.getOwner() */\n      dup2\n      add\n      swap1\n      dup1\n      dup1\n      mload\n      swap1\n      0x20\n      add\n      swap1\n      swap3\n      swap2\n      swap1\n      pop\n      pop\n      pop\n        /* \"Bank.sol\":4515:4559  couponTemp.setGranter(couponTemp.getOwner()) */\n      mload(0x40)\n      dup3\n      0xffffffff\n      and\n      0xe0\n      shl\n      dup2\n      mstore\n      0x04\n      add\n      dup1\n      dup3\n      0xffffffffffffffffffffffffffffffffffffffff\n      and\n      0xffffffffffffffffffffffffffffffffffffffff\n      and\n      dup2\n      mstore\n      0x20\n      add\n      swap2\n      pop\n      pop\n      0x00\n      mload(0x40)\n      dup1\n      dup4\n      sub\n      dup2\n      0x00\n      dup8\n      dup1\n      extcodesize\n      iszero\n        /* \"--CODEGEN--\":8:17   */\n      dup1\n        /* \"--CODEGEN--\":5:7   */\n      iszero\n      tag_208\n      jumpi\n        /* \"--CODEGEN--\":30:31   */\n      0x00\n        /* \"--CODEGEN--\":27:28   */\n      dup1\n        /* \"--CODEGEN--\":20:32   */\n      revert\n        /* \"--CODEGEN--\":5:7   */\n    tag_208:\n        /* \"Bank.sol\":4515:4559  couponTemp.setGranter(couponTemp.getOwner()) */\n      pop\n      gas\n      call\n      iszero\n        /* \"--CODEGEN--\":8:17   */\n      dup1\n        /* \"--CODEGEN--\":5:7   */\n      iszero\n      tag_209\n      jumpi\n        /* \"--CODEGEN--\":45:61   */\n      returndatasize\n        /* \"--CODEGEN--\":42:43   */\n      0x00\n        /* \"--CODEGEN--\":39:40   */\n      dup1\n        /* \"--CODEGEN--\":24:62   */\n      returndatacopy\n        /* \"--CODEGEN--\":77:93   */\n      returndatasize\n        /* \"--CODEGEN--\":74:75   */\n      0x00\n        /* \"--CODEGEN--\":67:94   */\n      revert\n        /* \"--CODEGEN--\":5:7   */\n    tag_209:\n        /* \"Bank.sol\":4515:4559  couponTemp.setGranter(couponTemp.getOwner()) */\n      pop\n      pop\n      pop\n      pop\n        /* \"Bank.sol\":4578:4588  couponTemp */\n      dup1\n        /* \"Bank.sol\":4578:4597  couponTemp.setOwner */\n      0xffffffffffffffffffffffffffffffffffffffff\n      and\n      0x13af4035\n        /* \"Bank.sol\":4598:4607  _consumer */\n      dup10\n        /* \"Bank.sol\":4578:4608  couponTemp.setOwner(_consumer) */\n      mload(0x40)\n      dup3\n      0xffffffff\n      and\n      0xe0\n      shl\n      dup2\n      mstore\n      0x04\n      add\n      dup1\n      dup3\n      0xffffffffffffffffffffffffffffffffffffffff\n      and\n      0xffffffffffffffffffffffffffffffffffffffff\n      and\n      dup2\n      mstore\n      0x20\n      add\n      swap2\n      pop\n      pop\n      0x00\n      mload(0x40)\n      dup1\n      dup4\n      sub\n      dup2\n      0x00\n      dup8\n      dup1\n      extcodesize\n      iszero\n        /* \"--CODEGEN--\":8:17   */\n      dup1\n        /* \"--CODEGEN--\":5:7   */\n      iszero\n      tag_210\n      jumpi\n        /* \"--CODEGEN--\":30:31   */\n      0x00\n        /* \"--CODEGEN--\":27:28   */\n      dup1\n        /* \"--CODEGEN--\":20:32   */\n      revert\n        /* \"--CODEGEN--\":5:7   */\n    tag_210:\n        /* \"Bank.sol\":4578:4608  couponTemp.setOwner(_consumer) */\n      pop\n      gas\n      call\n      iszero\n        /* \"--CODEGEN--\":8:17   */\n      dup1\n        /* \"--CODEGEN--\":5:7   */\n      iszero\n      tag_211\n      jumpi\n        /* \"--CODEGEN--\":45:61   */\n      returndatasize\n        /* \"--CODEGEN--\":42:43   */\n      0x00\n        /* \"--CODEGEN--\":39:40   */\n      dup1\n        /* \"--CODEGEN--\":24:62   */\n      returndatacopy\n        /* \"--CODEGEN--\":77:93   */\n      returndatasize\n        /* \"--CODEGEN--\":74:75   */\n      0x00\n        /* \"--CODEGEN--\":67:94   */\n      revert\n        /* \"--CODEGEN--\":5:7   */\n    tag_211:\n        /* \"Bank.sol\":4578:4608  couponTemp.setOwner(_consumer) */\n      pop\n      pop\n      pop\n      pop\n        /* \"Bank.sol\":4627:4635  consumer */\n      dup3\n        /* \"Bank.sol\":4627:4645  consumer.addCoupon */\n      0xffffffffffffffffffffffffffffffffffffffff\n      and\n      0xc04e24c2\n        /* \"Bank.sol\":4646:4661  notGivenCoupons */\n      0x05\n        /* \"Bank.sol\":4662:4663  i */\n      dup5\n        /* \"Bank.sol\":4646:4664  notGivenCoupons[i] */\n      dup2\n      sload\n      dup2\n      lt\n      tag_212\n      jumpi\n      invalid\n    tag_212:\n      swap1\n      0x00\n      mstore\n      keccak256(0x00, 0x20)\n      add\n      0x00\n      swap1\n      sload\n      swap1\n      0x0100\n      exp\n      swap1\n      div\n      0xffffffffffffffffffffffffffffffffffffffff\n      and\n        /* \"Bank.sol\":4627:4665  consumer.addCoupon(notGivenCoupons[i]) */\n      mload(0x40)\n      dup3\n      0xffffffff\n      and\n      0xe0\n      shl\n      dup2\n      mstore\n      0x04\n      add\n      dup1\n      dup3\n      0xffffffffffffffffffffffffffffffffffffffff\n      and\n      0xffffffffffffffffffffffffffffffffffffffff\n      and\n      dup2\n      mstore\n      0x20\n      add\n      swap2\n      pop\n      pop\n      0x00\n      mload(0x40)\n      dup1\n      dup4\n      sub\n      dup2\n      0x00\n      dup8\n      dup1\n      extcodesize\n      iszero\n        /* \"--CODEGEN--\":8:17   */\n      dup1\n        /* \"--CODEGEN--\":5:7   */\n      iszero\n      tag_214\n      jumpi\n        /* \"--CODEGEN--\":30:31   */\n      0x00\n        /* \"--CODEGEN--\":27:28   */\n      dup1\n        /* \"--CODEGEN--\":20:32   */\n      revert\n        /* \"--CODEGEN--\":5:7   */\n    tag_214:\n        /* \"Bank.sol\":4627:4665  consumer.addCoupon(notGivenCoupons[i]) */\n      pop\n      gas\n      call\n      iszero\n        /* \"--CODEGEN--\":8:17   */\n      dup1\n        /* \"--CODEGEN--\":5:7   */\n      iszero\n      tag_215\n      jumpi\n        /* \"--CODEGEN--\":45:61   */\n      returndatasize\n        /* \"--CODEGEN--\":42:43   */\n      0x00\n        /* \"--CODEGEN--\":39:40   */\n      dup1\n        /* \"--CODEGEN--\":24:62   */\n      returndatacopy\n        /* \"--CODEGEN--\":77:93   */\n      returndatasize\n        /* \"--CODEGEN--\":74:75   */\n      0x00\n        /* \"--CODEGEN--\":67:94   */\n      revert\n        /* \"--CODEGEN--\":5:7   */\n    tag_215:\n        /* \"Bank.sol\":4627:4665  consumer.addCoupon(notGivenCoupons[i]) */\n      pop\n      pop\n      pop\n      pop\n        /* \"Bank.sol\":4684:4697  unusedCoupons */\n      0x03\n        /* \"Bank.sol\":4703:4718  notGivenCoupons */\n      0x05\n        /* \"Bank.sol\":4719:4720  i */\n      dup4\n        /* \"Bank.sol\":4703:4721  notGivenCoupons[i] */\n      dup2\n      sload\n      dup2\n      lt\n      tag_216\n      jumpi\n      invalid\n    tag_216:\n      swap1\n      0x00\n      mstore\n      keccak256(0x00, 0x20)\n      add\n      0x00\n      swap1\n      sload\n      swap1\n      0x0100\n      exp\n      swap1\n      div\n      0xffffffffffffffffffffffffffffffffffffffff\n      and\n        /* \"Bank.sol\":4684:4722  unusedCoupons.push(notGivenCoupons[i]) */\n      swap1\n      dup1\n        /* \"--CODEGEN--\":39:40   */\n      0x01\n        /* \"--CODEGEN--\":33:36   */\n      dup2\n        /* \"--CODEGEN--\":27:37   */\n      sload\n        /* \"--CODEGEN--\":23:41   */\n      add\n        /* \"--CODEGEN--\":57:67   */\n      dup1\n        /* \"--CODEGEN--\":52:55   */\n      dup3\n        /* \"--CODEGEN--\":45:68   */\n      sstore\n        /* \"--CODEGEN--\":79:89   */\n      dup1\n        /* \"--CODEGEN--\":72:89   */\n      swap2\n      pop\n        /* \"--CODEGEN--\":0:93   */\n      pop\n        /* \"Bank.sol\":4684:4722  unusedCoupons.push(notGivenCoupons[i]) */\n      swap1\n      0x01\n      dup3\n      sub\n      swap1\n      0x00\n      mstore\n      keccak256(0x00, 0x20)\n      add\n      0x00\n      swap1\n      swap2\n      swap3\n      swap1\n      swap2\n      swap1\n      swap2\n      0x0100\n      exp\n      dup2\n      sload\n      dup2\n      0xffffffffffffffffffffffffffffffffffffffff\n      mul\n      not\n      and\n      swap1\n      dup4\n      0xffffffffffffffffffffffffffffffffffffffff\n      and\n      mul\n      or\n      swap1\n      sstore\n      pop\n      pop\n        /* \"Bank.sol\":4741:4749  curGrant */\n      0x07\n        /* \"Bank.sol\":4755:4770  notGivenCoupons */\n      0x05\n        /* \"Bank.sol\":4771:4772  i */\n      dup4\n        /* \"Bank.sol\":4755:4773  notGivenCoupons[i] */\n      dup2\n      sload\n      dup2\n      lt\n      tag_219\n      jumpi\n      invalid\n    tag_219:\n      swap1\n      0x00\n      mstore\n      keccak256(0x00, 0x20)\n      add\n      0x00\n      swap1\n      sload\n      swap1\n      0x0100\n      exp\n      swap1\n      div\n      0xffffffffffffffffffffffffffffffffffffffff\n      and\n        /* \"Bank.sol\":4741:4774  curGrant.push(notGivenCoupons[i]) */\n      swap1\n      dup1\n        /* \"--CODEGEN--\":39:40   */\n      0x01\n        /* \"--CODEGEN--\":33:36   */\n      dup2\n        /* \"--CODEGEN--\":27:37   */\n      sload\n        /* \"--CODEGEN--\":23:41   */\n      add\n        /* \"--CODEGEN--\":57:67   */\n      dup1\n        /* \"--CODEGEN--\":52:55   */\n      dup3\n        /* \"--CODEGEN--\":45:68   */\n      sstore\n        /* \"--CODEGEN--\":79:89   */\n      dup1\n        /* \"--CODEGEN--\":72:89   */\n      swap2\n      pop\n        /* \"--CODEGEN--\":0:93   */\n      pop\n        /* \"Bank.sol\":4741:4774  curGrant.push(notGivenCoupons[i]) */\n      swap1\n      0x01\n      dup3\n      sub\n      swap1\n      0x00\n      mstore\n      keccak256(0x00, 0x20)\n      add\n      0x00\n      swap1\n      swap2\n      swap3\n      swap1\n      swap2\n      swap1\n      swap2\n      0x0100\n      exp\n      dup2\n      sload\n      dup2\n      0xffffffffffffffffffffffffffffffffffffffff\n      mul\n      not\n      and\n      swap1\n      dup4\n      0xffffffffffffffffffffffffffffffffffffffff\n      and\n      mul\n      or\n      swap1\n      sstore\n      pop\n      pop\n        /* \"Bank.sol\":4197:4790  for (uint i = notGivenCoupons.length - 1; i >= notGivenCoupons.length - quantity; i--) {\r... */\n      pop\n        /* \"Bank.sol\":4279:4282  i-- */\n      dup1\n      dup1\n      0x01\n      swap1\n      sub\n      swap2\n      pop\n      pop\n        /* \"Bank.sol\":4197:4790  for (uint i = notGivenCoupons.length - 1; i >= notGivenCoupons.length - quantity; i--) {\r... */\n      jump(tag_194)\n    tag_195:\n      pop\n        /* \"Bank.sol\":4822:4830  curGrant */\n      0x07\n        /* \"Bank.sol\":4804:4813  grantPair */\n      0x08\n        /* \"Bank.sol\":4804:4819  grantPair[mark] */\n      0x00\n        /* \"Bank.sol\":4814:4818  mark */\n      dup6\n        /* \"Bank.sol\":4804:4819  grantPair[mark] */\n      dup2\n      mstore\n      0x20\n      add\n      swap1\n      dup2\n      mstore\n      0x20\n      add\n      0x00\n      keccak256\n        /* \"Bank.sol\":4804:4830  grantPair[mark] = curGrant */\n      swap1\n      dup1\n      sload\n      tag_222\n      swap3\n      swap2\n      swap1\n      tag_223\n      jump\t// in\n    tag_222:\n      pop\n        /* \"Bank.sol\":4852:4860  curGrant */\n      0x07\n      0x00\n        /* \"Bank.sol\":4845:4860  delete curGrant */\n      tag_224\n      swap2\n      swap1\n      tag_94\n      jump\t// in\n    tag_224:\n        /* \"Bank.sol\":4925:4933  quantity */\n      dup5\n        /* \"Bank.sol\":4900:4915  notGivenCoupons */\n      0x05\n        /* \"Bank.sol\":4900:4922  notGivenCoupons.length */\n      dup1\n      sload\n      swap1\n      pop\n        /* \"Bank.sol\":4900:4933  notGivenCoupons.length - quantity */\n      sub\n        /* \"Bank.sol\":4875:4890  notGivenCoupons */\n      0x05\n        /* \"Bank.sol\":4875:4933  notGivenCoupons.length = notGivenCoupons.length - quantity */\n      dup2\n      tag_225\n      swap2\n      swap1\n      tag_148\n      jump\t// in\n    tag_225:\n      pop\n        /* \"Bank.sol\":4088:4945  if (quantity <= notGivenCoupons.length) {\r... */\n      pop\n    tag_193:\n        /* \"Bank.sol\":3965:4952  function grant(address _consumer, uint quantity, bytes32 date, bytes32 mark, uint obtainValue) public OnlyOwner {\r... */\n      pop\n      pop\n      pop\n      pop\n      pop\n      jump\t// out\n        /* \"Bank.sol\":3852:3959  function getHistoryCoupons() public view returns(address[] memory) {\r... */\n    tag_66:\n        /* \"Bank.sol\":3901:3917  address[] memory */\n      0x60\n        /* \"Bank.sol\":3937:3951  historyCoupons */\n      0x06\n        /* \"Bank.sol\":3930:3951  return historyCoupons */\n      dup1\n      sload\n      dup1\n      0x20\n      mul\n      0x20\n      add\n      mload(0x40)\n      swap1\n      dup2\n      add\n      0x40\n      mstore\n      dup1\n      swap3\n      swap2\n      swap1\n      dup2\n      dup2\n      mstore\n      0x20\n      add\n      dup3\n      dup1\n      sload\n      dup1\n      iszero\n      tag_227\n      jumpi\n      0x20\n      mul\n      dup3\n      add\n      swap2\n      swap1\n      0x00\n      mstore\n      keccak256(0x00, 0x20)\n      swap1\n    tag_228:\n      dup2\n      0x00\n      swap1\n      sload\n      swap1\n      0x0100\n      exp\n      swap1\n      div\n      0xffffffffffffffffffffffffffffffffffffffff\n      and\n      0xffffffffffffffffffffffffffffffffffffffff\n      and\n      dup2\n      mstore\n      0x20\n      add\n      swap1\n      0x01\n      add\n      swap1\n      dup1\n      dup4\n      gt\n      tag_228\n      jumpi\n    tag_227:\n      pop\n      pop\n      pop\n      pop\n      pop\n      swap1\n      pop\n        /* \"Bank.sol\":3852:3959  function getHistoryCoupons() public view returns(address[] memory) {\r... */\n      swap1\n      jump\t// out\n        /* \"Bank.sol\":1282:6589  contract Merchant {\r... */\n    tag_94:\n      pop\n      dup1\n      sload\n      0x00\n      dup3\n      sstore\n      swap1\n      0x00\n      mstore\n      keccak256(0x00, 0x20)\n      swap1\n      dup2\n      add\n      swap1\n      tag_230\n      swap2\n      swap1\n      tag_231\n      jump\t// in\n    tag_230:\n      pop\n      jump\t// out\n    tag_148:\n      dup2\n      sload\n      dup2\n      dup4\n      sstore\n      dup2\n      dup2\n      gt\n      iszero\n      tag_232\n      jumpi\n      dup2\n      dup4\n      0x00\n      mstore\n      keccak256(0x00, 0x20)\n      swap2\n      dup3\n      add\n      swap2\n      add\n      tag_233\n      swap2\n      swap1\n      tag_231\n      jump\t// in\n    tag_233:\n    tag_232:\n      pop\n      pop\n      pop\n      jump\t// out\n    tag_181:\n      dataSize(sub_0)\n      dup1\n      dataOffset(sub_0)\n      dup4\n      codecopy\n      add\n      swap1\n      jump\t// out\n    tag_223:\n      dup3\n      dup1\n      sload\n      dup3\n      dup3\n      sstore\n      swap1\n      0x00\n      mstore\n      keccak256(0x00, 0x20)\n      swap1\n      dup2\n      add\n      swap3\n      dup3\n      iszero\n      tag_234\n      jumpi\n      0x00\n      mstore\n      keccak256(0x00, 0x20)\n      swap2\n      dup3\n      add\n    tag_235:\n      dup3\n      dup2\n      gt\n      iszero\n      tag_236\n      jumpi\n      dup3\n      sload\n      dup3\n      sstore\n      swap2\n      0x01\n      add\n      swap2\n      swap1\n      0x01\n      add\n      swap1\n      jump(tag_235)\n    tag_236:\n    tag_234:\n      pop\n      swap1\n      pop\n      tag_237\n      swap2\n      swap1\n      tag_238\n      jump\t// in\n    tag_237:\n      pop\n      swap1\n      jump\t// out\n    tag_231:\n      tag_239\n      swap2\n      swap1\n    tag_240:\n      dup1\n      dup3\n      gt\n      iszero\n      tag_241\n      jumpi\n      0x00\n      dup2\n      0x00\n      swap1\n      sstore\n      pop\n      0x01\n      add\n      jump(tag_240)\n    tag_241:\n      pop\n      swap1\n      jump\n    tag_239:\n      swap1\n      jump\t// out\n    tag_238:\n      tag_242\n      swap2\n      swap1\n    tag_243:\n      dup1\n      dup3\n      gt\n      iszero\n      tag_244\n      jumpi\n      0x00\n      dup2\n      dup2\n      0x0100\n      exp\n      dup2\n      sload\n      swap1\n      0xffffffffffffffffffffffffffffffffffffffff\n      mul\n      not\n      and\n      swap1\n      sstore\n      pop\n      0x01\n      add\n      jump(tag_243)\n    tag_244:\n      pop\n      swap1\n      jump\n    tag_242:\n      swap1\n      jump\t// out\n    stop\n    data_0fcea41e877c4f84237ea6b9061acc9b3fc97555de5ba31615eb7b8cf7110239 4f6e6c79206f776e65722063616e2063616c6c20746869732066756e6374696f6e2e\n    data_79b44a84c820c09f00f273ed31145b46bd857ccbc252f2824b552a9e6858c2a0 4f6e6c792042616e6b65722063616e2063616c6c20746869732066756e6374696f6e2e\n\n    sub_0: assembly {\n            /* \"Bank.sol\":8226:10376  contract Coupon {\r... */\n          mstore(0x40, 0x80)\n            /* \"Bank.sol\":8482:8483  1 */\n          0x01\n            /* \"Bank.sol\":8469:8483  uint state = 1 */\n          0x0a\n          sstore\n            /* \"Bank.sol\":8490:8769  constructor(uint _value, uint _limit, bytes32 _startDate, bytes32 _endDate) public {\r... */\n          callvalue\n            /* \"--CODEGEN--\":8:17   */\n          dup1\n            /* \"--CODEGEN--\":5:7   */\n          iszero\n          tag_1\n          jumpi\n            /* \"--CODEGEN--\":30:31   */\n          0x00\n            /* \"--CODEGEN--\":27:28   */\n          dup1\n            /* \"--CODEGEN--\":20:32   */\n          revert\n            /* \"--CODEGEN--\":5:7   */\n        tag_1:\n            /* \"Bank.sol\":8490:8769  constructor(uint _value, uint _limit, bytes32 _startDate, bytes32 _endDate) public {\r... */\n          pop\n          mload(0x40)\n          sub(codesize, bytecodeSize)\n          dup1\n          bytecodeSize\n          dup4\n          codecopy\n          dup2\n          dup2\n          add\n          0x40\n          mstore\n            /* \"--CODEGEN--\":13:16   */\n          0x80\n            /* \"--CODEGEN--\":8:11   */\n          dup2\n            /* \"--CODEGEN--\":5:17   */\n          lt\n            /* \"--CODEGEN--\":2:4   */\n          iszero\n          tag_2\n          jumpi\n            /* \"--CODEGEN--\":30:31   */\n          0x00\n            /* \"--CODEGEN--\":27:28   */\n          dup1\n            /* \"--CODEGEN--\":20:32   */\n          revert\n            /* \"--CODEGEN--\":2:4   */\n        tag_2:\n            /* \"Bank.sol\":8490:8769  constructor(uint _value, uint _limit, bytes32 _startDate, bytes32 _endDate) public {\r... */\n          dup2\n          add\n          swap1\n          dup1\n          dup1\n          mload\n          swap1\n          0x20\n          add\n          swap1\n          swap3\n          swap2\n          swap1\n          dup1\n          mload\n          swap1\n          0x20\n          add\n          swap1\n          swap3\n          swap2\n          swap1\n          dup1\n          mload\n          swap1\n          0x20\n          add\n          swap1\n          swap3\n          swap2\n          swap1\n          dup1\n          mload\n          swap1\n          0x20\n          add\n          swap1\n          swap3\n          swap2\n          swap1\n          pop\n          pop\n          pop\n            /* \"Bank.sol\":8592:8598  _value */\n          dup4\n            /* \"Bank.sol\":8584:8589  value */\n          0x02\n            /* \"Bank.sol\":8584:8598  value = _value */\n          dup2\n          swap1\n          sstore\n          pop\n            /* \"Bank.sol\":8617:8623  _limit */\n          dup3\n            /* \"Bank.sol\":8609:8614  limit */\n          0x03\n            /* \"Bank.sol\":8609:8623  limit = _limit */\n          dup2\n          swap1\n          sstore\n          pop\n            /* \"Bank.sol\":8642:8652  msg.sender */\n          caller\n            /* \"Bank.sol\":8634:8639  owner */\n          0x00\n          dup1\n            /* \"Bank.sol\":8634:8652  owner = msg.sender */\n          0x0100\n          exp\n          dup2\n          sload\n          dup2\n          0xffffffffffffffffffffffffffffffffffffffff\n          mul\n          not\n          and\n          swap1\n          dup4\n          0xffffffffffffffffffffffffffffffffffffffff\n          and\n          mul\n          or\n          swap1\n          sstore\n          pop\n            /* \"Bank.sol\":8675:8685  _startDate */\n          dup2\n            /* \"Bank.sol\":8663:8672  startDate */\n          0x04\n            /* \"Bank.sol\":8663:8685  startDate = _startDate */\n          dup2\n          swap1\n          sstore\n          pop\n            /* \"Bank.sol\":8706:8714  _endDate */\n          dup1\n            /* \"Bank.sol\":8696:8703  endDate */\n          0x05\n            /* \"Bank.sol\":8696:8714  endDate = _endDate */\n          dup2\n          swap1\n          sstore\n          pop\n            /* \"Bank.sol\":8740:8741  0 */\n          0x00\n            /* \"Bank.sol\":8725:8737  consumeValue */\n          0x09\n            /* \"Bank.sol\":8725:8741  consumeValue = 0 */\n          dup2\n          swap1\n          sstore\n          pop\n            /* \"Bank.sol\":8760:8761  1 */\n          0x01\n            /* \"Bank.sol\":8752:8757  state */\n          0x0a\n            /* \"Bank.sol\":8752:8761  state = 1 */\n          dup2\n          swap1\n          sstore\n          pop\n            /* \"Bank.sol\":8490:8769  constructor(uint _value, uint _limit, bytes32 _startDate, bytes32 _endDate) public {\r... */\n          pop\n          pop\n          pop\n          pop\n            /* \"Bank.sol\":8226:10376  contract Coupon {\r... */\n          dataSize(sub_0)\n          dup1\n          dataOffset(sub_0)\n          0x00\n          codecopy\n          0x00\n          return\n        stop\n\n        sub_0: assembly {\n                /* \"Bank.sol\":8226:10376  contract Coupon {\r... */\n              mstore(0x40, 0x80)\n              callvalue\n                /* \"--CODEGEN--\":8:17   */\n              dup1\n                /* \"--CODEGEN--\":5:7   */\n              iszero\n              tag_1\n              jumpi\n                /* \"--CODEGEN--\":30:31   */\n              0x00\n                /* \"--CODEGEN--\":27:28   */\n              dup1\n                /* \"--CODEGEN--\":20:32   */\n              revert\n                /* \"--CODEGEN--\":5:7   */\n            tag_1:\n                /* \"Bank.sol\":8226:10376  contract Coupon {\r... */\n              pop\n              jumpi(tag_2, lt(calldatasize, 0x04))\n              shr(0xe0, calldataload(0x00))\n              dup1\n              0x988a6e0e\n              gt\n              tag_21\n              jumpi\n              dup1\n              0xb295a00e\n              gt\n              tag_22\n              jumpi\n              dup1\n              0xb295a00e\n              eq\n              tag_16\n              jumpi\n              dup1\n              0xb956064c\n              eq\n              tag_17\n              jumpi\n              dup1\n              0xe28f863e\n              eq\n              tag_18\n              jumpi\n              dup1\n              0xf1acc453\n              eq\n              tag_19\n              jumpi\n              dup1\n              0xfb61d1dc\n              eq\n              tag_20\n              jumpi\n              jump(tag_2)\n            tag_22:\n              dup1\n              0x988a6e0e\n              eq\n              tag_12\n              jumpi\n              dup1\n              0xa8ac6a19\n              eq\n              tag_13\n              jumpi\n              dup1\n              0xa9e966b7\n              eq\n              tag_14\n              jumpi\n              dup1\n              0xb1356488\n              eq\n              tag_15\n              jumpi\n              jump(tag_2)\n            tag_21:\n              dup1\n              0x54da0114\n              gt\n              tag_23\n              jumpi\n              dup1\n              0x54da0114\n              eq\n              tag_7\n              jumpi\n              dup1\n              0x6d86ee28\n              eq\n              tag_8\n              jumpi\n              dup1\n              0x782ca44f\n              eq\n              tag_9\n              jumpi\n              dup1\n              0x78f305c6\n              eq\n              tag_10\n              jumpi\n              dup1\n              0x893d20e8\n              eq\n              tag_11\n              jumpi\n              jump(tag_2)\n            tag_23:\n              dup1\n              0x13af4035\n              eq\n              tag_3\n              jumpi\n              dup1\n              0x16016af8\n              eq\n              tag_4\n              jumpi\n              dup1\n              0x1865c57d\n              eq\n              tag_5\n              jumpi\n              dup1\n              0x20965255\n              eq\n              tag_6\n              jumpi\n            tag_2:\n              0x00\n              dup1\n              revert\n                /* \"Bank.sol\":8775:8845  function setOwner(address addr) public {\r... */\n            tag_3:\n              tag_24\n              0x04\n              dup1\n              calldatasize\n              sub\n                /* \"--CODEGEN--\":13:15   */\n              0x20\n                /* \"--CODEGEN--\":8:11   */\n              dup2\n                /* \"--CODEGEN--\":5:16   */\n              lt\n                /* \"--CODEGEN--\":2:4   */\n              iszero\n              tag_25\n              jumpi\n                /* \"--CODEGEN--\":29:30   */\n              0x00\n                /* \"--CODEGEN--\":26:27   */\n              dup1\n                /* \"--CODEGEN--\":19:31   */\n              revert\n                /* \"--CODEGEN--\":2:4   */\n            tag_25:\n                /* \"Bank.sol\":8775:8845  function setOwner(address addr) public {\r... */\n              dup2\n              add\n              swap1\n              dup1\n              dup1\n              calldataload\n              0xffffffffffffffffffffffffffffffffffffffff\n              and\n              swap1\n              0x20\n              add\n              swap1\n              swap3\n              swap2\n              swap1\n              pop\n              pop\n              pop\n              tag_26\n              jump\t// in\n            tag_24:\n              stop\n                /* \"Bank.sol\":8937:9017  function setObtainDate(bytes32 date) public {\r... */\n            tag_4:\n              tag_27\n              0x04\n              dup1\n              calldatasize\n              sub\n                /* \"--CODEGEN--\":13:15   */\n              0x20\n                /* \"--CODEGEN--\":8:11   */\n              dup2\n                /* \"--CODEGEN--\":5:16   */\n              lt\n                /* \"--CODEGEN--\":2:4   */\n              iszero\n              tag_28\n              jumpi\n                /* \"--CODEGEN--\":29:30   */\n              0x00\n                /* \"--CODEGEN--\":26:27   */\n              dup1\n                /* \"--CODEGEN--\":19:31   */\n              revert\n                /* \"--CODEGEN--\":2:4   */\n            tag_28:\n                /* \"Bank.sol\":8937:9017  function setObtainDate(bytes32 date) public {\r... */\n              dup2\n              add\n              swap1\n              dup1\n              dup1\n              calldataload\n              swap1\n              0x20\n              add\n              swap1\n              swap3\n              swap2\n              swap1\n              pop\n              pop\n              pop\n              tag_29\n              jump\t// in\n            tag_27:\n              stop\n                /* \"Bank.sol\":10005:10082  function getState() public view returns(uint) {\r... */\n            tag_5:\n              tag_30\n              tag_31\n              jump\t// in\n            tag_30:\n              mload(0x40)\n              dup1\n              dup3\n              dup2\n              mstore\n              0x20\n              add\n              swap2\n              pop\n              pop\n              mload(0x40)\n              dup1\n              swap2\n              sub\n              swap1\n              return\n                /* \"Bank.sol\":9364:9441  function getValue() public view returns(uint) {\r... */\n            tag_6:\n              tag_32\n              tag_33\n              jump\t// in\n            tag_32:\n              mload(0x40)\n              dup1\n              dup3\n              dup2\n              mstore\n              0x20\n              add\n              swap2\n              pop\n              pop\n              mload(0x40)\n              dup1\n              swap2\n              sub\n              swap1\n              return\n                /* \"Bank.sol\":9191:9275  function setConsumeDate(bytes32 _date) public {\r... */\n            tag_7:\n              tag_34\n              0x04\n              dup1\n              calldatasize\n              sub\n                /* \"--CODEGEN--\":13:15   */\n              0x20\n                /* \"--CODEGEN--\":8:11   */\n              dup2\n                /* \"--CODEGEN--\":5:16   */\n              lt\n                /* \"--CODEGEN--\":2:4   */\n              iszero\n              tag_35\n              jumpi\n                /* \"--CODEGEN--\":29:30   */\n              0x00\n                /* \"--CODEGEN--\":26:27   */\n              dup1\n                /* \"--CODEGEN--\":19:31   */\n              revert\n                /* \"--CODEGEN--\":2:4   */\n            tag_35:\n                /* \"Bank.sol\":9191:9275  function setConsumeDate(bytes32 _date) public {\r... */\n              dup2\n              add\n              swap1\n              dup1\n              dup1\n              calldataload\n              swap1\n              0x20\n              add\n              swap1\n              swap3\n              swap2\n              swap1\n              pop\n              pop\n              pop\n              tag_36\n              jump\t// in\n            tag_34:\n              stop\n                /* \"Bank.sol\":9721:9803  function setGranter(address _granter) public {\r... */\n            tag_8:\n              tag_37\n              0x04\n              dup1\n              calldatasize\n              sub\n                /* \"--CODEGEN--\":13:15   */\n              0x20\n                /* \"--CODEGEN--\":8:11   */\n              dup2\n                /* \"--CODEGEN--\":5:16   */\n              lt\n                /* \"--CODEGEN--\":2:4   */\n              iszero\n              tag_38\n              jumpi\n                /* \"--CODEGEN--\":29:30   */\n              0x00\n                /* \"--CODEGEN--\":26:27   */\n              dup1\n                /* \"--CODEGEN--\":19:31   */\n              revert\n                /* \"--CODEGEN--\":2:4   */\n            tag_38:\n                /* \"Bank.sol\":9721:9803  function setGranter(address _granter) public {\r... */\n              dup2\n              add\n              swap1\n              dup1\n              dup1\n              calldataload\n              0xffffffffffffffffffffffffffffffffffffffff\n              and\n              swap1\n              0x20\n              add\n              swap1\n              swap3\n              swap2\n              swap1\n              pop\n              pop\n              pop\n              tag_39\n              jump\t// in\n            tag_37:\n              stop\n                /* \"Bank.sol\":10184:10275  function getConsumeValue() public view returns(uint) {\r... */\n            tag_9:\n              tag_40\n              tag_41\n              jump\t// in\n            tag_40:\n              mload(0x40)\n              dup1\n              dup3\n              dup2\n              mstore\n              0x20\n              add\n              swap2\n              pop\n              pop\n              mload(0x40)\n              dup1\n              swap2\n              sub\n              swap1\n              return\n                /* \"Bank.sol\":9537:9625  function getStartDate() public view returns(bytes32) {\r... */\n            tag_10:\n              tag_42\n              tag_43\n              jump\t// in\n            tag_42:\n              mload(0x40)\n              dup1\n              dup3\n              dup2\n              mstore\n              0x20\n              add\n              swap2\n              pop\n              pop\n              mload(0x40)\n              dup1\n              swap2\n              sub\n              swap1\n              return\n                /* \"Bank.sol\":8851:8931  function getOwner() public view returns(address) {\r... */\n            tag_11:\n              tag_44\n              tag_45\n              jump\t// in\n            tag_44:\n              mload(0x40)\n              dup1\n              dup3\n              0xffffffffffffffffffffffffffffffffffffffff\n              and\n              0xffffffffffffffffffffffffffffffffffffffff\n              and\n              dup2\n              mstore\n              0x20\n              add\n              swap2\n              pop\n              pop\n              mload(0x40)\n              dup1\n              swap2\n              sub\n              swap1\n              return\n                /* \"Bank.sol\":9631:9715  function getGranter() public view returns(address) {\r... */\n            tag_12:\n              tag_46\n              tag_47\n              jump\t// in\n            tag_46:\n              mload(0x40)\n              dup1\n              dup3\n              0xffffffffffffffffffffffffffffffffffffffff\n              and\n              0xffffffffffffffffffffffffffffffffffffffff\n              and\n              dup2\n              mstore\n              0x20\n              add\n              swap2\n              pop\n              pop\n              mload(0x40)\n              dup1\n              swap2\n              sub\n              swap1\n              return\n                /* \"Bank.sol\":9904:9999  function setObtainValue(uint _obtainValue) public {\r... */\n            tag_13:\n              tag_48\n              0x04\n              dup1\n              calldatasize\n              sub\n                /* \"--CODEGEN--\":13:15   */\n              0x20\n                /* \"--CODEGEN--\":8:11   */\n              dup2\n                /* \"--CODEGEN--\":5:16   */\n              lt\n                /* \"--CODEGEN--\":2:4   */\n              iszero\n              tag_49\n              jumpi\n                /* \"--CODEGEN--\":29:30   */\n              0x00\n                /* \"--CODEGEN--\":26:27   */\n              dup1\n                /* \"--CODEGEN--\":19:31   */\n              revert\n                /* \"--CODEGEN--\":2:4   */\n            tag_49:\n                /* \"Bank.sol\":9904:9999  function setObtainValue(uint _obtainValue) public {\r... */\n              dup2\n              add\n              swap1\n              dup1\n              dup1\n              calldataload\n              swap1\n              0x20\n              add\n              swap1\n              swap3\n              swap2\n              swap1\n              pop\n              pop\n              pop\n              tag_50\n              jump\t// in\n            tag_48:\n              stop\n                /* \"Bank.sol\":9023:9094  function setState(uint _state) public {\r... */\n            tag_14:\n              tag_51\n              0x04\n              dup1\n              calldatasize\n              sub\n                /* \"--CODEGEN--\":13:15   */\n              0x20\n                /* \"--CODEGEN--\":8:11   */\n              dup2\n                /* \"--CODEGEN--\":5:16   */\n              lt\n                /* \"--CODEGEN--\":2:4   */\n              iszero\n              tag_52\n              jumpi\n                /* \"--CODEGEN--\":29:30   */\n              0x00\n                /* \"--CODEGEN--\":26:27   */\n              dup1\n                /* \"--CODEGEN--\":19:31   */\n              revert\n                /* \"--CODEGEN--\":2:4   */\n            tag_52:\n                /* \"Bank.sol\":9023:9094  function setState(uint _state) public {\r... */\n              dup2\n              add\n              swap1\n              dup1\n              dup1\n              calldataload\n              swap1\n              0x20\n              add\n              swap1\n              swap3\n              swap2\n              swap1\n              pop\n              pop\n              pop\n              tag_53\n              jump\t// in\n            tag_51:\n              stop\n                /* \"Bank.sol\":9447:9531  function getEndDate() public view returns(bytes32) {\r... */\n            tag_15:\n              tag_54\n              tag_55\n              jump\t// in\n            tag_54:\n              mload(0x40)\n              dup1\n              dup3\n              dup2\n              mstore\n              0x20\n              add\n              swap2\n              pop\n              pop\n              mload(0x40)\n              dup1\n              swap2\n              sub\n              swap1\n              return\n                /* \"Bank.sol\":9281:9358  function getLimit() public view returns(uint) {\r... */\n            tag_16:\n              tag_56\n              tag_57\n              jump\t// in\n            tag_56:\n              mload(0x40)\n              dup1\n              dup3\n              dup2\n              mstore\n              0x20\n              add\n              swap2\n              pop\n              pop\n              mload(0x40)\n              dup1\n              swap2\n              sub\n              swap1\n              return\n                /* \"Bank.sol\":10281:10373  function getConsumeDate() public view returns(bytes32) {\r... */\n            tag_17:\n              tag_58\n              tag_59\n              jump\t// in\n            tag_58:\n              mload(0x40)\n              dup1\n              dup3\n              dup2\n              mstore\n              0x20\n              add\n              swap2\n              pop\n              pop\n              mload(0x40)\n              dup1\n              swap2\n              sub\n              swap1\n              return\n                /* \"Bank.sol\":9809:9898  function getObtainValue() public view returns(uint) {\r... */\n            tag_18:\n              tag_60\n              tag_61\n              jump\t// in\n            tag_60:\n              mload(0x40)\n              dup1\n              dup3\n              dup2\n              mstore\n              0x20\n              add\n              swap2\n              pop\n              pop\n              mload(0x40)\n              dup1\n              swap2\n              sub\n              swap1\n              return\n                /* \"Bank.sol\":10088:10178  function getObtainDate() public view returns(bytes32) {\r... */\n            tag_19:\n              tag_62\n              tag_63\n              jump\t// in\n            tag_62:\n              mload(0x40)\n              dup1\n              dup3\n              dup2\n              mstore\n              0x20\n              add\n              swap2\n              pop\n              pop\n              mload(0x40)\n              dup1\n              swap2\n              sub\n              swap1\n              return\n                /* \"Bank.sol\":9100:9185  function setConsumeValue(uint _value) public {\r... */\n            tag_20:\n              tag_64\n              0x04\n              dup1\n              calldatasize\n              sub\n                /* \"--CODEGEN--\":13:15   */\n              0x20\n                /* \"--CODEGEN--\":8:11   */\n              dup2\n                /* \"--CODEGEN--\":5:16   */\n              lt\n                /* \"--CODEGEN--\":2:4   */\n              iszero\n              tag_65\n              jumpi\n                /* \"--CODEGEN--\":29:30   */\n              0x00\n                /* \"--CODEGEN--\":26:27   */\n              dup1\n                /* \"--CODEGEN--\":19:31   */\n              revert\n                /* \"--CODEGEN--\":2:4   */\n            tag_65:\n                /* \"Bank.sol\":9100:9185  function setConsumeValue(uint _value) public {\r... */\n              dup2\n              add\n              swap1\n              dup1\n              dup1\n              calldataload\n              swap1\n              0x20\n              add\n              swap1\n              swap3\n              swap2\n              swap1\n              pop\n              pop\n              pop\n              tag_66\n              jump\t// in\n            tag_64:\n              stop\n                /* \"Bank.sol\":8775:8845  function setOwner(address addr) public {\r... */\n            tag_26:\n                /* \"Bank.sol\":8833:8837  addr */\n              dup1\n                /* \"Bank.sol\":8825:8830  owner */\n              0x00\n              dup1\n                /* \"Bank.sol\":8825:8837  owner = addr */\n              0x0100\n              exp\n              dup2\n              sload\n              dup2\n              0xffffffffffffffffffffffffffffffffffffffff\n              mul\n              not\n              and\n              swap1\n              dup4\n              0xffffffffffffffffffffffffffffffffffffffff\n              and\n              mul\n              or\n              swap1\n              sstore\n              pop\n                /* \"Bank.sol\":8775:8845  function setOwner(address addr) public {\r... */\n              pop\n              jump\t// out\n                /* \"Bank.sol\":8937:9017  function setObtainDate(bytes32 date) public {\r... */\n            tag_29:\n                /* \"Bank.sol\":9005:9009  date */\n              dup1\n                /* \"Bank.sol\":8992:9002  obtainDate */\n              0x07\n                /* \"Bank.sol\":8992:9009  obtainDate = date */\n              dup2\n              swap1\n              sstore\n              pop\n                /* \"Bank.sol\":8937:9017  function setObtainDate(bytes32 date) public {\r... */\n              pop\n              jump\t// out\n                /* \"Bank.sol\":10005:10082  function getState() public view returns(uint) {\r... */\n            tag_31:\n                /* \"Bank.sol\":10045:10049  uint */\n              0x00\n                /* \"Bank.sol\":10069:10074  state */\n              sload(0x0a)\n                /* \"Bank.sol\":10062:10074  return state */\n              swap1\n              pop\n                /* \"Bank.sol\":10005:10082  function getState() public view returns(uint) {\r... */\n              swap1\n              jump\t// out\n                /* \"Bank.sol\":9364:9441  function getValue() public view returns(uint) {\r... */\n            tag_33:\n                /* \"Bank.sol\":9404:9408  uint */\n              0x00\n                /* \"Bank.sol\":9428:9433  value */\n              sload(0x02)\n                /* \"Bank.sol\":9421:9433  return value */\n              swap1\n              pop\n                /* \"Bank.sol\":9364:9441  function getValue() public view returns(uint) {\r... */\n              swap1\n              jump\t// out\n                /* \"Bank.sol\":9191:9275  function setConsumeDate(bytes32 _date) public {\r... */\n            tag_36:\n                /* \"Bank.sol\":9262:9267  _date */\n              dup1\n                /* \"Bank.sol\":9248:9259  consumeDate */\n              0x08\n                /* \"Bank.sol\":9248:9267  consumeDate = _date */\n              dup2\n              swap1\n              sstore\n              pop\n                /* \"Bank.sol\":9191:9275  function setConsumeDate(bytes32 _date) public {\r... */\n              pop\n              jump\t// out\n                /* \"Bank.sol\":9721:9803  function setGranter(address _granter) public {\r... */\n            tag_39:\n                /* \"Bank.sol\":9787:9795  _granter */\n              dup1\n                /* \"Bank.sol\":9777:9784  granter */\n              0x01\n              0x00\n                /* \"Bank.sol\":9777:9795  granter = _granter */\n              0x0100\n              exp\n              dup2\n              sload\n              dup2\n              0xffffffffffffffffffffffffffffffffffffffff\n              mul\n              not\n              and\n              swap1\n              dup4\n              0xffffffffffffffffffffffffffffffffffffffff\n              and\n              mul\n              or\n              swap1\n              sstore\n              pop\n                /* \"Bank.sol\":9721:9803  function setGranter(address _granter) public {\r... */\n              pop\n              jump\t// out\n                /* \"Bank.sol\":10184:10275  function getConsumeValue() public view returns(uint) {\r... */\n            tag_41:\n                /* \"Bank.sol\":10231:10235  uint */\n              0x00\n                /* \"Bank.sol\":10255:10267  consumeValue */\n              sload(0x09)\n                /* \"Bank.sol\":10248:10267  return consumeValue */\n              swap1\n              pop\n                /* \"Bank.sol\":10184:10275  function getConsumeValue() public view returns(uint) {\r... */\n              swap1\n              jump\t// out\n                /* \"Bank.sol\":9537:9625  function getStartDate() public view returns(bytes32) {\r... */\n            tag_43:\n                /* \"Bank.sol\":9581:9588  bytes32 */\n              0x00\n                /* \"Bank.sol\":9608:9617  startDate */\n              sload(0x04)\n                /* \"Bank.sol\":9601:9617  return startDate */\n              swap1\n              pop\n                /* \"Bank.sol\":9537:9625  function getStartDate() public view returns(bytes32) {\r... */\n              swap1\n              jump\t// out\n                /* \"Bank.sol\":8851:8931  function getOwner() public view returns(address) {\r... */\n            tag_45:\n                /* \"Bank.sol\":8891:8898  address */\n              0x00\n                /* \"Bank.sol\":8918:8923  owner */\n              dup1\n              0x00\n              swap1\n              sload\n              swap1\n              0x0100\n              exp\n              swap1\n              div\n              0xffffffffffffffffffffffffffffffffffffffff\n              and\n                /* \"Bank.sol\":8911:8923  return owner */\n              swap1\n              pop\n                /* \"Bank.sol\":8851:8931  function getOwner() public view returns(address) {\r... */\n              swap1\n              jump\t// out\n                /* \"Bank.sol\":9631:9715  function getGranter() public view returns(address) {\r... */\n            tag_47:\n                /* \"Bank.sol\":9673:9680  address */\n              0x00\n                /* \"Bank.sol\":9700:9707  granter */\n              0x01\n              0x00\n              swap1\n              sload\n              swap1\n              0x0100\n              exp\n              swap1\n              div\n              0xffffffffffffffffffffffffffffffffffffffff\n              and\n                /* \"Bank.sol\":9693:9707  return granter */\n              swap1\n              pop\n                /* \"Bank.sol\":9631:9715  function getGranter() public view returns(address) {\r... */\n              swap1\n              jump\t// out\n                /* \"Bank.sol\":9904:9999  function setObtainValue(uint _obtainValue) public {\r... */\n            tag_50:\n                /* \"Bank.sol\":9979:9991  _obtainValue */\n              dup1\n                /* \"Bank.sol\":9965:9976  obtainValue */\n              0x06\n                /* \"Bank.sol\":9965:9991  obtainValue = _obtainValue */\n              dup2\n              swap1\n              sstore\n              pop\n                /* \"Bank.sol\":9904:9999  function setObtainValue(uint _obtainValue) public {\r... */\n              pop\n              jump\t// out\n                /* \"Bank.sol\":9023:9094  function setState(uint _state) public {\r... */\n            tag_53:\n                /* \"Bank.sol\":9080:9086  _state */\n              dup1\n                /* \"Bank.sol\":9072:9077  state */\n              0x0a\n                /* \"Bank.sol\":9072:9086  state = _state */\n              dup2\n              swap1\n              sstore\n              pop\n                /* \"Bank.sol\":9023:9094  function setState(uint _state) public {\r... */\n              pop\n              jump\t// out\n                /* \"Bank.sol\":9447:9531  function getEndDate() public view returns(bytes32) {\r... */\n            tag_55:\n                /* \"Bank.sol\":9489:9496  bytes32 */\n              0x00\n                /* \"Bank.sol\":9516:9523  endDate */\n              sload(0x05)\n                /* \"Bank.sol\":9509:9523  return endDate */\n              swap1\n              pop\n                /* \"Bank.sol\":9447:9531  function getEndDate() public view returns(bytes32) {\r... */\n              swap1\n              jump\t// out\n                /* \"Bank.sol\":9281:9358  function getLimit() public view returns(uint) {\r... */\n            tag_57:\n                /* \"Bank.sol\":9321:9325  uint */\n              0x00\n                /* \"Bank.sol\":9345:9350  limit */\n              sload(0x03)\n                /* \"Bank.sol\":9338:9350  return limit */\n              swap1\n              pop\n                /* \"Bank.sol\":9281:9358  function getLimit() public view returns(uint) {\r... */\n              swap1\n              jump\t// out\n                /* \"Bank.sol\":10281:10373  function getConsumeDate() public view returns(bytes32) {\r... */\n            tag_59:\n                /* \"Bank.sol\":10327:10334  bytes32 */\n              0x00\n                /* \"Bank.sol\":10354:10365  consumeDate */\n              sload(0x08)\n                /* \"Bank.sol\":10347:10365  return consumeDate */\n              swap1\n              pop\n                /* \"Bank.sol\":10281:10373  function getConsumeDate() public view returns(bytes32) {\r... */\n              swap1\n              jump\t// out\n                /* \"Bank.sol\":9809:9898  function getObtainValue() public view returns(uint) {\r... */\n            tag_61:\n                /* \"Bank.sol\":9855:9859  uint */\n              0x00\n                /* \"Bank.sol\":9879:9890  obtainValue */\n              sload(0x06)\n                /* \"Bank.sol\":9872:9890  return obtainValue */\n              swap1\n              pop\n                /* \"Bank.sol\":9809:9898  function getObtainValue() public view returns(uint) {\r... */\n              swap1\n              jump\t// out\n                /* \"Bank.sol\":10088:10178  function getObtainDate() public view returns(bytes32) {\r... */\n            tag_63:\n                /* \"Bank.sol\":10133:10140  bytes32 */\n              0x00\n                /* \"Bank.sol\":10160:10170  obtainDate */\n              sload(0x07)\n                /* \"Bank.sol\":10153:10170  return obtainDate */\n              swap1\n              pop\n                /* \"Bank.sol\":10088:10178  function getObtainDate() public view returns(bytes32) {\r... */\n              swap1\n              jump\t// out\n                /* \"Bank.sol\":9100:9185  function setConsumeValue(uint _value) public {\r... */\n            tag_66:\n                /* \"Bank.sol\":9171:9177  _value */\n              dup1\n                /* \"Bank.sol\":9156:9168  consumeValue */\n              0x09\n                /* \"Bank.sol\":9156:9177  consumeValue = _value */\n              dup2\n              swap1\n              sstore\n              pop\n                /* \"Bank.sol\":9100:9185  function setConsumeValue(uint _value) public {\r... */\n              pop\n              jump\t// out\n\n            auxdata: 0xa265627a7a723158202439d9846d8882ac613f69d7d75ada3cc5504f1e0c47311d7c969852845bf72364736f6c63430005110032\n        }\n    }\n\n    auxdata: 0xa265627a7a72315820516d6f5e9139f2305e76ed459cf2f9d871d8c13b31ce723b44cd11cfd2458bbb64736f6c63430005110032\n}\n",
				"bytecode": {
					"linkReferences": {},
					"object": "608060405234801561001057600080fd5b5060405161285b38038061285b8339818101604052602081101561003357600080fd5b8101908080519060200190929190505050806000806101000a81548173ffffffffffffffffffffffffffffffffffffffff021916908373ffffffffffffffffffffffffffffffffffffffff16021790555033600160006101000a81548173ffffffffffffffffffffffffffffffffffffffff021916908373ffffffffffffffffffffffffffffffffffffffff16021790555050612786806100d56000396000f3fe608060405234801561001057600080fd5b50600436106100ea5760003560e01c8063a980d7c31161008c578063d3015d3711610066578063d3015d37146103a8578063daafe6a5146103ec578063dfb837291461046f578063f1ae6f87146104db576100ea565b8063a980d7c3146102d5578063bddab2cc14610334578063c38369c01461038a576100ea565b806369a8e6bf116100c857806369a8e6bf146101865780637423fd04146101b4578063893d20e81461022c57806397bb6bb514610276576100ea565b806305a3f9cc146100ef5780635134dcbd1461014e57806354b7349e14610158575b600080fd5b6100f761053a565b6040518080602001828103825283818151815260200191508051906020019060200280838360005b8381101561013a57808201518184015260208101905061011f565b505050509050019250505060405180910390f35b6101566105c8565b005b6101846004803603602081101561016e57600080fd5b8101908080359060200190929190505050610678565b005b6101b26004803603602081101561019c57600080fd5b8101908080359060200190929190505050610731565b005b61022a600480360360808110156101ca57600080fd5b810190808035906020019092919080359060200190929190803573ffffffffffffffffffffffffffffffffffffffff169060200190929190803573ffffffffffffffffffffffffffffffffffffffff169060200190929190505050610c60565b005b610234611469565b604051808273ffffffffffffffffffffffffffffffffffffffff1673ffffffffffffffffffffffffffffffffffffffff16815260200191505060405180910390f35b61027e611492565b6040518080602001828103825283818151815260200191508051906020019060200280838360005b838110156102c15780820151818401526020810190506102a6565b505050509050019250505060405180910390f35b6102dd611520565b6040518080602001828103825283818151815260200191508051906020019060200280838360005b83811015610320578082015181840152602081019050610305565b505050509050019250505060405180910390f35b610388600480360360a081101561034a57600080fd5b8101908080359060200190929190803590602001909291908035906020019092919080359060200190929190803590602001909291905050506115ae565b005b610392611743565b6040518082815260200191505060405180910390f35b6103ea600480360360208110156103be57600080fd5b81019080803573ffffffffffffffffffffffffffffffffffffffff16906020019092919050505061174d565b005b6104186004803603602081101561040257600080fd5b81019080803590602001909291905050506117b6565b6040518080602001828103825283818151815260200191508051906020019060200280838360005b8381101561045b578082015181840152602081019050610440565b505050509050019250505060405180910390f35b6104d9600480360360a081101561048557600080fd5b81019080803573ffffffffffffffffffffffffffffffffffffffff16906020019092919080359060200190929190803590602001909291908035906020019092919080359060200190929190505050611857565b005b6104e3611ebe565b6040518080602001828103825283818151815260200191508051906020019060200280838360005b8381101561052657808201518184015260208101905061050b565b505050509050019250505060405180910390f35b606060038054806020026020016040519081016040528092919081815260200182805480156105be57602002820191906000526020600020905b8160009054906101000a900473ffffffffffffffffffffffffffffffffffffffff1673ffffffffffffffffffffffffffffffffffffffff1681526020019060010190808311610574575b5050505050905090565b600160009054906101000a900473ffffffffffffffffffffffffffffffffffffffff1673ffffffffffffffffffffffffffffffffffffffff163373ffffffffffffffffffffffffffffffffffffffff161461066e576040517f08c379a000000000000000000000000000000000000000000000000000000000815260040180806020018281038252602381526020018061272f6023913960400191505060405180910390fd5b6000600281905550565b600160009054906101000a900473ffffffffffffffffffffffffffffffffffffffff1673ffffffffffffffffffffffffffffffffffffffff163373ffffffffffffffffffffffffffffffffffffffff161461071e576040517f08c379a000000000000000000000000000000000000000000000000000000000815260040180806020018281038252602381526020018061272f6023913960400191505060405180910390fd5b8060026000828254019250508190555050565b6000809054906101000a900473ffffffffffffffffffffffffffffffffffffffff1673ffffffffffffffffffffffffffffffffffffffff163373ffffffffffffffffffffffffffffffffffffffff16146107d6576040517f08c379a000000000000000000000000000000000000000000000000000000000815260040180806020018281038252602281526020018061270d6022913960400191505060405180910390fd5b60008090505b600580549050811015610960576006600582815481106107f857fe5b9060005260206000200160009054906101000a900473ffffffffffffffffffffffffffffffffffffffff1690806001815401808255809150509060018203906000526020600020016000909192909190916101000a81548173ffffffffffffffffffffffffffffffffffffffff021916908373ffffffffffffffffffffffffffffffffffffffff1602179055505060006005828154811061089557fe5b9060005260206000200160009054906101000a900473ffffffffffffffffffffffffffffffffffffffff1690508073ffffffffffffffffffffffffffffffffffffffff1663209652556040518163ffffffff1660e01b815260040160206040518083038186803b15801561090857600080fd5b505afa15801561091c573d6000803e3d6000fd5b505050506040513d602081101561093257600080fd5b81019080805190602001909291905050506002600082825401925050819055505080806001019150506107dc565b506005600061096f9190611f4c565b60008090505b600380549050811015610b825760006003828154811061099157fe5b9060005260206000200160009054906101000a900473ffffffffffffffffffffffffffffffffffffffff169050828173ffffffffffffffffffffffffffffffffffffffff1663b13564886040518163ffffffff1660e01b815260040160206040518083038186803b158015610a0557600080fd5b505afa158015610a19573d6000803e3d6000fd5b505050506040513d6020811015610a2f57600080fd5b81019080805190602001909291905050501015610ad7578073ffffffffffffffffffffffffffffffffffffffff1663209652556040518163ffffffff1660e01b815260040160206040518083038186803b158015610a8c57600080fd5b505afa158015610aa0573d6000803e3d6000fd5b505050506040513d6020811015610ab657600080fd5b81019080805190602001909291905050506002600082825401925050819055505b600660038381548110610ae657fe5b9060005260206000200160009054906101000a900473ffffffffffffffffffffffffffffffffffffffff1690806001815401808255809150509060018203906000526020600020016000909192909190916101000a81548173ffffffffffffffffffffffffffffffffffffffff021916908373ffffffffffffffffffffffffffffffffffffffff16021790555050508080600101915050610975565b5060036000610b919190611f4c565b60008090505b600480549050811015610c4e57600660048281548110610bb357fe5b9060005260206000200160009054906101000a900473ffffffffffffffffffffffffffffffffffffffff1690806001815401808255809150509060018203906000526020600020016000909192909190916101000a81548173ffffffffffffffffffffffffffffffffffffffff021916908373ffffffffffffffffffffffffffffffffffffffff160217905550508080600101915050610b97565b5060046000610c5d9190611f4c565b50565b6000809054906101000a900473ffffffffffffffffffffffffffffffffffffffff1673ffffffffffffffffffffffffffffffffffffffff163373ffffffffffffffffffffffffffffffffffffffff1614610d05576040517f08c379a000000000000000000000000000000000000000000000000000000000815260040180806020018281038252602281526020018061270d6022913960400191505060405180910390fd5b60008290508073ffffffffffffffffffffffffffffffffffffffff1663b295a00e6040518163ffffffff1660e01b815260040160206040518083038186803b158015610d5057600080fd5b505afa158015610d64573d6000803e3d6000fd5b505050506040513d6020811015610d7a57600080fd5b81019080805190602001909291905050508510611462578073ffffffffffffffffffffffffffffffffffffffff1663fb61d1dc866040518263ffffffff1660e01b815260040180828152602001915050600060405180830381600087803b158015610de457600080fd5b505af1158015610df8573d6000803e3d6000fd5b505050508073ffffffffffffffffffffffffffffffffffffffff166354da0114856040518263ffffffff1660e01b815260040180828152602001915050600060405180830381600087803b158015610e4f57600080fd5b505af1158015610e63573d6000803e3d6000fd5b505050508073ffffffffffffffffffffffffffffffffffffffff1663a9e966b760036040518263ffffffff1660e01b815260040180828152602001915050600060405180830381600087803b158015610ebb57600080fd5b505af1158015610ecf573d6000803e3d6000fd5b5050505060008290508073ffffffffffffffffffffffffffffffffffffffff1663985e665d856040518263ffffffff1660e01b8152600401808273ffffffffffffffffffffffffffffffffffffffff1673ffffffffffffffffffffffffffffffffffffffff168152602001915050600060405180830381600087803b158015610f5757600080fd5b505af1158015610f6b573d6000803e3d6000fd5b5050505060006003805490509050600090505b600380549050811015611008578473ffffffffffffffffffffffffffffffffffffffff1660038281548110610faf57fe5b9060005260206000200160009054906101000a900473ffffffffffffffffffffffffffffffffffffffff1673ffffffffffffffffffffffffffffffffffffffff161415610ffb57611008565b8080600101915050610f7e565b60038054905081146111dc5760008190505b6001600380549050038110156110c7576003600182018154811061103a57fe5b9060005260206000200160009054906101000a900473ffffffffffffffffffffffffffffffffffffffff166003828154811061107257fe5b9060005260206000200160006101000a81548173ffffffffffffffffffffffffffffffffffffffff021916908373ffffffffffffffffffffffffffffffffffffffff160217905550808060010191505061101a565b5060016003818180549050039150816110e09190611f6d565b5060048590806001815401808255809150509060018203906000526020600020016000909192909190916101000a81548173ffffffffffffffffffffffffffffffffffffffff021916908373ffffffffffffffffffffffffffffffffffffffff160217905550508273ffffffffffffffffffffffffffffffffffffffff1663209652556040518163ffffffff1660e01b815260040160206040518083038186803b15801561118d57600080fd5b505afa1580156111a1573d6000803e3d6000fd5b505050506040513d60208110156111b757600080fd5b810190808051906020019092919050505060026000828254019250508190555061145f565b8273ffffffffffffffffffffffffffffffffffffffff1663209652556040518163ffffffff1660e01b815260040160206040518083038186803b15801561122257600080fd5b505afa158015611236573d6000803e3d6000fd5b505050506040513d602081101561124c57600080fd5b810190808051906020019092919050505060026000828254019250508190555060008373ffffffffffffffffffffffffffffffffffffffff1663988a6e0e6040518163ffffffff1660e01b815260040160206040518083038186803b1580156112b457600080fd5b505afa1580156112c8573d6000803e3d6000fd5b505050506040513d60208110156112de57600080fd5b810190808051906020019092919050505090506000809054906101000a900473ffffffffffffffffffffffffffffffffffffffff1673ffffffffffffffffffffffffffffffffffffffff168173ffffffffffffffffffffffffffffffffffffffff1663893d20e86040518163ffffffff1660e01b815260040160206040518083038186803b15801561136f57600080fd5b505afa158015611383573d6000803e3d6000fd5b505050506040513d602081101561139957600080fd5b810190808051906020019092919050505073ffffffffffffffffffffffffffffffffffffffff161461145d578073ffffffffffffffffffffffffffffffffffffffff1663d3015d37876040518263ffffffff1660e01b8152600401808273ffffffffffffffffffffffffffffffffffffffff1673ffffffffffffffffffffffffffffffffffffffff168152602001915050600060405180830381600087803b15801561144457600080fd5b505af1158015611458573d6000803e3d6000fd5b505050505b505b50505b5050505050565b60008060009054906101000a900473ffffffffffffffffffffffffffffffffffffffff16905090565b6060600580548060200260200160405190810160405280929190818152602001828054801561151657602002820191906000526020600020905b8160009054906101000a900473ffffffffffffffffffffffffffffffffffffffff1673ffffffffffffffffffffffffffffffffffffffff16815260200190600101908083116114cc575b5050505050905090565b606060048054806020026020016040519081016040528092919081815260200182805480156115a457602002820191906000526020600020905b8160009054906101000a900473ffffffffffffffffffffffffffffffffffffffff1673ffffffffffffffffffffffffffffffffffffffff168152602001906001019080831161155a575b5050505050905090565b6000809054906101000a900473ffffffffffffffffffffffffffffffffffffffff1673ffffffffffffffffffffffffffffffffffffffff163373ffffffffffffffffffffffffffffffffffffffff1614611653576040517f08c379a000000000000000000000000000000000000000000000000000000000815260040180806020018281038252602281526020018061270d6022913960400191505060405180910390fd5b8285026002541061173c5760008090505b8381101561173a5760058686858560405161167e90611f99565b80858152602001848152602001838152602001828152602001945050505050604051809103906000f0801580156116b9573d6000803e3d6000fd5b5090806001815401808255809150509060018203906000526020600020016000909192909190916101000a81548173ffffffffffffffffffffffffffffffffffffffff021916908373ffffffffffffffffffffffffffffffffffffffff16021790555050856002600082825403925050819055508080600101915050611664565b505b5050505050565b6000600254905090565b60048190806001815401808255809150509060018203906000526020600020016000909192909190916101000a81548173ffffffffffffffffffffffffffffffffffffffff021916908373ffffffffffffffffffffffffffffffffffffffff1602179055505050565b60606008600083815260200190815260200160002080548060200260200160405190810160405280929190818152602001828054801561184b57602002820191906000526020600020905b8160009054906101000a900473ffffffffffffffffffffffffffffffffffffffff1673ffffffffffffffffffffffffffffffffffffffff1681526020019060010190808311611801575b50505050509050919050565b6000809054906101000a900473ffffffffffffffffffffffffffffffffffffffff1673ffffffffffffffffffffffffffffffffffffffff163373ffffffffffffffffffffffffffffffffffffffff16146118fc576040517f08c379a000000000000000000000000000000000000000000000000000000000815260040180806020018281038252602281526020018061270d6022913960400191505060405180910390fd5b6005805490508411611eb7576000859050600060016005805490500390505b85600580549050038110611e6c5760006005828154811061193857fe5b9060005260206000200160009054906101000a900473ffffffffffffffffffffffffffffffffffffffff1690508073ffffffffffffffffffffffffffffffffffffffff166316016af8876040518263ffffffff1660e01b815260040180828152602001915050600060405180830381600087803b1580156119b857600080fd5b505af11580156119cc573d6000803e3d6000fd5b505050508073ffffffffffffffffffffffffffffffffffffffff1663a9e966b760026040518263ffffffff1660e01b815260040180828152602001915050600060405180830381600087803b158015611a2457600080fd5b505af1158015611a38573d6000803e3d6000fd5b505050508073ffffffffffffffffffffffffffffffffffffffff1663a8ac6a19856040518263ffffffff1660e01b815260040180828152602001915050600060405180830381600087803b158015611a8f57600080fd5b505af1158015611aa3573d6000803e3d6000fd5b505050508073ffffffffffffffffffffffffffffffffffffffff16636d86ee288273ffffffffffffffffffffffffffffffffffffffff1663893d20e86040518163ffffffff1660e01b815260040160206040518083038186803b158015611b0957600080fd5b505afa158015611b1d573d6000803e3d6000fd5b505050506040513d6020811015611b3357600080fd5b81019080805190602001909291905050506040518263ffffffff1660e01b8152600401808273ffffffffffffffffffffffffffffffffffffffff1673ffffffffffffffffffffffffffffffffffffffff168152602001915050600060405180830381600087803b158015611ba657600080fd5b505af1158015611bba573d6000803e3d6000fd5b505050508073ffffffffffffffffffffffffffffffffffffffff166313af4035896040518263ffffffff1660e01b8152600401808273ffffffffffffffffffffffffffffffffffffffff1673ffffffffffffffffffffffffffffffffffffffff168152602001915050600060405180830381600087803b158015611c3d57600080fd5b505af1158015611c51573d6000803e3d6000fd5b505050508273ffffffffffffffffffffffffffffffffffffffff1663c04e24c260058481548110611c7e57fe5b9060005260206000200160009054906101000a900473ffffffffffffffffffffffffffffffffffffffff166040518263ffffffff1660e01b8152600401808273ffffffffffffffffffffffffffffffffffffffff1673ffffffffffffffffffffffffffffffffffffffff168152602001915050600060405180830381600087803b158015611d0b57600080fd5b505af1158015611d1f573d6000803e3d6000fd5b50505050600360058381548110611d3257fe5b9060005260206000200160009054906101000a900473ffffffffffffffffffffffffffffffffffffffff1690806001815401808255809150509060018203906000526020600020016000909192909190916101000a81548173ffffffffffffffffffffffffffffffffffffffff021916908373ffffffffffffffffffffffffffffffffffffffff16021790555050600760058381548110611dcf57fe5b9060005260206000200160009054906101000a900473ffffffffffffffffffffffffffffffffffffffff1690806001815401808255809150509060018203906000526020600020016000909192909190916101000a81548173ffffffffffffffffffffffffffffffffffffffff021916908373ffffffffffffffffffffffffffffffffffffffff160217905550505080806001900391505061191b565b50600760086000858152602001908152602001600020908054611e90929190611fa6565b5060076000611e9f9190611f4c565b8460058054905003600581611eb49190611f6d565b50505b5050505050565b60606006805480602002602001604051908101604052809291908181526020018280548015611f4257602002820191906000526020600020905b8160009054906101000a900473ffffffffffffffffffffffffffffffffffffffff1673ffffffffffffffffffffffffffffffffffffffff1681526020019060010190808311611ef8575b5050505050905090565b5080546000825590600052602060002090810190611f6a9190611ff8565b50565b815481835581811115611f9457818360005260206000209182019101611f939190611ff8565b5b505050565b6106ac8061206183390190565b828054828255906000526020600020908101928215611fe75760005260206000209182015b82811115611fe6578254825591600101919060010190611fcb565b5b509050611ff4919061201d565b5090565b61201a91905b80821115612016576000816000905550600101611ffe565b5090565b90565b61205d91905b8082111561205957600081816101000a81549073ffffffffffffffffffffffffffffffffffffffff021916905550600101612023565b5090565b9056fe60806040526001600a5534801561001557600080fd5b506040516106ac3803806106ac8339818101604052608081101561003857600080fd5b81019080805190602001909291908051906020019092919080519060200190929190805190602001909291905050508360028190555082600381905550336000806101000a81548173ffffffffffffffffffffffffffffffffffffffff021916908373ffffffffffffffffffffffffffffffffffffffff160217905550816004819055508060058190555060006009819055506001600a81905550505050506105c6806100e66000396000f3fe608060405234801561001057600080fd5b50600436106101165760003560e01c8063988a6e0e116100a2578063b295a00e11610071578063b295a00e14610385578063b956064c146103a3578063e28f863e146103c1578063f1acc453146103df578063fb61d1dc146103fd57610116565b8063988a6e0e146102c1578063a8ac6a191461030b578063a9e966b714610339578063b13564881461036757610116565b806354da0114116100e957806354da0114146101c95780636d86ee28146101f7578063782ca44f1461023b57806378f305c614610259578063893d20e81461027757610116565b806313af40351461011b57806316016af81461015f5780631865c57d1461018d57806320965255146101ab575b600080fd5b61015d6004803603602081101561013157600080fd5b81019080803573ffffffffffffffffffffffffffffffffffffffff16906020019092919050505061042b565b005b61018b6004803603602081101561017557600080fd5b810190808035906020019092919050505061046e565b005b610195610478565b6040518082815260200191505060405180910390f35b6101b3610482565b6040518082815260200191505060405180910390f35b6101f5600480360360208110156101df57600080fd5b810190808035906020019092919050505061048c565b005b6102396004803603602081101561020d57600080fd5b81019080803573ffffffffffffffffffffffffffffffffffffffff169060200190929190505050610496565b005b6102436104da565b6040518082815260200191505060405180910390f35b6102616104e4565b6040518082815260200191505060405180910390f35b61027f6104ee565b604051808273ffffffffffffffffffffffffffffffffffffffff1673ffffffffffffffffffffffffffffffffffffffff16815260200191505060405180910390f35b6102c9610517565b604051808273ffffffffffffffffffffffffffffffffffffffff1673ffffffffffffffffffffffffffffffffffffffff16815260200191505060405180910390f35b6103376004803603602081101561032157600080fd5b8101908080359060200190929190505050610541565b005b6103656004803603602081101561034f57600080fd5b810190808035906020019092919050505061054b565b005b61036f610555565b6040518082815260200191505060405180910390f35b61038d61055f565b6040518082815260200191505060405180910390f35b6103ab610569565b6040518082815260200191505060405180910390f35b6103c9610573565b6040518082815260200191505060405180910390f35b6103e761057d565b6040518082815260200191505060405180910390f35b6104296004803603602081101561041357600080fd5b8101908080359060200190929190505050610587565b005b806000806101000a81548173ffffffffffffffffffffffffffffffffffffffff021916908373ffffffffffffffffffffffffffffffffffffffff16021790555050565b8060078190555050565b6000600a54905090565b6000600254905090565b8060088190555050565b80600160006101000a81548173ffffffffffffffffffffffffffffffffffffffff021916908373ffffffffffffffffffffffffffffffffffffffff16021790555050565b6000600954905090565b6000600454905090565b60008060009054906101000a900473ffffffffffffffffffffffffffffffffffffffff16905090565b6000600160009054906101000a900473ffffffffffffffffffffffffffffffffffffffff16905090565b8060068190555050565b80600a8190555050565b6000600554905090565b6000600354905090565b6000600854905090565b6000600654905090565b6000600754905090565b806009819055505056fea265627a7a723158202439d9846d8882ac613f69d7d75ada3cc5504f1e0c47311d7c969852845bf72364736f6c634300051100324f6e6c79206f776e65722063616e2063616c6c20746869732066756e6374696f6e2e4f6e6c792042616e6b65722063616e2063616c6c20746869732066756e6374696f6e2ea265627a7a72315820516d6f5e9139f2305e76ed459cf2f9d871d8c13b31ce723b44cd11cfd2458bbb64736f6c63430005110032",
					"opcodes": "PUSH1 0x80 PUSH1 0x40 MSTORE CALLVALUE DUP1 ISZERO PUSH2 0x10 JUMPI PUSH1 0x0 DUP1 REVERT JUMPDEST POP PUSH1 0x40 MLOAD PUSH2 0x285B CODESIZE SUB DUP1 PUSH2 0x285B DUP4 CODECOPY DUP2 DUP2 ADD PUSH1 0x40 MSTORE PUSH1 0x20 DUP2 LT ISZERO PUSH2 0x33 JUMPI PUSH1 0x0 DUP1 REVERT JUMPDEST DUP2 ADD SWAP1 DUP1 DUP1 MLOAD SWAP1 PUSH1 0x20 ADD SWAP1 SWAP3 SWAP2 SWAP1 POP POP POP DUP1 PUSH1 0x0 DUP1 PUSH2 0x100 EXP DUP2 SLOAD DUP2 PUSH20 0xFFFFFFFFFFFFFFFFFFFFFFFFFFFFFFFFFFFFFFFF MUL NOT AND SWAP1 DUP4 PUSH20 0xFFFFFFFFFFFFFFFFFFFFFFFFFFFFFFFFFFFFFFFF AND MUL OR SWAP1 SSTORE POP CALLER PUSH1 0x1 PUSH1 0x0 PUSH2 0x100 EXP DUP2 SLOAD DUP2 PUSH20 0xFFFFFFFFFFFFFFFFFFFFFFFFFFFFFFFFFFFFFFFF MUL NOT AND SWAP1 DUP4 PUSH20 0xFFFFFFFFFFFFFFFFFFFFFFFFFFFFFFFFFFFFFFFF AND MUL OR SWAP1 SSTORE POP POP PUSH2 0x2786 DUP1 PUSH2 0xD5 PUSH1 0x0 CODECOPY PUSH1 0x0 RETURN INVALID PUSH1 0x80 PUSH1 0x40 MSTORE CALLVALUE DUP1 ISZERO PUSH2 0x10 JUMPI PUSH1 0x0 DUP1 REVERT JUMPDEST POP PUSH1 0x4 CALLDATASIZE LT PUSH2 0xEA JUMPI PUSH1 0x0 CALLDATALOAD PUSH1 0xE0 SHR DUP1 PUSH4 0xA980D7C3 GT PUSH2 0x8C JUMPI DUP1 PUSH4 0xD3015D37 GT PUSH2 0x66 JUMPI DUP1 PUSH4 0xD3015D37 EQ PUSH2 0x3A8 JUMPI DUP1 PUSH4 0xDAAFE6A5 EQ PUSH2 0x3EC JUMPI DUP1 PUSH4 0xDFB83729 EQ PUSH2 0x46F JUMPI DUP1 PUSH4 0xF1AE6F87 EQ PUSH2 0x4DB JUMPI PUSH2 0xEA JUMP JUMPDEST DUP1 PUSH4 0xA980D7C3 EQ PUSH2 0x2D5 JUMPI DUP1 PUSH4 0xBDDAB2CC EQ PUSH2 0x334 JUMPI DUP1 PUSH4 0xC38369C0 EQ PUSH2 0x38A JUMPI PUSH2 0xEA JUMP JUMPDEST DUP1 PUSH4 0x69A8E6BF GT PUSH2 0xC8 JUMPI DUP1 PUSH4 0x69A8E6BF EQ PUSH2 0x186 JUMPI DUP1 PUSH4 0x7423FD04 EQ PUSH2 0x1B4 JUMPI DUP1 PUSH4 0x893D20E8 EQ PUSH2 0x22C JUMPI DUP1 PUSH4 0x97BB6BB5 EQ PUSH2 0x276 JUMPI PUSH2 0xEA JUMP JUMPDEST DUP1 PUSH4 0x5A3F9CC EQ PUSH2 0xEF JUMPI DUP1 PUSH4 0x5134DCBD EQ PUSH2 0x14E JUMPI DUP1 PUSH4 0x54B7349E EQ PUSH2 0x158 JUMPI JUMPDEST PUSH1 0x0 DUP1 REVERT JUMPDEST PUSH2 0xF7 PUSH2 0x53A JUMP JUMPDEST PUSH1 0x40 MLOAD DUP1 DUP1 PUSH1 0x20 ADD DUP3 DUP2 SUB DUP3 MSTORE DUP4 DUP2 DUP2 MLOAD DUP2 MSTORE PUSH1 0x20 ADD SWAP2 POP DUP1 MLOAD SWAP1 PUSH1 0x20 ADD SWAP1 PUSH1 0x20 MUL DUP1 DUP4 DUP4 PUSH1 0x0 JUMPDEST DUP4 DUP2 LT ISZERO PUSH2 0x13A JUMPI DUP1 DUP3 ADD MLOAD DUP2 DUP5 ADD MSTORE PUSH1 0x20 DUP2 ADD SWAP1 POP PUSH2 0x11F JUMP JUMPDEST POP POP POP POP SWAP1 POP ADD SWAP3 POP POP POP PUSH1 0x40 MLOAD DUP1 SWAP2 SUB SWAP1 RETURN JUMPDEST PUSH2 0x156 PUSH2 0x5C8 JUMP JUMPDEST STOP JUMPDEST PUSH2 0x184 PUSH1 0x4 DUP1 CALLDATASIZE SUB PUSH1 0x20 DUP2 LT ISZERO PUSH2 0x16E JUMPI PUSH1 0x0 DUP1 REVERT JUMPDEST DUP2 ADD SWAP1 DUP1 DUP1 CALLDATALOAD SWAP1 PUSH1 0x20 ADD SWAP1 SWAP3 SWAP2 SWAP1 POP POP POP PUSH2 0x678 JUMP JUMPDEST STOP JUMPDEST PUSH2 0x1B2 PUSH1 0x4 DUP1 CALLDATASIZE SUB PUSH1 0x20 DUP2 LT ISZERO PUSH2 0x19C JUMPI PUSH1 0x0 DUP1 REVERT JUMPDEST DUP2 ADD SWAP1 DUP1 DUP1 CALLDATALOAD SWAP1 PUSH1 0x20 ADD SWAP1 SWAP3 SWAP2 SWAP1 POP POP POP PUSH2 0x731 JUMP JUMPDEST STOP JUMPDEST PUSH2 0x22A PUSH1 0x4 DUP1 CALLDATASIZE SUB PUSH1 0x80 DUP2 LT ISZERO PUSH2 0x1CA JUMPI PUSH1 0x0 DUP1 REVERT JUMPDEST DUP2 ADD SWAP1 DUP1 DUP1 CALLDATALOAD SWAP1 PUSH1 0x20 ADD SWAP1 SWAP3 SWAP2 SWAP1 DUP1 CALLDATALOAD SWAP1 PUSH1 0x20 ADD SWAP1 SWAP3 SWAP2 SWAP1 DUP1 CALLDATALOAD PUSH20 0xFFFFFFFFFFFFFFFFFFFFFFFFFFFFFFFFFFFFFFFF AND SWAP1 PUSH1 0x20 ADD SWAP1 SWAP3 SWAP2 SWAP1 DUP1 CALLDATALOAD PUSH20 0xFFFFFFFFFFFFFFFFFFFFFFFFFFFFFFFFFFFFFFFF AND SWAP1 PUSH1 0x20 ADD SWAP1 SWAP3 SWAP2 SWAP1 POP POP POP PUSH2 0xC60 JUMP JUMPDEST STOP JUMPDEST PUSH2 0x234 PUSH2 0x1469 JUMP JUMPDEST PUSH1 0x40 MLOAD DUP1 DUP3 PUSH20 0xFFFFFFFFFFFFFFFFFFFFFFFFFFFFFFFFFFFFFFFF AND PUSH20 0xFFFFFFFFFFFFFFFFFFFFFFFFFFFFFFFFFFFFFFFF AND DUP2 MSTORE PUSH1 0x20 ADD SWAP2 POP POP PUSH1 0x40 MLOAD DUP1 SWAP2 SUB SWAP1 RETURN JUMPDEST PUSH2 0x27E PUSH2 0x1492 JUMP JUMPDEST PUSH1 0x40 MLOAD DUP1 DUP1 PUSH1 0x20 ADD DUP3 DUP2 SUB DUP3 MSTORE DUP4 DUP2 DUP2 MLOAD DUP2 MSTORE PUSH1 0x20 ADD SWAP2 POP DUP1 MLOAD SWAP1 PUSH1 0x20 ADD SWAP1 PUSH1 0x20 MUL DUP1 DUP4 DUP4 PUSH1 0x0 JUMPDEST DUP4 DUP2 LT ISZERO PUSH2 0x2C1 JUMPI DUP1 DUP3 ADD MLOAD DUP2 DUP5 ADD MSTORE PUSH1 0x20 DUP2 ADD SWAP1 POP PUSH2 0x2A6 JUMP JUMPDEST POP POP POP POP SWAP1 POP ADD SWAP3 POP POP POP PUSH1 0x40 MLOAD DUP1 SWAP2 SUB SWAP1 RETURN JUMPDEST PUSH2 0x2DD PUSH2 0x1520 JUMP JUMPDEST PUSH1 0x40 MLOAD DUP1 DUP1 PUSH1 0x20 ADD DUP3 DUP2 SUB DUP3 MSTORE DUP4 DUP2 DUP2 MLOAD DUP2 MSTORE PUSH1 0x20 ADD SWAP2 POP DUP1 MLOAD SWAP1 PUSH1 0x20 ADD SWAP1 PUSH1 0x20 MUL DUP1 DUP4 DUP4 PUSH1 0x0 JUMPDEST DUP4 DUP2 LT ISZERO PUSH2 0x320 JUMPI DUP1 DUP3 ADD MLOAD DUP2 DUP5 ADD MSTORE PUSH1 0x20 DUP2 ADD SWAP1 POP PUSH2 0x305 JUMP JUMPDEST POP POP POP POP SWAP1 POP ADD SWAP3 POP POP POP PUSH1 0x40 MLOAD DUP1 SWAP2 SUB SWAP1 RETURN JUMPDEST PUSH2 0x388 PUSH1 0x4 DUP1 CALLDATASIZE SUB PUSH1 0xA0 DUP2 LT ISZERO PUSH2 0x34A JUMPI PUSH1 0x0 DUP1 REVERT JUMPDEST DUP2 ADD SWAP1 DUP1 DUP1 CALLDATALOAD SWAP1 PUSH1 0x20 ADD SWAP1 SWAP3 SWAP2 SWAP1 DUP1 CALLDATALOAD SWAP1 PUSH1 0x20 ADD SWAP1 SWAP3 SWAP2 SWAP1 DUP1 CALLDATALOAD SWAP1 PUSH1 0x20 ADD SWAP1 SWAP3 SWAP2 SWAP1 DUP1 CALLDATALOAD SWAP1 PUSH1 0x20 ADD SWAP1 SWAP3 SWAP2 SWAP1 DUP1 CALLDATALOAD SWAP1 PUSH1 0x20 ADD SWAP1 SWAP3 SWAP2 SWAP1 POP POP POP PUSH2 0x15AE JUMP JUMPDEST STOP JUMPDEST PUSH2 0x392 PUSH2 0x1743 JUMP JUMPDEST PUSH1 0x40 MLOAD DUP1 DUP3 DUP2 MSTORE PUSH1 0x20 ADD SWAP2 POP POP PUSH1 0x40 MLOAD DUP1 SWAP2 SUB SWAP1 RETURN JUMPDEST PUSH2 0x3EA PUSH1 0x4 DUP1 CALLDATASIZE SUB PUSH1 0x20 DUP2 LT ISZERO PUSH2 0x3BE JUMPI PUSH1 0x0 DUP1 REVERT JUMPDEST DUP2 ADD SWAP1 DUP1 DUP1 CALLDATALOAD PUSH20 0xFFFFFFFFFFFFFFFFFFFFFFFFFFFFFFFFFFFFFFFF AND SWAP1 PUSH1 0x20 ADD SWAP1 SWAP3 SWAP2 SWAP1 POP POP POP PUSH2 0x174D JUMP JUMPDEST STOP JUMPDEST PUSH2 0x418 PUSH1 0x4 DUP1 CALLDATASIZE SUB PUSH1 0x20 DUP2 LT ISZERO PUSH2 0x402 JUMPI PUSH1 0x0 DUP1 REVERT JUMPDEST DUP2 ADD SWAP1 DUP1 DUP1 CALLDATALOAD SWAP1 PUSH1 0x20 ADD SWAP1 SWAP3 SWAP2 SWAP1 POP POP POP PUSH2 0x17B6 JUMP JUMPDEST PUSH1 0x40 MLOAD DUP1 DUP1 PUSH1 0x20 ADD DUP3 DUP2 SUB DUP3 MSTORE DUP4 DUP2 DUP2 MLOAD DUP2 MSTORE PUSH1 0x20 ADD SWAP2 POP DUP1 MLOAD SWAP1 PUSH1 0x20 ADD SWAP1 PUSH1 0x20 MUL DUP1 DUP4 DUP4 PUSH1 0x0 JUMPDEST DUP4 DUP2 LT ISZERO PUSH2 0x45B JUMPI DUP1 DUP3 ADD MLOAD DUP2 DUP5 ADD MSTORE PUSH1 0x20 DUP2 ADD SWAP1 POP PUSH2 0x440 JUMP JUMPDEST POP POP POP POP SWAP1 POP ADD SWAP3 POP POP POP PUSH1 0x40 MLOAD DUP1 SWAP2 SUB SWAP1 RETURN JUMPDEST PUSH2 0x4D9 PUSH1 0x4 DUP1 CALLDATASIZE SUB PUSH1 0xA0 DUP2 LT ISZERO PUSH2 0x485 JUMPI PUSH1 0x0 DUP1 REVERT JUMPDEST DUP2 ADD SWAP1 DUP1 DUP1 CALLDATALOAD PUSH20 0xFFFFFFFFFFFFFFFFFFFFFFFFFFFFFFFFFFFFFFFF AND SWAP1 PUSH1 0x20 ADD SWAP1 SWAP3 SWAP2 SWAP1 DUP1 CALLDATALOAD SWAP1 PUSH1 0x20 ADD SWAP1 SWAP3 SWAP2 SWAP1 DUP1 CALLDATALOAD SWAP1 PUSH1 0x20 ADD SWAP1 SWAP3 SWAP2 SWAP1 DUP1 CALLDATALOAD SWAP1 PUSH1 0x20 ADD SWAP1 SWAP3 SWAP2 SWAP1 DUP1 CALLDATALOAD SWAP1 PUSH1 0x20 ADD SWAP1 SWAP3 SWAP2 SWAP1 POP POP POP PUSH2 0x1857 JUMP JUMPDEST STOP JUMPDEST PUSH2 0x4E3 PUSH2 0x1EBE JUMP JUMPDEST PUSH1 0x40 MLOAD DUP1 DUP1 PUSH1 0x20 ADD DUP3 DUP2 SUB DUP3 MSTORE DUP4 DUP2 DUP2 MLOAD DUP2 MSTORE PUSH1 0x20 ADD SWAP2 POP DUP1 MLOAD SWAP1 PUSH1 0x20 ADD SWAP1 PUSH1 0x20 MUL DUP1 DUP4 DUP4 PUSH1 0x0 JUMPDEST DUP4 DUP2 LT ISZERO PUSH2 0x526 JUMPI DUP1 DUP3 ADD MLOAD DUP2 DUP5 ADD MSTORE PUSH1 0x20 DUP2 ADD SWAP1 POP PUSH2 0x50B JUMP JUMPDEST POP POP POP POP SWAP1 POP ADD SWAP3 POP POP POP PUSH1 0x40 MLOAD DUP1 SWAP2 SUB SWAP1 RETURN JUMPDEST PUSH1 0x60 PUSH1 0x3 DUP1 SLOAD DUP1 PUSH1 0x20 MUL PUSH1 0x20 ADD PUSH1 0x40 MLOAD SWAP1 DUP2 ADD PUSH1 0x40 MSTORE DUP1 SWAP3 SWAP2 SWAP1 DUP2 DUP2 MSTORE PUSH1 0x20 ADD DUP3 DUP1 SLOAD DUP1 ISZERO PUSH2 0x5BE JUMPI PUSH1 0x20 MUL DUP3 ADD SWAP2 SWAP1 PUSH1 0x0 MSTORE PUSH1 0x20 PUSH1 0x0 KECCAK256 SWAP1 JUMPDEST DUP2 PUSH1 0x0 SWAP1 SLOAD SWAP1 PUSH2 0x100 EXP SWAP1 DIV PUSH20 0xFFFFFFFFFFFFFFFFFFFFFFFFFFFFFFFFFFFFFFFF AND PUSH20 0xFFFFFFFFFFFFFFFFFFFFFFFFFFFFFFFFFFFFFFFF AND DUP2 MSTORE PUSH1 0x20 ADD SWAP1 PUSH1 0x1 ADD SWAP1 DUP1 DUP4 GT PUSH2 0x574 JUMPI JUMPDEST POP POP POP POP POP SWAP1 POP SWAP1 JUMP JUMPDEST PUSH1 0x1 PUSH1 0x0 SWAP1 SLOAD SWAP1 PUSH2 0x100 EXP SWAP1 DIV PUSH20 0xFFFFFFFFFFFFFFFFFFFFFFFFFFFFFFFFFFFFFFFF AND PUSH20 0xFFFFFFFFFFFFFFFFFFFFFFFFFFFFFFFFFFFFFFFF AND CALLER PUSH20 0xFFFFFFFFFFFFFFFFFFFFFFFFFFFFFFFFFFFFFFFF AND EQ PUSH2 0x66E JUMPI PUSH1 0x40 MLOAD PUSH32 0x8C379A000000000000000000000000000000000000000000000000000000000 DUP2 MSTORE PUSH1 0x4 ADD DUP1 DUP1 PUSH1 0x20 ADD DUP3 DUP2 SUB DUP3 MSTORE PUSH1 0x23 DUP2 MSTORE PUSH1 0x20 ADD DUP1 PUSH2 0x272F PUSH1 0x23 SWAP2 CODECOPY PUSH1 0x40 ADD SWAP2 POP POP PUSH1 0x40 MLOAD DUP1 SWAP2 SUB SWAP1 REVERT JUMPDEST PUSH1 0x0 PUSH1 0x2 DUP2 SWAP1 SSTORE POP JUMP JUMPDEST PUSH1 0x1 PUSH1 0x0 SWAP1 SLOAD SWAP1 PUSH2 0x100 EXP SWAP1 DIV PUSH20 0xFFFFFFFFFFFFFFFFFFFFFFFFFFFFFFFFFFFFFFFF AND PUSH20 0xFFFFFFFFFFFFFFFFFFFFFFFFFFFFFFFFFFFFFFFF AND CALLER PUSH20 0xFFFFFFFFFFFFFFFFFFFFFFFFFFFFFFFFFFFFFFFF AND EQ PUSH2 0x71E JUMPI PUSH1 0x40 MLOAD PUSH32 0x8C379A000000000000000000000000000000000000000000000000000000000 DUP2 MSTORE PUSH1 0x4 ADD DUP1 DUP1 PUSH1 0x20 ADD DUP3 DUP2 SUB DUP3 MSTORE PUSH1 0x23 DUP2 MSTORE PUSH1 0x20 ADD DUP1 PUSH2 0x272F PUSH1 0x23 SWAP2 CODECOPY PUSH1 0x40 ADD SWAP2 POP POP PUSH1 0x40 MLOAD DUP1 SWAP2 SUB SWAP1 REVERT JUMPDEST DUP1 PUSH1 0x2 PUSH1 0x0 DUP3 DUP3 SLOAD ADD SWAP3 POP POP DUP2 SWAP1 SSTORE POP POP JUMP JUMPDEST PUSH1 0x0 DUP1 SWAP1 SLOAD SWAP1 PUSH2 0x100 EXP SWAP1 DIV PUSH20 0xFFFFFFFFFFFFFFFFFFFFFFFFFFFFFFFFFFFFFFFF AND PUSH20 0xFFFFFFFFFFFFFFFFFFFFFFFFFFFFFFFFFFFFFFFF AND CALLER PUSH20 0xFFFFFFFFFFFFFFFFFFFFFFFFFFFFFFFFFFFFFFFF AND EQ PUSH2 0x7D6 JUMPI PUSH1 0x40 MLOAD PUSH32 0x8C379A000000000000000000000000000000000000000000000000000000000 DUP2 MSTORE PUSH1 0x4 ADD DUP1 DUP1 PUSH1 0x20 ADD DUP3 DUP2 SUB DUP3 MSTORE PUSH1 0x22 DUP2 MSTORE PUSH1 0x20 ADD DUP1 PUSH2 0x270D PUSH1 0x22 SWAP2 CODECOPY PUSH1 0x40 ADD SWAP2 POP POP PUSH1 0x40 MLOAD DUP1 SWAP2 SUB SWAP1 REVERT JUMPDEST PUSH1 0x0 DUP1 SWAP1 POP JUMPDEST PUSH1 0x5 DUP1 SLOAD SWAP1 POP DUP2 LT ISZERO PUSH2 0x960 JUMPI PUSH1 0x6 PUSH1 0x5 DUP3 DUP2 SLOAD DUP2 LT PUSH2 0x7F8 JUMPI INVALID JUMPDEST SWAP1 PUSH1 0x0 MSTORE PUSH1 0x20 PUSH1 0x0 KECCAK256 ADD PUSH1 0x0 SWAP1 SLOAD SWAP1 PUSH2 0x100 EXP SWAP1 DIV PUSH20 0xFFFFFFFFFFFFFFFFFFFFFFFFFFFFFFFFFFFFFFFF AND SWAP1 DUP1 PUSH1 0x1 DUP2 SLOAD ADD DUP1 DUP3 SSTORE DUP1 SWAP2 POP POP SWAP1 PUSH1 0x1 DUP3 SUB SWAP1 PUSH1 0x0 MSTORE PUSH1 0x20 PUSH1 0x0 KECCAK256 ADD PUSH1 0x0 SWAP1 SWAP2 SWAP3 SWAP1 SWAP2 SWAP1 SWAP2 PUSH2 0x100 EXP DUP2 SLOAD DUP2 PUSH20 0xFFFFFFFFFFFFFFFFFFFFFFFFFFFFFFFFFFFFFFFF MUL NOT AND SWAP1 DUP4 PUSH20 0xFFFFFFFFFFFFFFFFFFFFFFFFFFFFFFFFFFFFFFFF AND MUL OR SWAP1 SSTORE POP POP PUSH1 0x0 PUSH1 0x5 DUP3 DUP2 SLOAD DUP2 LT PUSH2 0x895 JUMPI INVALID JUMPDEST SWAP1 PUSH1 0x0 MSTORE PUSH1 0x20 PUSH1 0x0 KECCAK256 ADD PUSH1 0x0 SWAP1 SLOAD SWAP1 PUSH2 0x100 EXP SWAP1 DIV PUSH20 0xFFFFFFFFFFFFFFFFFFFFFFFFFFFFFFFFFFFFFFFF AND SWAP1 POP DUP1 PUSH20 0xFFFFFFFFFFFFFFFFFFFFFFFFFFFFFFFFFFFFFFFF AND PUSH4 0x20965255 PUSH1 0x40 MLOAD DUP2 PUSH4 0xFFFFFFFF AND PUSH1 0xE0 SHL DUP2 MSTORE PUSH1 0x4 ADD PUSH1 0x20 PUSH1 0x40 MLOAD DUP1 DUP4 SUB DUP2 DUP7 DUP1 EXTCODESIZE ISZERO DUP1 ISZERO PUSH2 0x908 JUMPI PUSH1 0x0 DUP1 REVERT JUMPDEST POP GAS STATICCALL ISZERO DUP1 ISZERO PUSH2 0x91C JUMPI RETURNDATASIZE PUSH1 0x0 DUP1 RETURNDATACOPY RETURNDATASIZE PUSH1 0x0 REVERT JUMPDEST POP POP POP POP PUSH1 0x40 MLOAD RETURNDATASIZE PUSH1 0x20 DUP2 LT ISZERO PUSH2 0x932 JUMPI PUSH1 0x0 DUP1 REVERT JUMPDEST DUP2 ADD SWAP1 DUP1 DUP1 MLOAD SWAP1 PUSH1 0x20 ADD SWAP1 SWAP3 SWAP2 SWAP1 POP POP POP PUSH1 0x2 PUSH1 0x0 DUP3 DUP3 SLOAD ADD SWAP3 POP POP DUP2 SWAP1 SSTORE POP POP DUP1 DUP1 PUSH1 0x1 ADD SWAP2 POP POP PUSH2 0x7DC JUMP JUMPDEST POP PUSH1 0x5 PUSH1 0x0 PUSH2 0x96F SWAP2 SWAP1 PUSH2 0x1F4C JUMP JUMPDEST PUSH1 0x0 DUP1 SWAP1 POP JUMPDEST PUSH1 0x3 DUP1 SLOAD SWAP1 POP DUP2 LT ISZERO PUSH2 0xB82 JUMPI PUSH1 0x0 PUSH1 0x3 DUP3 DUP2 SLOAD DUP2 LT PUSH2 0x991 JUMPI INVALID JUMPDEST SWAP1 PUSH1 0x0 MSTORE PUSH1 0x20 PUSH1 0x0 KECCAK256 ADD PUSH1 0x0 SWAP1 SLOAD SWAP1 PUSH2 0x100 EXP SWAP1 DIV PUSH20 0xFFFFFFFFFFFFFFFFFFFFFFFFFFFFFFFFFFFFFFFF AND SWAP1 POP DUP3 DUP2 PUSH20 0xFFFFFFFFFFFFFFFFFFFFFFFFFFFFFFFFFFFFFFFF AND PUSH4 0xB1356488 PUSH1 0x40 MLOAD DUP2 PUSH4 0xFFFFFFFF AND PUSH1 0xE0 SHL DUP2 MSTORE PUSH1 0x4 ADD PUSH1 0x20 PUSH1 0x40 MLOAD DUP1 DUP4 SUB DUP2 DUP7 DUP1 EXTCODESIZE ISZERO DUP1 ISZERO PUSH2 0xA05 JUMPI PUSH1 0x0 DUP1 REVERT JUMPDEST POP GAS STATICCALL ISZERO DUP1 ISZERO PUSH2 0xA19 JUMPI RETURNDATASIZE PUSH1 0x0 DUP1 RETURNDATACOPY RETURNDATASIZE PUSH1 0x0 REVERT JUMPDEST POP POP POP POP PUSH1 0x40 MLOAD RETURNDATASIZE PUSH1 0x20 DUP2 LT ISZERO PUSH2 0xA2F JUMPI PUSH1 0x0 DUP1 REVERT JUMPDEST DUP2 ADD SWAP1 DUP1 DUP1 MLOAD SWAP1 PUSH1 0x20 ADD SWAP1 SWAP3 SWAP2 SWAP1 POP POP POP LT ISZERO PUSH2 0xAD7 JUMPI DUP1 PUSH20 0xFFFFFFFFFFFFFFFFFFFFFFFFFFFFFFFFFFFFFFFF AND PUSH4 0x20965255 PUSH1 0x40 MLOAD DUP2 PUSH4 0xFFFFFFFF AND PUSH1 0xE0 SHL DUP2 MSTORE PUSH1 0x4 ADD PUSH1 0x20 PUSH1 0x40 MLOAD DUP1 DUP4 SUB DUP2 DUP7 DUP1 EXTCODESIZE ISZERO DUP1 ISZERO PUSH2 0xA8C JUMPI PUSH1 0x0 DUP1 REVERT JUMPDEST POP GAS STATICCALL ISZERO DUP1 ISZERO PUSH2 0xAA0 JUMPI RETURNDATASIZE PUSH1 0x0 DUP1 RETURNDATACOPY RETURNDATASIZE PUSH1 0x0 REVERT JUMPDEST POP POP POP POP PUSH1 0x40 MLOAD RETURNDATASIZE PUSH1 0x20 DUP2 LT ISZERO PUSH2 0xAB6 JUMPI PUSH1 0x0 DUP1 REVERT JUMPDEST DUP2 ADD SWAP1 DUP1 DUP1 MLOAD SWAP1 PUSH1 0x20 ADD SWAP1 SWAP3 SWAP2 SWAP1 POP POP POP PUSH1 0x2 PUSH1 0x0 DUP3 DUP3 SLOAD ADD SWAP3 POP POP DUP2 SWAP1 SSTORE POP JUMPDEST PUSH1 0x6 PUSH1 0x3 DUP4 DUP2 SLOAD DUP2 LT PUSH2 0xAE6 JUMPI INVALID JUMPDEST SWAP1 PUSH1 0x0 MSTORE PUSH1 0x20 PUSH1 0x0 KECCAK256 ADD PUSH1 0x0 SWAP1 SLOAD SWAP1 PUSH2 0x100 EXP SWAP1 DIV PUSH20 0xFFFFFFFFFFFFFFFFFFFFFFFFFFFFFFFFFFFFFFFF AND SWAP1 DUP1 PUSH1 0x1 DUP2 SLOAD ADD DUP1 DUP3 SSTORE DUP1 SWAP2 POP POP SWAP1 PUSH1 0x1 DUP3 SUB SWAP1 PUSH1 0x0 MSTORE PUSH1 0x20 PUSH1 0x0 KECCAK256 ADD PUSH1 0x0 SWAP1 SWAP2 SWAP3 SWAP1 SWAP2 SWAP1 SWAP2 PUSH2 0x100 EXP DUP2 SLOAD DUP2 PUSH20 0xFFFFFFFFFFFFFFFFFFFFFFFFFFFFFFFFFFFFFFFF MUL NOT AND SWAP1 DUP4 PUSH20 0xFFFFFFFFFFFFFFFFFFFFFFFFFFFFFFFFFFFFFFFF AND MUL OR SWAP1 SSTORE POP POP POP DUP1 DUP1 PUSH1 0x1 ADD SWAP2 POP POP PUSH2 0x975 JUMP JUMPDEST POP PUSH1 0x3 PUSH1 0x0 PUSH2 0xB91 SWAP2 SWAP1 PUSH2 0x1F4C JUMP JUMPDEST PUSH1 0x0 DUP1 SWAP1 POP JUMPDEST PUSH1 0x4 DUP1 SLOAD SWAP1 POP DUP2 LT ISZERO PUSH2 0xC4E JUMPI PUSH1 0x6 PUSH1 0x4 DUP3 DUP2 SLOAD DUP2 LT PUSH2 0xBB3 JUMPI INVALID JUMPDEST SWAP1 PUSH1 0x0 MSTORE PUSH1 0x20 PUSH1 0x0 KECCAK256 ADD PUSH1 0x0 SWAP1 SLOAD SWAP1 PUSH2 0x100 EXP SWAP1 DIV PUSH20 0xFFFFFFFFFFFFFFFFFFFFFFFFFFFFFFFFFFFFFFFF AND SWAP1 DUP1 PUSH1 0x1 DUP2 SLOAD ADD DUP1 DUP3 SSTORE DUP1 SWAP2 POP POP SWAP1 PUSH1 0x1 DUP3 SUB SWAP1 PUSH1 0x0 MSTORE PUSH1 0x20 PUSH1 0x0 KECCAK256 ADD PUSH1 0x0 SWAP1 SWAP2 SWAP3 SWAP1 SWAP2 SWAP1 SWAP2 PUSH2 0x100 EXP DUP2 SLOAD DUP2 PUSH20 0xFFFFFFFFFFFFFFFFFFFFFFFFFFFFFFFFFFFFFFFF MUL NOT AND SWAP1 DUP4 PUSH20 0xFFFFFFFFFFFFFFFFFFFFFFFFFFFFFFFFFFFFFFFF AND MUL OR SWAP1 SSTORE POP POP DUP1 DUP1 PUSH1 0x1 ADD SWAP2 POP POP PUSH2 0xB97 JUMP JUMPDEST POP PUSH1 0x4 PUSH1 0x0 PUSH2 0xC5D SWAP2 SWAP1 PUSH2 0x1F4C JUMP JUMPDEST POP JUMP JUMPDEST PUSH1 0x0 DUP1 SWAP1 SLOAD SWAP1 PUSH2 0x100 EXP SWAP1 DIV PUSH20 0xFFFFFFFFFFFFFFFFFFFFFFFFFFFFFFFFFFFFFFFF AND PUSH20 0xFFFFFFFFFFFFFFFFFFFFFFFFFFFFFFFFFFFFFFFF AND CALLER PUSH20 0xFFFFFFFFFFFFFFFFFFFFFFFFFFFFFFFFFFFFFFFF AND EQ PUSH2 0xD05 JUMPI PUSH1 0x40 MLOAD PUSH32 0x8C379A000000000000000000000000000000000000000000000000000000000 DUP2 MSTORE PUSH1 0x4 ADD DUP1 DUP1 PUSH1 0x20 ADD DUP3 DUP2 SUB DUP3 MSTORE PUSH1 0x22 DUP2 MSTORE PUSH1 0x20 ADD DUP1 PUSH2 0x270D PUSH1 0x22 SWAP2 CODECOPY PUSH1 0x40 ADD SWAP2 POP POP PUSH1 0x40 MLOAD DUP1 SWAP2 SUB SWAP1 REVERT JUMPDEST PUSH1 0x0 DUP3 SWAP1 POP DUP1 PUSH20 0xFFFFFFFFFFFFFFFFFFFFFFFFFFFFFFFFFFFFFFFF AND PUSH4 0xB295A00E PUSH1 0x40 MLOAD DUP2 PUSH4 0xFFFFFFFF AND PUSH1 0xE0 SHL DUP2 MSTORE PUSH1 0x4 ADD PUSH1 0x20 PUSH1 0x40 MLOAD DUP1 DUP4 SUB DUP2 DUP7 DUP1 EXTCODESIZE ISZERO DUP1 ISZERO PUSH2 0xD50 JUMPI PUSH1 0x0 DUP1 REVERT JUMPDEST POP GAS STATICCALL ISZERO DUP1 ISZERO PUSH2 0xD64 JUMPI RETURNDATASIZE PUSH1 0x0 DUP1 RETURNDATACOPY RETURNDATASIZE PUSH1 0x0 REVERT JUMPDEST POP POP POP POP PUSH1 0x40 MLOAD RETURNDATASIZE PUSH1 0x20 DUP2 LT ISZERO PUSH2 0xD7A JUMPI PUSH1 0x0 DUP1 REVERT JUMPDEST DUP2 ADD SWAP1 DUP1 DUP1 MLOAD SWAP1 PUSH1 0x20 ADD SWAP1 SWAP3 SWAP2 SWAP1 POP POP POP DUP6 LT PUSH2 0x1462 JUMPI DUP1 PUSH20 0xFFFFFFFFFFFFFFFFFFFFFFFFFFFFFFFFFFFFFFFF AND PUSH4 0xFB61D1DC DUP7 PUSH1 0x40 MLOAD DUP3 PUSH4 0xFFFFFFFF AND PUSH1 0xE0 SHL DUP2 MSTORE PUSH1 0x4 ADD DUP1 DUP3 DUP2 MSTORE PUSH1 0x20 ADD SWAP2 POP POP PUSH1 0x0 PUSH1 0x40 MLOAD DUP1 DUP4 SUB DUP2 PUSH1 0x0 DUP8 DUP1 EXTCODESIZE ISZERO DUP1 ISZERO PUSH2 0xDE4 JUMPI PUSH1 0x0 DUP1 REVERT JUMPDEST POP GAS CALL ISZERO DUP1 ISZERO PUSH2 0xDF8 JUMPI RETURNDATASIZE PUSH1 0x0 DUP1 RETURNDATACOPY RETURNDATASIZE PUSH1 0x0 REVERT JUMPDEST POP POP POP POP DUP1 PUSH20 0xFFFFFFFFFFFFFFFFFFFFFFFFFFFFFFFFFFFFFFFF AND PUSH4 0x54DA0114 DUP6 PUSH1 0x40 MLOAD DUP3 PUSH4 0xFFFFFFFF AND PUSH1 0xE0 SHL DUP2 MSTORE PUSH1 0x4 ADD DUP1 DUP3 DUP2 MSTORE PUSH1 0x20 ADD SWAP2 POP POP PUSH1 0x0 PUSH1 0x40 MLOAD DUP1 DUP4 SUB DUP2 PUSH1 0x0 DUP8 DUP1 EXTCODESIZE ISZERO DUP1 ISZERO PUSH2 0xE4F JUMPI PUSH1 0x0 DUP1 REVERT JUMPDEST POP GAS CALL ISZERO DUP1 ISZERO PUSH2 0xE63 JUMPI RETURNDATASIZE PUSH1 0x0 DUP1 RETURNDATACOPY RETURNDATASIZE PUSH1 0x0 REVERT JUMPDEST POP POP POP POP DUP1 PUSH20 0xFFFFFFFFFFFFFFFFFFFFFFFFFFFFFFFFFFFFFFFF AND PUSH4 0xA9E966B7 PUSH1 0x3 PUSH1 0x40 MLOAD DUP3 PUSH4 0xFFFFFFFF AND PUSH1 0xE0 SHL DUP2 MSTORE PUSH1 0x4 ADD DUP1 DUP3 DUP2 MSTORE PUSH1 0x20 ADD SWAP2 POP POP PUSH1 0x0 PUSH1 0x40 MLOAD DUP1 DUP4 SUB DUP2 PUSH1 0x0 DUP8 DUP1 EXTCODESIZE ISZERO DUP1 ISZERO PUSH2 0xEBB JUMPI PUSH1 0x0 DUP1 REVERT JUMPDEST POP GAS CALL ISZERO DUP1 ISZERO PUSH2 0xECF JUMPI RETURNDATASIZE PUSH1 0x0 DUP1 RETURNDATACOPY RETURNDATASIZE PUSH1 0x0 REVERT JUMPDEST POP POP POP POP PUSH1 0x0 DUP3 SWAP1 POP DUP1 PUSH20 0xFFFFFFFFFFFFFFFFFFFFFFFFFFFFFFFFFFFFFFFF AND PUSH4 0x985E665D DUP6 PUSH1 0x40 MLOAD DUP3 PUSH4 0xFFFFFFFF AND PUSH1 0xE0 SHL DUP2 MSTORE PUSH1 0x4 ADD DUP1 DUP3 PUSH20 0xFFFFFFFFFFFFFFFFFFFFFFFFFFFFFFFFFFFFFFFF AND PUSH20 0xFFFFFFFFFFFFFFFFFFFFFFFFFFFFFFFFFFFFFFFF AND DUP2 MSTORE PUSH1 0x20 ADD SWAP2 POP POP PUSH1 0x0 PUSH1 0x40 MLOAD DUP1 DUP4 SUB DUP2 PUSH1 0x0 DUP8 DUP1 EXTCODESIZE ISZERO DUP1 ISZERO PUSH2 0xF57 JUMPI PUSH1 0x0 DUP1 REVERT JUMPDEST POP GAS CALL ISZERO DUP1 ISZERO PUSH2 0xF6B JUMPI RETURNDATASIZE PUSH1 0x0 DUP1 RETURNDATACOPY RETURNDATASIZE PUSH1 0x0 REVERT JUMPDEST POP POP POP POP PUSH1 0x0 PUSH1 0x3 DUP1 SLOAD SWAP1 POP SWAP1 POP PUSH1 0x0 SWAP1 POP JUMPDEST PUSH1 0x3 DUP1 SLOAD SWAP1 POP DUP2 LT ISZERO PUSH2 0x1008 JUMPI DUP5 PUSH20 0xFFFFFFFFFFFFFFFFFFFFFFFFFFFFFFFFFFFFFFFF AND PUSH1 0x3 DUP3 DUP2 SLOAD DUP2 LT PUSH2 0xFAF JUMPI INVALID JUMPDEST SWAP1 PUSH1 0x0 MSTORE PUSH1 0x20 PUSH1 0x0 KECCAK256 ADD PUSH1 0x0 SWAP1 SLOAD SWAP1 PUSH2 0x100 EXP SWAP1 DIV PUSH20 0xFFFFFFFFFFFFFFFFFFFFFFFFFFFFFFFFFFFFFFFF AND PUSH20 0xFFFFFFFFFFFFFFFFFFFFFFFFFFFFFFFFFFFFFFFF AND EQ ISZERO PUSH2 0xFFB JUMPI PUSH2 0x1008 JUMP JUMPDEST DUP1 DUP1 PUSH1 0x1 ADD SWAP2 POP POP PUSH2 0xF7E JUMP JUMPDEST PUSH1 0x3 DUP1 SLOAD SWAP1 POP DUP2 EQ PUSH2 0x11DC JUMPI PUSH1 0x0 DUP2 SWAP1 POP JUMPDEST PUSH1 0x1 PUSH1 0x3 DUP1 SLOAD SWAP1 POP SUB DUP2 LT ISZERO PUSH2 0x10C7 JUMPI PUSH1 0x3 PUSH1 0x1 DUP3 ADD DUP2 SLOAD DUP2 LT PUSH2 0x103A JUMPI INVALID JUMPDEST SWAP1 PUSH1 0x0 MSTORE PUSH1 0x20 PUSH1 0x0 KECCAK256 ADD PUSH1 0x0 SWAP1 SLOAD SWAP1 PUSH2 0x100 EXP SWAP1 DIV PUSH20 0xFFFFFFFFFFFFFFFFFFFFFFFFFFFFFFFFFFFFFFFF AND PUSH1 0x3 DUP3 DUP2 SLOAD DUP2 LT PUSH2 0x1072 JUMPI INVALID JUMPDEST SWAP1 PUSH1 0x0 MSTORE PUSH1 0x20 PUSH1 0x0 KECCAK256 ADD PUSH1 0x0 PUSH2 0x100 EXP DUP2 SLOAD DUP2 PUSH20 0xFFFFFFFFFFFFFFFFFFFFFFFFFFFFFFFFFFFFFFFF MUL NOT AND SWAP1 DUP4 PUSH20 0xFFFFFFFFFFFFFFFFFFFFFFFFFFFFFFFFFFFFFFFF AND MUL OR SWAP1 SSTORE POP DUP1 DUP1 PUSH1 0x1 ADD SWAP2 POP POP PUSH2 0x101A JUMP JUMPDEST POP PUSH1 0x1 PUSH1 0x3 DUP2 DUP2 DUP1 SLOAD SWAP1 POP SUB SWAP2 POP DUP2 PUSH2 0x10E0 SWAP2 SWAP1 PUSH2 0x1F6D JUMP JUMPDEST POP PUSH1 0x4 DUP6 SWAP1 DUP1 PUSH1 0x1 DUP2 SLOAD ADD DUP1 DUP3 SSTORE DUP1 SWAP2 POP POP SWAP1 PUSH1 0x1 DUP3 SUB SWAP1 PUSH1 0x0 MSTORE PUSH1 0x20 PUSH1 0x0 KECCAK256 ADD PUSH1 0x0 SWAP1 SWAP2 SWAP3 SWAP1 SWAP2 SWAP1 SWAP2 PUSH2 0x100 EXP DUP2 SLOAD DUP2 PUSH20 0xFFFFFFFFFFFFFFFFFFFFFFFFFFFFFFFFFFFFFFFF MUL NOT AND SWAP1 DUP4 PUSH20 0xFFFFFFFFFFFFFFFFFFFFFFFFFFFFFFFFFFFFFFFF AND MUL OR SWAP1 SSTORE POP POP DUP3 PUSH20 0xFFFFFFFFFFFFFFFFFFFFFFFFFFFFFFFFFFFFFFFF AND PUSH4 0x20965255 PUSH1 0x40 MLOAD DUP2 PUSH4 0xFFFFFFFF AND PUSH1 0xE0 SHL DUP2 MSTORE PUSH1 0x4 ADD PUSH1 0x20 PUSH1 0x40 MLOAD DUP1 DUP4 SUB DUP2 DUP7 DUP1 EXTCODESIZE ISZERO DUP1 ISZERO PUSH2 0x118D JUMPI PUSH1 0x0 DUP1 REVERT JUMPDEST POP GAS STATICCALL ISZERO DUP1 ISZERO PUSH2 0x11A1 JUMPI RETURNDATASIZE PUSH1 0x0 DUP1 RETURNDATACOPY RETURNDATASIZE PUSH1 0x0 REVERT JUMPDEST POP POP POP POP PUSH1 0x40 MLOAD RETURNDATASIZE PUSH1 0x20 DUP2 LT ISZERO PUSH2 0x11B7 JUMPI PUSH1 0x0 DUP1 REVERT JUMPDEST DUP2 ADD SWAP1 DUP1 DUP1 MLOAD SWAP1 PUSH1 0x20 ADD SWAP1 SWAP3 SWAP2 SWAP1 POP POP POP PUSH1 0x2 PUSH1 0x0 DUP3 DUP3 SLOAD ADD SWAP3 POP POP DUP2 SWAP1 SSTORE POP PUSH2 0x145F JUMP JUMPDEST DUP3 PUSH20 0xFFFFFFFFFFFFFFFFFFFFFFFFFFFFFFFFFFFFFFFF AND PUSH4 0x20965255 PUSH1 0x40 MLOAD DUP2 PUSH4 0xFFFFFFFF AND PUSH1 0xE0 SHL DUP2 MSTORE PUSH1 0x4 ADD PUSH1 0x20 PUSH1 0x40 MLOAD DUP1 DUP4 SUB DUP2 DUP7 DUP1 EXTCODESIZE ISZERO DUP1 ISZERO PUSH2 0x1222 JUMPI PUSH1 0x0 DUP1 REVERT JUMPDEST POP GAS STATICCALL ISZERO DUP1 ISZERO PUSH2 0x1236 JUMPI RETURNDATASIZE PUSH1 0x0 DUP1 RETURNDATACOPY RETURNDATASIZE PUSH1 0x0 REVERT JUMPDEST POP POP POP POP PUSH1 0x40 MLOAD RETURNDATASIZE PUSH1 0x20 DUP2 LT ISZERO PUSH2 0x124C JUMPI PUSH1 0x0 DUP1 REVERT JUMPDEST DUP2 ADD SWAP1 DUP1 DUP1 MLOAD SWAP1 PUSH1 0x20 ADD SWAP1 SWAP3 SWAP2 SWAP1 POP POP POP PUSH1 0x2 PUSH1 0x0 DUP3 DUP3 SLOAD ADD SWAP3 POP POP DUP2 SWAP1 SSTORE POP PUSH1 0x0 DUP4 PUSH20 0xFFFFFFFFFFFFFFFFFFFFFFFFFFFFFFFFFFFFFFFF AND PUSH4 0x988A6E0E PUSH1 0x40 MLOAD DUP2 PUSH4 0xFFFFFFFF AND PUSH1 0xE0 SHL DUP2 MSTORE PUSH1 0x4 ADD PUSH1 0x20 PUSH1 0x40 MLOAD DUP1 DUP4 SUB DUP2 DUP7 DUP1 EXTCODESIZE ISZERO DUP1 ISZERO PUSH2 0x12B4 JUMPI PUSH1 0x0 DUP1 REVERT JUMPDEST POP GAS STATICCALL ISZERO DUP1 ISZERO PUSH2 0x12C8 JUMPI RETURNDATASIZE PUSH1 0x0 DUP1 RETURNDATACOPY RETURNDATASIZE PUSH1 0x0 REVERT JUMPDEST POP POP POP POP PUSH1 0x40 MLOAD RETURNDATASIZE PUSH1 0x20 DUP2 LT ISZERO PUSH2 0x12DE JUMPI PUSH1 0x0 DUP1 REVERT JUMPDEST DUP2 ADD SWAP1 DUP1 DUP1 MLOAD SWAP1 PUSH1 0x20 ADD SWAP1 SWAP3 SWAP2 SWAP1 POP POP POP SWAP1 POP PUSH1 0x0 DUP1 SWAP1 SLOAD SWAP1 PUSH2 0x100 EXP SWAP1 DIV PUSH20 0xFFFFFFFFFFFFFFFFFFFFFFFFFFFFFFFFFFFFFFFF AND PUSH20 0xFFFFFFFFFFFFFFFFFFFFFFFFFFFFFFFFFFFFFFFF AND DUP2 PUSH20 0xFFFFFFFFFFFFFFFFFFFFFFFFFFFFFFFFFFFFFFFF AND PUSH4 0x893D20E8 PUSH1 0x40 MLOAD DUP2 PUSH4 0xFFFFFFFF AND PUSH1 0xE0 SHL DUP2 MSTORE PUSH1 0x4 ADD PUSH1 0x20 PUSH1 0x40 MLOAD DUP1 DUP4 SUB DUP2 DUP7 DUP1 EXTCODESIZE ISZERO DUP1 ISZERO PUSH2 0x136F JUMPI PUSH1 0x0 DUP1 REVERT JUMPDEST POP GAS STATICCALL ISZERO DUP1 ISZERO PUSH2 0x1383 JUMPI RETURNDATASIZE PUSH1 0x0 DUP1 RETURNDATACOPY RETURNDATASIZE PUSH1 0x0 REVERT JUMPDEST POP POP POP POP PUSH1 0x40 MLOAD RETURNDATASIZE PUSH1 0x20 DUP2 LT ISZERO PUSH2 0x1399 JUMPI PUSH1 0x0 DUP1 REVERT JUMPDEST DUP2 ADD SWAP1 DUP1 DUP1 MLOAD SWAP1 PUSH1 0x20 ADD SWAP1 SWAP3 SWAP2 SWAP1 POP POP POP PUSH20 0xFFFFFFFFFFFFFFFFFFFFFFFFFFFFFFFFFFFFFFFF AND EQ PUSH2 0x145D JUMPI DUP1 PUSH20 0xFFFFFFFFFFFFFFFFFFFFFFFFFFFFFFFFFFFFFFFF AND PUSH4 0xD3015D37 DUP8 PUSH1 0x40 MLOAD DUP3 PUSH4 0xFFFFFFFF AND PUSH1 0xE0 SHL DUP2 MSTORE PUSH1 0x4 ADD DUP1 DUP3 PUSH20 0xFFFFFFFFFFFFFFFFFFFFFFFFFFFFFFFFFFFFFFFF AND PUSH20 0xFFFFFFFFFFFFFFFFFFFFFFFFFFFFFFFFFFFFFFFF AND DUP2 MSTORE PUSH1 0x20 ADD SWAP2 POP POP PUSH1 0x0 PUSH1 0x40 MLOAD DUP1 DUP4 SUB DUP2 PUSH1 0x0 DUP8 DUP1 EXTCODESIZE ISZERO DUP1 ISZERO PUSH2 0x1444 JUMPI PUSH1 0x0 DUP1 REVERT JUMPDEST POP GAS CALL ISZERO DUP1 ISZERO PUSH2 0x1458 JUMPI RETURNDATASIZE PUSH1 0x0 DUP1 RETURNDATACOPY RETURNDATASIZE PUSH1 0x0 REVERT JUMPDEST POP POP POP POP JUMPDEST POP JUMPDEST POP POP JUMPDEST POP POP POP POP POP JUMP JUMPDEST PUSH1 0x0 DUP1 PUSH1 0x0 SWAP1 SLOAD SWAP1 PUSH2 0x100 EXP SWAP1 DIV PUSH20 0xFFFFFFFFFFFFFFFFFFFFFFFFFFFFFFFFFFFFFFFF AND SWAP1 POP SWAP1 JUMP JUMPDEST PUSH1 0x60 PUSH1 0x5 DUP1 SLOAD DUP1 PUSH1 0x20 MUL PUSH1 0x20 ADD PUSH1 0x40 MLOAD SWAP1 DUP2 ADD PUSH1 0x40 MSTORE DUP1 SWAP3 SWAP2 SWAP1 DUP2 DUP2 MSTORE PUSH1 0x20 ADD DUP3 DUP1 SLOAD DUP1 ISZERO PUSH2 0x1516 JUMPI PUSH1 0x20 MUL DUP3 ADD SWAP2 SWAP1 PUSH1 0x0 MSTORE PUSH1 0x20 PUSH1 0x0 KECCAK256 SWAP1 JUMPDEST DUP2 PUSH1 0x0 SWAP1 SLOAD SWAP1 PUSH2 0x100 EXP SWAP1 DIV PUSH20 0xFFFFFFFFFFFFFFFFFFFFFFFFFFFFFFFFFFFFFFFF AND PUSH20 0xFFFFFFFFFFFFFFFFFFFFFFFFFFFFFFFFFFFFFFFF AND DUP2 MSTORE PUSH1 0x20 ADD SWAP1 PUSH1 0x1 ADD SWAP1 DUP1 DUP4 GT PUSH2 0x14CC JUMPI JUMPDEST POP POP POP POP POP SWAP1 POP SWAP1 JUMP JUMPDEST PUSH1 0x60 PUSH1 0x4 DUP1 SLOAD DUP1 PUSH1 0x20 MUL PUSH1 0x20 ADD PUSH1 0x40 MLOAD SWAP1 DUP2 ADD PUSH1 0x40 MSTORE DUP1 SWAP3 SWAP2 SWAP1 DUP2 DUP2 MSTORE PUSH1 0x20 ADD DUP3 DUP1 SLOAD DUP1 ISZERO PUSH2 0x15A4 JUMPI PUSH1 0x20 MUL DUP3 ADD SWAP2 SWAP1 PUSH1 0x0 MSTORE PUSH1 0x20 PUSH1 0x0 KECCAK256 SWAP1 JUMPDEST DUP2 PUSH1 0x0 SWAP1 SLOAD SWAP1 PUSH2 0x100 EXP SWAP1 DIV PUSH20 0xFFFFFFFFFFFFFFFFFFFFFFFFFFFFFFFFFFFFFFFF AND PUSH20 0xFFFFFFFFFFFFFFFFFFFFFFFFFFFFFFFFFFFFFFFF AND DUP2 MSTORE PUSH1 0x20 ADD SWAP1 PUSH1 0x1 ADD SWAP1 DUP1 DUP4 GT PUSH2 0x155A JUMPI JUMPDEST POP POP POP POP POP SWAP1 POP SWAP1 JUMP JUMPDEST PUSH1 0x0 DUP1 SWAP1 SLOAD SWAP1 PUSH2 0x100 EXP SWAP1 DIV PUSH20 0xFFFFFFFFFFFFFFFFFFFFFFFFFFFFFFFFFFFFFFFF AND PUSH20 0xFFFFFFFFFFFFFFFFFFFFFFFFFFFFFFFFFFFFFFFF AND CALLER PUSH20 0xFFFFFFFFFFFFFFFFFFFFFFFFFFFFFFFFFFFFFFFF AND EQ PUSH2 0x1653 JUMPI PUSH1 0x40 MLOAD PUSH32 0x8C379A000000000000000000000000000000000000000000000000000000000 DUP2 MSTORE PUSH1 0x4 ADD DUP1 DUP1 PUSH1 0x20 ADD DUP3 DUP2 SUB DUP3 MSTORE PUSH1 0x22 DUP2 MSTORE PUSH1 0x20 ADD DUP1 PUSH2 0x270D PUSH1 0x22 SWAP2 CODECOPY PUSH1 0x40 ADD SWAP2 POP POP PUSH1 0x40 MLOAD DUP1 SWAP2 SUB SWAP1 REVERT JUMPDEST DUP3 DUP6 MUL PUSH1 0x2 SLOAD LT PUSH2 0x173C JUMPI PUSH1 0x0 DUP1 SWAP1 POP JUMPDEST DUP4 DUP2 LT ISZERO PUSH2 0x173A JUMPI PUSH1 0x5 DUP7 DUP7 DUP6 DUP6 PUSH1 0x40 MLOAD PUSH2 0x167E SWAP1 PUSH2 0x1F99 JUMP JUMPDEST DUP1 DUP6 DUP2 MSTORE PUSH1 0x20 ADD DUP5 DUP2 MSTORE PUSH1 0x20 ADD DUP4 DUP2 MSTORE PUSH1 0x20 ADD DUP3 DUP2 MSTORE PUSH1 0x20 ADD SWAP5 POP POP POP POP POP PUSH1 0x40 MLOAD DUP1 SWAP2 SUB SWAP1 PUSH1 0x0 CREATE DUP1 ISZERO DUP1 ISZERO PUSH2 0x16B9 JUMPI RETURNDATASIZE PUSH1 0x0 DUP1 RETURNDATACOPY RETURNDATASIZE PUSH1 0x0 REVERT JUMPDEST POP SWAP1 DUP1 PUSH1 0x1 DUP2 SLOAD ADD DUP1 DUP3 SSTORE DUP1 SWAP2 POP POP SWAP1 PUSH1 0x1 DUP3 SUB SWAP1 PUSH1 0x0 MSTORE PUSH1 0x20 PUSH1 0x0 KECCAK256 ADD PUSH1 0x0 SWAP1 SWAP2 SWAP3 SWAP1 SWAP2 SWAP1 SWAP2 PUSH2 0x100 EXP DUP2 SLOAD DUP2 PUSH20 0xFFFFFFFFFFFFFFFFFFFFFFFFFFFFFFFFFFFFFFFF MUL NOT AND SWAP1 DUP4 PUSH20 0xFFFFFFFFFFFFFFFFFFFFFFFFFFFFFFFFFFFFFFFF AND MUL OR SWAP1 SSTORE POP POP DUP6 PUSH1 0x2 PUSH1 0x0 DUP3 DUP3 SLOAD SUB SWAP3 POP POP DUP2 SWAP1 SSTORE POP DUP1 DUP1 PUSH1 0x1 ADD SWAP2 POP POP PUSH2 0x1664 JUMP JUMPDEST POP JUMPDEST POP POP POP POP POP JUMP JUMPDEST PUSH1 0x0 PUSH1 0x2 SLOAD SWAP1 POP SWAP1 JUMP JUMPDEST PUSH1 0x4 DUP2 SWAP1 DUP1 PUSH1 0x1 DUP2 SLOAD ADD DUP1 DUP3 SSTORE DUP1 SWAP2 POP POP SWAP1 PUSH1 0x1 DUP3 SUB SWAP1 PUSH1 0x0 MSTORE PUSH1 0x20 PUSH1 0x0 KECCAK256 ADD PUSH1 0x0 SWAP1 SWAP2 SWAP3 SWAP1 SWAP2 SWAP1 SWAP2 PUSH2 0x100 EXP DUP2 SLOAD DUP2 PUSH20 0xFFFFFFFFFFFFFFFFFFFFFFFFFFFFFFFFFFFFFFFF MUL NOT AND SWAP1 DUP4 PUSH20 0xFFFFFFFFFFFFFFFFFFFFFFFFFFFFFFFFFFFFFFFF AND MUL OR SWAP1 SSTORE POP POP POP JUMP JUMPDEST PUSH1 0x60 PUSH1 0x8 PUSH1 0x0 DUP4 DUP2 MSTORE PUSH1 0x20 ADD SWAP1 DUP2 MSTORE PUSH1 0x20 ADD PUSH1 0x0 KECCAK256 DUP1 SLOAD DUP1 PUSH1 0x20 MUL PUSH1 0x20 ADD PUSH1 0x40 MLOAD SWAP1 DUP2 ADD PUSH1 0x40 MSTORE DUP1 SWAP3 SWAP2 SWAP1 DUP2 DUP2 MSTORE PUSH1 0x20 ADD DUP3 DUP1 SLOAD DUP1 ISZERO PUSH2 0x184B JUMPI PUSH1 0x20 MUL DUP3 ADD SWAP2 SWAP1 PUSH1 0x0 MSTORE PUSH1 0x20 PUSH1 0x0 KECCAK256 SWAP1 JUMPDEST DUP2 PUSH1 0x0 SWAP1 SLOAD SWAP1 PUSH2 0x100 EXP SWAP1 DIV PUSH20 0xFFFFFFFFFFFFFFFFFFFFFFFFFFFFFFFFFFFFFFFF AND PUSH20 0xFFFFFFFFFFFFFFFFFFFFFFFFFFFFFFFFFFFFFFFF AND DUP2 MSTORE PUSH1 0x20 ADD SWAP1 PUSH1 0x1 ADD SWAP1 DUP1 DUP4 GT PUSH2 0x1801 JUMPI JUMPDEST POP POP POP POP POP SWAP1 POP SWAP2 SWAP1 POP JUMP JUMPDEST PUSH1 0x0 DUP1 SWAP1 SLOAD SWAP1 PUSH2 0x100 EXP SWAP1 DIV PUSH20 0xFFFFFFFFFFFFFFFFFFFFFFFFFFFFFFFFFFFFFFFF AND PUSH20 0xFFFFFFFFFFFFFFFFFFFFFFFFFFFFFFFFFFFFFFFF AND CALLER PUSH20 0xFFFFFFFFFFFFFFFFFFFFFFFFFFFFFFFFFFFFFFFF AND EQ PUSH2 0x18FC JUMPI PUSH1 0x40 MLOAD PUSH32 0x8C379A000000000000000000000000000000000000000000000000000000000 DUP2 MSTORE PUSH1 0x4 ADD DUP1 DUP1 PUSH1 0x20 ADD DUP3 DUP2 SUB DUP3 MSTORE PUSH1 0x22 DUP2 MSTORE PUSH1 0x20 ADD DUP1 PUSH2 0x270D PUSH1 0x22 SWAP2 CODECOPY PUSH1 0x40 ADD SWAP2 POP POP PUSH1 0x40 MLOAD DUP1 SWAP2 SUB SWAP1 REVERT JUMPDEST PUSH1 0x5 DUP1 SLOAD SWAP1 POP DUP5 GT PUSH2 0x1EB7 JUMPI PUSH1 0x0 DUP6 SWAP1 POP PUSH1 0x0 PUSH1 0x1 PUSH1 0x5 DUP1 SLOAD SWAP1 POP SUB SWAP1 POP JUMPDEST DUP6 PUSH1 0x5 DUP1 SLOAD SWAP1 POP SUB DUP2 LT PUSH2 0x1E6C JUMPI PUSH1 0x0 PUSH1 0x5 DUP3 DUP2 SLOAD DUP2 LT PUSH2 0x1938 JUMPI INVALID JUMPDEST SWAP1 PUSH1 0x0 MSTORE PUSH1 0x20 PUSH1 0x0 KECCAK256 ADD PUSH1 0x0 SWAP1 SLOAD SWAP1 PUSH2 0x100 EXP SWAP1 DIV PUSH20 0xFFFFFFFFFFFFFFFFFFFFFFFFFFFFFFFFFFFFFFFF AND SWAP1 POP DUP1 PUSH20 0xFFFFFFFFFFFFFFFFFFFFFFFFFFFFFFFFFFFFFFFF AND PUSH4 0x16016AF8 DUP8 PUSH1 0x40 MLOAD DUP3 PUSH4 0xFFFFFFFF AND PUSH1 0xE0 SHL DUP2 MSTORE PUSH1 0x4 ADD DUP1 DUP3 DUP2 MSTORE PUSH1 0x20 ADD SWAP2 POP POP PUSH1 0x0 PUSH1 0x40 MLOAD DUP1 DUP4 SUB DUP2 PUSH1 0x0 DUP8 DUP1 EXTCODESIZE ISZERO DUP1 ISZERO PUSH2 0x19B8 JUMPI PUSH1 0x0 DUP1 REVERT JUMPDEST POP GAS CALL ISZERO DUP1 ISZERO PUSH2 0x19CC JUMPI RETURNDATASIZE PUSH1 0x0 DUP1 RETURNDATACOPY RETURNDATASIZE PUSH1 0x0 REVERT JUMPDEST POP POP POP POP DUP1 PUSH20 0xFFFFFFFFFFFFFFFFFFFFFFFFFFFFFFFFFFFFFFFF AND PUSH4 0xA9E966B7 PUSH1 0x2 PUSH1 0x40 MLOAD DUP3 PUSH4 0xFFFFFFFF AND PUSH1 0xE0 SHL DUP2 MSTORE PUSH1 0x4 ADD DUP1 DUP3 DUP2 MSTORE PUSH1 0x20 ADD SWAP2 POP POP PUSH1 0x0 PUSH1 0x40 MLOAD DUP1 DUP4 SUB DUP2 PUSH1 0x0 DUP8 DUP1 EXTCODESIZE ISZERO DUP1 ISZERO PUSH2 0x1A24 JUMPI PUSH1 0x0 DUP1 REVERT JUMPDEST POP GAS CALL ISZERO DUP1 ISZERO PUSH2 0x1A38 JUMPI RETURNDATASIZE PUSH1 0x0 DUP1 RETURNDATACOPY RETURNDATASIZE PUSH1 0x0 REVERT JUMPDEST POP POP POP POP DUP1 PUSH20 0xFFFFFFFFFFFFFFFFFFFFFFFFFFFFFFFFFFFFFFFF AND PUSH4 0xA8AC6A19 DUP6 PUSH1 0x40 MLOAD DUP3 PUSH4 0xFFFFFFFF AND PUSH1 0xE0 SHL DUP2 MSTORE PUSH1 0x4 ADD DUP1 DUP3 DUP2 MSTORE PUSH1 0x20 ADD SWAP2 POP POP PUSH1 0x0 PUSH1 0x40 MLOAD DUP1 DUP4 SUB DUP2 PUSH1 0x0 DUP8 DUP1 EXTCODESIZE ISZERO DUP1 ISZERO PUSH2 0x1A8F JUMPI PUSH1 0x0 DUP1 REVERT JUMPDEST POP GAS CALL ISZERO DUP1 ISZERO PUSH2 0x1AA3 JUMPI RETURNDATASIZE PUSH1 0x0 DUP1 RETURNDATACOPY RETURNDATASIZE PUSH1 0x0 REVERT JUMPDEST POP POP POP POP DUP1 PUSH20 0xFFFFFFFFFFFFFFFFFFFFFFFFFFFFFFFFFFFFFFFF AND PUSH4 0x6D86EE28 DUP3 PUSH20 0xFFFFFFFFFFFFFFFFFFFFFFFFFFFFFFFFFFFFFFFF AND PUSH4 0x893D20E8 PUSH1 0x40 MLOAD DUP2 PUSH4 0xFFFFFFFF AND PUSH1 0xE0 SHL DUP2 MSTORE PUSH1 0x4 ADD PUSH1 0x20 PUSH1 0x40 MLOAD DUP1 DUP4 SUB DUP2 DUP7 DUP1 EXTCODESIZE ISZERO DUP1 ISZERO PUSH2 0x1B09 JUMPI PUSH1 0x0 DUP1 REVERT JUMPDEST POP GAS STATICCALL ISZERO DUP1 ISZERO PUSH2 0x1B1D JUMPI RETURNDATASIZE PUSH1 0x0 DUP1 RETURNDATACOPY RETURNDATASIZE PUSH1 0x0 REVERT JUMPDEST POP POP POP POP PUSH1 0x40 MLOAD RETURNDATASIZE PUSH1 0x20 DUP2 LT ISZERO PUSH2 0x1B33 JUMPI PUSH1 0x0 DUP1 REVERT JUMPDEST DUP2 ADD SWAP1 DUP1 DUP1 MLOAD SWAP1 PUSH1 0x20 ADD SWAP1 SWAP3 SWAP2 SWAP1 POP POP POP PUSH1 0x40 MLOAD DUP3 PUSH4 0xFFFFFFFF AND PUSH1 0xE0 SHL DUP2 MSTORE PUSH1 0x4 ADD DUP1 DUP3 PUSH20 0xFFFFFFFFFFFFFFFFFFFFFFFFFFFFFFFFFFFFFFFF AND PUSH20 0xFFFFFFFFFFFFFFFFFFFFFFFFFFFFFFFFFFFFFFFF AND DUP2 MSTORE PUSH1 0x20 ADD SWAP2 POP POP PUSH1 0x0 PUSH1 0x40 MLOAD DUP1 DUP4 SUB DUP2 PUSH1 0x0 DUP8 DUP1 EXTCODESIZE ISZERO DUP1 ISZERO PUSH2 0x1BA6 JUMPI PUSH1 0x0 DUP1 REVERT JUMPDEST POP GAS CALL ISZERO DUP1 ISZERO PUSH2 0x1BBA JUMPI RETURNDATASIZE PUSH1 0x0 DUP1 RETURNDATACOPY RETURNDATASIZE PUSH1 0x0 REVERT JUMPDEST POP POP POP POP DUP1 PUSH20 0xFFFFFFFFFFFFFFFFFFFFFFFFFFFFFFFFFFFFFFFF AND PUSH4 0x13AF4035 DUP10 PUSH1 0x40 MLOAD DUP3 PUSH4 0xFFFFFFFF AND PUSH1 0xE0 SHL DUP2 MSTORE PUSH1 0x4 ADD DUP1 DUP3 PUSH20 0xFFFFFFFFFFFFFFFFFFFFFFFFFFFFFFFFFFFFFFFF AND PUSH20 0xFFFFFFFFFFFFFFFFFFFFFFFFFFFFFFFFFFFFFFFF AND DUP2 MSTORE PUSH1 0x20 ADD SWAP2 POP POP PUSH1 0x0 PUSH1 0x40 MLOAD DUP1 DUP4 SUB DUP2 PUSH1 0x0 DUP8 DUP1 EXTCODESIZE ISZERO DUP1 ISZERO PUSH2 0x1C3D JUMPI PUSH1 0x0 DUP1 REVERT JUMPDEST POP GAS CALL ISZERO DUP1 ISZERO PUSH2 0x1C51 JUMPI RETURNDATASIZE PUSH1 0x0 DUP1 RETURNDATACOPY RETURNDATASIZE PUSH1 0x0 REVERT JUMPDEST POP POP POP POP DUP3 PUSH20 0xFFFFFFFFFFFFFFFFFFFFFFFFFFFFFFFFFFFFFFFF AND PUSH4 0xC04E24C2 PUSH1 0x5 DUP5 DUP2 SLOAD DUP2 LT PUSH2 0x1C7E JUMPI INVALID JUMPDEST SWAP1 PUSH1 0x0 MSTORE PUSH1 0x20 PUSH1 0x0 KECCAK256 ADD PUSH1 0x0 SWAP1 SLOAD SWAP1 PUSH2 0x100 EXP SWAP1 DIV PUSH20 0xFFFFFFFFFFFFFFFFFFFFFFFFFFFFFFFFFFFFFFFF AND PUSH1 0x40 MLOAD DUP3 PUSH4 0xFFFFFFFF AND PUSH1 0xE0 SHL DUP2 MSTORE PUSH1 0x4 ADD DUP1 DUP3 PUSH20 0xFFFFFFFFFFFFFFFFFFFFFFFFFFFFFFFFFFFFFFFF AND PUSH20 0xFFFFFFFFFFFFFFFFFFFFFFFFFFFFFFFFFFFFFFFF AND DUP2 MSTORE PUSH1 0x20 ADD SWAP2 POP POP PUSH1 0x0 PUSH1 0x40 MLOAD DUP1 DUP4 SUB DUP2 PUSH1 0x0 DUP8 DUP1 EXTCODESIZE ISZERO DUP1 ISZERO PUSH2 0x1D0B JUMPI PUSH1 0x0 DUP1 REVERT JUMPDEST POP GAS CALL ISZERO DUP1 ISZERO PUSH2 0x1D1F JUMPI RETURNDATASIZE PUSH1 0x0 DUP1 RETURNDATACOPY RETURNDATASIZE PUSH1 0x0 REVERT JUMPDEST POP POP POP POP PUSH1 0x3 PUSH1 0x5 DUP4 DUP2 SLOAD DUP2 LT PUSH2 0x1D32 JUMPI INVALID JUMPDEST SWAP1 PUSH1 0x0 MSTORE PUSH1 0x20 PUSH1 0x0 KECCAK256 ADD PUSH1 0x0 SWAP1 SLOAD SWAP1 PUSH2 0x100 EXP SWAP1 DIV PUSH20 0xFFFFFFFFFFFFFFFFFFFFFFFFFFFFFFFFFFFFFFFF AND SWAP1 DUP1 PUSH1 0x1 DUP2 SLOAD ADD DUP1 DUP3 SSTORE DUP1 SWAP2 POP POP SWAP1 PUSH1 0x1 DUP3 SUB SWAP1 PUSH1 0x0 MSTORE PUSH1 0x20 PUSH1 0x0 KECCAK256 ADD PUSH1 0x0 SWAP1 SWAP2 SWAP3 SWAP1 SWAP2 SWAP1 SWAP2 PUSH2 0x100 EXP DUP2 SLOAD DUP2 PUSH20 0xFFFFFFFFFFFFFFFFFFFFFFFFFFFFFFFFFFFFFFFF MUL NOT AND SWAP1 DUP4 PUSH20 0xFFFFFFFFFFFFFFFFFFFFFFFFFFFFFFFFFFFFFFFF AND MUL OR SWAP1 SSTORE POP POP PUSH1 0x7 PUSH1 0x5 DUP4 DUP2 SLOAD DUP2 LT PUSH2 0x1DCF JUMPI INVALID JUMPDEST SWAP1 PUSH1 0x0 MSTORE PUSH1 0x20 PUSH1 0x0 KECCAK256 ADD PUSH1 0x0 SWAP1 SLOAD SWAP1 PUSH2 0x100 EXP SWAP1 DIV PUSH20 0xFFFFFFFFFFFFFFFFFFFFFFFFFFFFFFFFFFFFFFFF AND SWAP1 DUP1 PUSH1 0x1 DUP2 SLOAD ADD DUP1 DUP3 SSTORE DUP1 SWAP2 POP POP SWAP1 PUSH1 0x1 DUP3 SUB SWAP1 PUSH1 0x0 MSTORE PUSH1 0x20 PUSH1 0x0 KECCAK256 ADD PUSH1 0x0 SWAP1 SWAP2 SWAP3 SWAP1 SWAP2 SWAP1 SWAP2 PUSH2 0x100 EXP DUP2 SLOAD DUP2 PUSH20 0xFFFFFFFFFFFFFFFFFFFFFFFFFFFFFFFFFFFFFFFF MUL NOT AND SWAP1 DUP4 PUSH20 0xFFFFFFFFFFFFFFFFFFFFFFFFFFFFFFFFFFFFFFFF AND MUL OR SWAP1 SSTORE POP POP POP DUP1 DUP1 PUSH1 0x1 SWAP1 SUB SWAP2 POP POP PUSH2 0x191B JUMP JUMPDEST POP PUSH1 0x7 PUSH1 0x8 PUSH1 0x0 DUP6 DUP2 MSTORE PUSH1 0x20 ADD SWAP1 DUP2 MSTORE PUSH1 0x20 ADD PUSH1 0x0 KECCAK256 SWAP1 DUP1 SLOAD PUSH2 0x1E90 SWAP3 SWAP2 SWAP1 PUSH2 0x1FA6 JUMP JUMPDEST POP PUSH1 0x7 PUSH1 0x0 PUSH2 0x1E9F SWAP2 SWAP1 PUSH2 0x1F4C JUMP JUMPDEST DUP5 PUSH1 0x5 DUP1 SLOAD SWAP1 POP SUB PUSH1 0x5 DUP2 PUSH2 0x1EB4 SWAP2 SWAP1 PUSH2 0x1F6D JUMP JUMPDEST POP POP JUMPDEST POP POP POP POP POP JUMP JUMPDEST PUSH1 0x60 PUSH1 0x6 DUP1 SLOAD DUP1 PUSH1 0x20 MUL PUSH1 0x20 ADD PUSH1 0x40 MLOAD SWAP1 DUP2 ADD PUSH1 0x40 MSTORE DUP1 SWAP3 SWAP2 SWAP1 DUP2 DUP2 MSTORE PUSH1 0x20 ADD DUP3 DUP1 SLOAD DUP1 ISZERO PUSH2 0x1F42 JUMPI PUSH1 0x20 MUL DUP3 ADD SWAP2 SWAP1 PUSH1 0x0 MSTORE PUSH1 0x20 PUSH1 0x0 KECCAK256 SWAP1 JUMPDEST DUP2 PUSH1 0x0 SWAP1 SLOAD SWAP1 PUSH2 0x100 EXP SWAP1 DIV PUSH20 0xFFFFFFFFFFFFFFFFFFFFFFFFFFFFFFFFFFFFFFFF AND PUSH20 0xFFFFFFFFFFFFFFFFFFFFFFFFFFFFFFFFFFFFFFFF AND DUP2 MSTORE PUSH1 0x20 ADD SWAP1 PUSH1 0x1 ADD SWAP1 DUP1 DUP4 GT PUSH2 0x1EF8 JUMPI JUMPDEST POP POP POP POP POP SWAP1 POP SWAP1 JUMP JUMPDEST POP DUP1 SLOAD PUSH1 0x0 DUP3 SSTORE SWAP1 PUSH1 0x0 MSTORE PUSH1 0x20 PUSH1 0x0 KECCAK256 SWAP1 DUP2 ADD SWAP1 PUSH2 0x1F6A SWAP2 SWAP1 PUSH2 0x1FF8 JUMP JUMPDEST POP JUMP JUMPDEST DUP2 SLOAD DUP2 DUP4 SSTORE DUP2 DUP2 GT ISZERO PUSH2 0x1F94 JUMPI DUP2 DUP4 PUSH1 0x0 MSTORE PUSH1 0x20 PUSH1 0x0 KECCAK256 SWAP2 DUP3 ADD SWAP2 ADD PUSH2 0x1F93 SWAP2 SWAP1 PUSH2 0x1FF8 JUMP JUMPDEST JUMPDEST POP POP POP JUMP JUMPDEST PUSH2 0x6AC DUP1 PUSH2 0x2061 DUP4 CODECOPY ADD SWAP1 JUMP JUMPDEST DUP3 DUP1 SLOAD DUP3 DUP3 SSTORE SWAP1 PUSH1 0x0 MSTORE PUSH1 0x20 PUSH1 0x0 KECCAK256 SWAP1 DUP2 ADD SWAP3 DUP3 ISZERO PUSH2 0x1FE7 JUMPI PUSH1 0x0 MSTORE PUSH1 0x20 PUSH1 0x0 KECCAK256 SWAP2 DUP3 ADD JUMPDEST DUP3 DUP2 GT ISZERO PUSH2 0x1FE6 JUMPI DUP3 SLOAD DUP3 SSTORE SWAP2 PUSH1 0x1 ADD SWAP2 SWAP1 PUSH1 0x1 ADD SWAP1 PUSH2 0x1FCB JUMP JUMPDEST JUMPDEST POP SWAP1 POP PUSH2 0x1FF4 SWAP2 SWAP1 PUSH2 0x201D JUMP JUMPDEST POP SWAP1 JUMP JUMPDEST PUSH2 0x201A SWAP2 SWAP1 JUMPDEST DUP1 DUP3 GT ISZERO PUSH2 0x2016 JUMPI PUSH1 0x0 DUP2 PUSH1 0x0 SWAP1 SSTORE POP PUSH1 0x1 ADD PUSH2 0x1FFE JUMP JUMPDEST POP SWAP1 JUMP JUMPDEST SWAP1 JUMP JUMPDEST PUSH2 0x205D SWAP2 SWAP1 JUMPDEST DUP1 DUP3 GT ISZERO PUSH2 0x2059 JUMPI PUSH1 0x0 DUP2 DUP2 PUSH2 0x100 EXP DUP2 SLOAD SWAP1 PUSH20 0xFFFFFFFFFFFFFFFFFFFFFFFFFFFFFFFFFFFFFFFF MUL NOT AND SWAP1 SSTORE POP PUSH1 0x1 ADD PUSH2 0x2023 JUMP JUMPDEST POP SWAP1 JUMP JUMPDEST SWAP1 JUMP INVALID PUSH1 0x80 PUSH1 0x40 MSTORE PUSH1 0x1 PUSH1 0xA SSTORE CALLVALUE DUP1 ISZERO PUSH2 0x15 JUMPI PUSH1 0x0 DUP1 REVERT JUMPDEST POP PUSH1 0x40 MLOAD PUSH2 0x6AC CODESIZE SUB DUP1 PUSH2 0x6AC DUP4 CODECOPY DUP2 DUP2 ADD PUSH1 0x40 MSTORE PUSH1 0x80 DUP2 LT ISZERO PUSH2 0x38 JUMPI PUSH1 0x0 DUP1 REVERT JUMPDEST DUP2 ADD SWAP1 DUP1 DUP1 MLOAD SWAP1 PUSH1 0x20 ADD SWAP1 SWAP3 SWAP2 SWAP1 DUP1 MLOAD SWAP1 PUSH1 0x20 ADD SWAP1 SWAP3 SWAP2 SWAP1 DUP1 MLOAD SWAP1 PUSH1 0x20 ADD SWAP1 SWAP3 SWAP2 SWAP1 DUP1 MLOAD SWAP1 PUSH1 0x20 ADD SWAP1 SWAP3 SWAP2 SWAP1 POP POP POP DUP4 PUSH1 0x2 DUP2 SWAP1 SSTORE POP DUP3 PUSH1 0x3 DUP2 SWAP1 SSTORE POP CALLER PUSH1 0x0 DUP1 PUSH2 0x100 EXP DUP2 SLOAD DUP2 PUSH20 0xFFFFFFFFFFFFFFFFFFFFFFFFFFFFFFFFFFFFFFFF MUL NOT AND SWAP1 DUP4 PUSH20 0xFFFFFFFFFFFFFFFFFFFFFFFFFFFFFFFFFFFFFFFF AND MUL OR SWAP1 SSTORE POP DUP2 PUSH1 0x4 DUP2 SWAP1 SSTORE POP DUP1 PUSH1 0x5 DUP2 SWAP1 SSTORE POP PUSH1 0x0 PUSH1 0x9 DUP2 SWAP1 SSTORE POP PUSH1 0x1 PUSH1 0xA DUP2 SWAP1 SSTORE POP POP POP POP POP PUSH2 0x5C6 DUP1 PUSH2 0xE6 PUSH1 0x0 CODECOPY PUSH1 0x0 RETURN INVALID PUSH1 0x80 PUSH1 0x40 MSTORE CALLVALUE DUP1 ISZERO PUSH2 0x10 JUMPI PUSH1 0x0 DUP1 REVERT JUMPDEST POP PUSH1 0x4 CALLDATASIZE LT PUSH2 0x116 JUMPI PUSH1 0x0 CALLDATALOAD PUSH1 0xE0 SHR DUP1 PUSH4 0x988A6E0E GT PUSH2 0xA2 JUMPI DUP1 PUSH4 0xB295A00E GT PUSH2 0x71 JUMPI DUP1 PUSH4 0xB295A00E EQ PUSH2 0x385 JUMPI DUP1 PUSH4 0xB956064C EQ PUSH2 0x3A3 JUMPI DUP1 PUSH4 0xE28F863E EQ PUSH2 0x3C1 JUMPI DUP1 PUSH4 0xF1ACC453 EQ PUSH2 0x3DF JUMPI DUP1 PUSH4 0xFB61D1DC EQ PUSH2 0x3FD JUMPI PUSH2 0x116 JUMP JUMPDEST DUP1 PUSH4 0x988A6E0E EQ PUSH2 0x2C1 JUMPI DUP1 PUSH4 0xA8AC6A19 EQ PUSH2 0x30B JUMPI DUP1 PUSH4 0xA9E966B7 EQ PUSH2 0x339 JUMPI DUP1 PUSH4 0xB1356488 EQ PUSH2 0x367 JUMPI PUSH2 0x116 JUMP JUMPDEST DUP1 PUSH4 0x54DA0114 GT PUSH2 0xE9 JUMPI DUP1 PUSH4 0x54DA0114 EQ PUSH2 0x1C9 JUMPI DUP1 PUSH4 0x6D86EE28 EQ PUSH2 0x1F7 JUMPI DUP1 PUSH4 0x782CA44F EQ PUSH2 0x23B JUMPI DUP1 PUSH4 0x78F305C6 EQ PUSH2 0x259 JUMPI DUP1 PUSH4 0x893D20E8 EQ PUSH2 0x277 JUMPI PUSH2 0x116 JUMP JUMPDEST DUP1 PUSH4 0x13AF4035 EQ PUSH2 0x11B JUMPI DUP1 PUSH4 0x16016AF8 EQ PUSH2 0x15F JUMPI DUP1 PUSH4 0x1865C57D EQ PUSH2 0x18D JUMPI DUP1 PUSH4 0x20965255 EQ PUSH2 0x1AB JUMPI JUMPDEST PUSH1 0x0 DUP1 REVERT JUMPDEST PUSH2 0x15D PUSH1 0x4 DUP1 CALLDATASIZE SUB PUSH1 0x20 DUP2 LT ISZERO PUSH2 0x131 JUMPI PUSH1 0x0 DUP1 REVERT JUMPDEST DUP2 ADD SWAP1 DUP1 DUP1 CALLDATALOAD PUSH20 0xFFFFFFFFFFFFFFFFFFFFFFFFFFFFFFFFFFFFFFFF AND SWAP1 PUSH1 0x20 ADD SWAP1 SWAP3 SWAP2 SWAP1 POP POP POP PUSH2 0x42B JUMP JUMPDEST STOP JUMPDEST PUSH2 0x18B PUSH1 0x4 DUP1 CALLDATASIZE SUB PUSH1 0x20 DUP2 LT ISZERO PUSH2 0x175 JUMPI PUSH1 0x0 DUP1 REVERT JUMPDEST DUP2 ADD SWAP1 DUP1 DUP1 CALLDATALOAD SWAP1 PUSH1 0x20 ADD SWAP1 SWAP3 SWAP2 SWAP1 POP POP POP PUSH2 0x46E JUMP JUMPDEST STOP JUMPDEST PUSH2 0x195 PUSH2 0x478 JUMP JUMPDEST PUSH1 0x40 MLOAD DUP1 DUP3 DUP2 MSTORE PUSH1 0x20 ADD SWAP2 POP POP PUSH1 0x40 MLOAD DUP1 SWAP2 SUB SWAP1 RETURN JUMPDEST PUSH2 0x1B3 PUSH2 0x482 JUMP JUMPDEST PUSH1 0x40 MLOAD DUP1 DUP3 DUP2 MSTORE PUSH1 0x20 ADD SWAP2 POP POP PUSH1 0x40 MLOAD DUP1 SWAP2 SUB SWAP1 RETURN JUMPDEST PUSH2 0x1F5 PUSH1 0x4 DUP1 CALLDATASIZE SUB PUSH1 0x20 DUP2 LT ISZERO PUSH2 0x1DF JUMPI PUSH1 0x0 DUP1 REVERT JUMPDEST DUP2 ADD SWAP1 DUP1 DUP1 CALLDATALOAD SWAP1 PUSH1 0x20 ADD SWAP1 SWAP3 SWAP2 SWAP1 POP POP POP PUSH2 0x48C JUMP JUMPDEST STOP JUMPDEST PUSH2 0x239 PUSH1 0x4 DUP1 CALLDATASIZE SUB PUSH1 0x20 DUP2 LT ISZERO PUSH2 0x20D JUMPI PUSH1 0x0 DUP1 REVERT JUMPDEST DUP2 ADD SWAP1 DUP1 DUP1 CALLDATALOAD PUSH20 0xFFFFFFFFFFFFFFFFFFFFFFFFFFFFFFFFFFFFFFFF AND SWAP1 PUSH1 0x20 ADD SWAP1 SWAP3 SWAP2 SWAP1 POP POP POP PUSH2 0x496 JUMP JUMPDEST STOP JUMPDEST PUSH2 0x243 PUSH2 0x4DA JUMP JUMPDEST PUSH1 0x40 MLOAD DUP1 DUP3 DUP2 MSTORE PUSH1 0x20 ADD SWAP2 POP POP PUSH1 0x40 MLOAD DUP1 SWAP2 SUB SWAP1 RETURN JUMPDEST PUSH2 0x261 PUSH2 0x4E4 JUMP JUMPDEST PUSH1 0x40 MLOAD DUP1 DUP3 DUP2 MSTORE PUSH1 0x20 ADD SWAP2 POP POP PUSH1 0x40 MLOAD DUP1 SWAP2 SUB SWAP1 RETURN JUMPDEST PUSH2 0x27F PUSH2 0x4EE JUMP JUMPDEST PUSH1 0x40 MLOAD DUP1 DUP3 PUSH20 0xFFFFFFFFFFFFFFFFFFFFFFFFFFFFFFFFFFFFFFFF AND PUSH20 0xFFFFFFFFFFFFFFFFFFFFFFFFFFFFFFFFFFFFFFFF AND DUP2 MSTORE PUSH1 0x20 ADD SWAP2 POP POP PUSH1 0x40 MLOAD DUP1 SWAP2 SUB SWAP1 RETURN JUMPDEST PUSH2 0x2C9 PUSH2 0x517 JUMP JUMPDEST PUSH1 0x40 MLOAD DUP1 DUP3 PUSH20 0xFFFFFFFFFFFFFFFFFFFFFFFFFFFFFFFFFFFFFFFF AND PUSH20 0xFFFFFFFFFFFFFFFFFFFFFFFFFFFFFFFFFFFFFFFF AND DUP2 MSTORE PUSH1 0x20 ADD SWAP2 POP POP PUSH1 0x40 MLOAD DUP1 SWAP2 SUB SWAP1 RETURN JUMPDEST PUSH2 0x337 PUSH1 0x4 DUP1 CALLDATASIZE SUB PUSH1 0x20 DUP2 LT ISZERO PUSH2 0x321 JUMPI PUSH1 0x0 DUP1 REVERT JUMPDEST DUP2 ADD SWAP1 DUP1 DUP1 CALLDATALOAD SWAP1 PUSH1 0x20 ADD SWAP1 SWAP3 SWAP2 SWAP1 POP POP POP PUSH2 0x541 JUMP JUMPDEST STOP JUMPDEST PUSH2 0x365 PUSH1 0x4 DUP1 CALLDATASIZE SUB PUSH1 0x20 DUP2 LT ISZERO PUSH2 0x34F JUMPI PUSH1 0x0 DUP1 REVERT JUMPDEST DUP2 ADD SWAP1 DUP1 DUP1 CALLDATALOAD SWAP1 PUSH1 0x20 ADD SWAP1 SWAP3 SWAP2 SWAP1 POP POP POP PUSH2 0x54B JUMP JUMPDEST STOP JUMPDEST PUSH2 0x36F PUSH2 0x555 JUMP JUMPDEST PUSH1 0x40 MLOAD DUP1 DUP3 DUP2 MSTORE PUSH1 0x20 ADD SWAP2 POP POP PUSH1 0x40 MLOAD DUP1 SWAP2 SUB SWAP1 RETURN JUMPDEST PUSH2 0x38D PUSH2 0x55F JUMP JUMPDEST PUSH1 0x40 MLOAD DUP1 DUP3 DUP2 MSTORE PUSH1 0x20 ADD SWAP2 POP POP PUSH1 0x40 MLOAD DUP1 SWAP2 SUB SWAP1 RETURN JUMPDEST PUSH2 0x3AB PUSH2 0x569 JUMP JUMPDEST PUSH1 0x40 MLOAD DUP1 DUP3 DUP2 MSTORE PUSH1 0x20 ADD SWAP2 POP POP PUSH1 0x40 MLOAD DUP1 SWAP2 SUB SWAP1 RETURN JUMPDEST PUSH2 0x3C9 PUSH2 0x573 JUMP JUMPDEST PUSH1 0x40 MLOAD DUP1 DUP3 DUP2 MSTORE PUSH1 0x20 ADD SWAP2 POP POP PUSH1 0x40 MLOAD DUP1 SWAP2 SUB SWAP1 RETURN JUMPDEST PUSH2 0x3E7 PUSH2 0x57D JUMP JUMPDEST PUSH1 0x40 MLOAD DUP1 DUP3 DUP2 MSTORE PUSH1 0x20 ADD SWAP2 POP POP PUSH1 0x40 MLOAD DUP1 SWAP2 SUB SWAP1 RETURN JUMPDEST PUSH2 0x429 PUSH1 0x4 DUP1 CALLDATASIZE SUB PUSH1 0x20 DUP2 LT ISZERO PUSH2 0x413 JUMPI PUSH1 0x0 DUP1 REVERT JUMPDEST DUP2 ADD SWAP1 DUP1 DUP1 CALLDATALOAD SWAP1 PUSH1 0x20 ADD SWAP1 SWAP3 SWAP2 SWAP1 POP POP POP PUSH2 0x587 JUMP JUMPDEST STOP JUMPDEST DUP1 PUSH1 0x0 DUP1 PUSH2 0x100 EXP DUP2 SLOAD DUP2 PUSH20 0xFFFFFFFFFFFFFFFFFFFFFFFFFFFFFFFFFFFFFFFF MUL NOT AND SWAP1 DUP4 PUSH20 0xFFFFFFFFFFFFFFFFFFFFFFFFFFFFFFFFFFFFFFFF AND MUL OR SWAP1 SSTORE POP POP JUMP JUMPDEST DUP1 PUSH1 0x7 DUP2 SWAP1 SSTORE POP POP JUMP JUMPDEST PUSH1 0x0 PUSH1 0xA SLOAD SWAP1 POP SWAP1 JUMP JUMPDEST PUSH1 0x0 PUSH1 0x2 SLOAD SWAP1 POP SWAP1 JUMP JUMPDEST DUP1 PUSH1 0x8 DUP2 SWAP1 SSTORE POP POP JUMP JUMPDEST DUP1 PUSH1 0x1 PUSH1 0x0 PUSH2 0x100 EXP DUP2 SLOAD DUP2 PUSH20 0xFFFFFFFFFFFFFFFFFFFFFFFFFFFFFFFFFFFFFFFF MUL NOT AND SWAP1 DUP4 PUSH20 0xFFFFFFFFFFFFFFFFFFFFFFFFFFFFFFFFFFFFFFFF AND MUL OR SWAP1 SSTORE POP POP JUMP JUMPDEST PUSH1 0x0 PUSH1 0x9 SLOAD SWAP1 POP SWAP1 JUMP JUMPDEST PUSH1 0x0 PUSH1 0x4 SLOAD SWAP1 POP SWAP1 JUMP JUMPDEST PUSH1 0x0 DUP1 PUSH1 0x0 SWAP1 SLOAD SWAP1 PUSH2 0x100 EXP SWAP1 DIV PUSH20 0xFFFFFFFFFFFFFFFFFFFFFFFFFFFFFFFFFFFFFFFF AND SWAP1 POP SWAP1 JUMP JUMPDEST PUSH1 0x0 PUSH1 0x1 PUSH1 0x0 SWAP1 SLOAD SWAP1 PUSH2 0x100 EXP SWAP1 DIV PUSH20 0xFFFFFFFFFFFFFFFFFFFFFFFFFFFFFFFFFFFFFFFF AND SWAP1 POP SWAP1 JUMP JUMPDEST DUP1 PUSH1 0x6 DUP2 SWAP1 SSTORE POP POP JUMP JUMPDEST DUP1 PUSH1 0xA DUP2 SWAP1 SSTORE POP POP JUMP JUMPDEST PUSH1 0x0 PUSH1 0x5 SLOAD SWAP1 POP SWAP1 JUMP JUMPDEST PUSH1 0x0 PUSH1 0x3 SLOAD SWAP1 POP SWAP1 JUMP JUMPDEST PUSH1 0x0 PUSH1 0x8 SLOAD SWAP1 POP SWAP1 JUMP JUMPDEST PUSH1 0x0 PUSH1 0x6 SLOAD SWAP1 POP SWAP1 JUMP JUMPDEST PUSH1 0x0 PUSH1 0x7 SLOAD SWAP1 POP SWAP1 JUMP JUMPDEST DUP1 PUSH1 0x9 DUP2 SWAP1 SSTORE POP POP JUMP INVALID LOG2 PUSH6 0x627A7A723158 KECCAK256 0x24 CODECOPY 0xD9 DUP5 PUSH14 0x8882AC613F69D7D75ADA3CC5504F 0x1E 0xC SELFBALANCE BALANCE SAR PUSH29 0x969852845BF72364736F6C634300051100324F6E6C79206F776E657220 PUSH4 0x616E2063 PUSH2 0x6C6C KECCAK256 PUSH21 0x6869732066756E6374696F6E2E4F6E6C792042616E PUSH12 0x65722063616E2063616C6C20 PUSH21 0x6869732066756E6374696F6E2EA265627A7A723158 KECCAK256 MLOAD PUSH14 0x6F5E9139F2305E76ED459CF2F9D8 PUSH18 0xD8C13B31CE723B44CD11CFD2458BBB64736F PUSH13 0x63430005110032000000000000 "
				},
				"gasEstimates": {
					"creation": {
						"codeDepositCost": "2023600",
						"executionCost": "infinite",
						"totalCost": "infinite"
					},
					"external": {
						"addToUsedCoupons(address)": "42043",
						"confirmCouponPay(uint256,bytes32,address,address)": "infinite",
						"getCorrespondingGrant(bytes32)": "infinite",
						"getHistoryCoupons()": "infinite",
						"getNotGivenCoupons()": "infinite",
						"getOwner()": "1128",
						"getSettlementBalance()": "1080",
						"getUnusedCoupons()": "infinite",
						"getUsedCoupons()": "infinite",
						"grant(address,uint256,bytes32,bytes32,uint256)": "infinite",
						"issueCoupon(uint256,uint256,uint256,bytes32,bytes32)": "infinite",
						"settlementApprove(uint256)": "infinite",
						"settlementWithdraw()": "infinite",
						"terminateCoupon(bytes32)": "infinite"
					}
				},
				"methodIdentifiers": {
					"addToUsedCoupons(address)": "d3015d37",
					"confirmCouponPay(uint256,bytes32,address,address)": "7423fd04",
					"getCorrespondingGrant(bytes32)": "daafe6a5",
					"getHistoryCoupons()": "f1ae6f87",
					"getNotGivenCoupons()": "97bb6bb5",
					"getOwner()": "893d20e8",
					"getSettlementBalance()": "c38369c0",
					"getUnusedCoupons()": "05a3f9cc",
					"getUsedCoupons()": "a980d7c3",
					"grant(address,uint256,bytes32,bytes32,uint256)": "dfb83729",
					"issueCoupon(uint256,uint256,uint256,bytes32,bytes32)": "bddab2cc",
					"settlementApprove(uint256)": "54b7349e",
					"settlementWithdraw()": "5134dcbd",
					"terminateCoupon(bytes32)": "69a8e6bf"
				}
			},
			"storageLayout": {
				"storage": [
					{
						"astId": 147,
						"contract": "Bank.sol:Merchant",
						"label": "owner",
						"offset": 0,
						"slot": "0",
						"type": "t_address"
					},
					{
						"astId": 149,
						"contract": "Bank.sol:Merchant",
						"label": "banker",
						"offset": 0,
						"slot": "1",
						"type": "t_address"
					},
					{
						"astId": 151,
						"contract": "Bank.sol:Merchant",
						"label": "settlementBalance",
						"offset": 0,
						"slot": "2",
						"type": "t_uint256"
					},
					{
						"astId": 154,
						"contract": "Bank.sol:Merchant",
						"label": "unusedCoupons",
						"offset": 0,
						"slot": "3",
						"type": "t_array(t_address)dyn_storage"
					},
					{
						"astId": 157,
						"contract": "Bank.sol:Merchant",
						"label": "usedCoupons",
						"offset": 0,
						"slot": "4",
						"type": "t_array(t_address)dyn_storage"
					},
					{
						"astId": 160,
						"contract": "Bank.sol:Merchant",
						"label": "notGivenCoupons",
						"offset": 0,
						"slot": "5",
						"type": "t_array(t_address)dyn_storage"
					},
					{
						"astId": 163,
						"contract": "Bank.sol:Merchant",
						"label": "historyCoupons",
						"offset": 0,
						"slot": "6",
						"type": "t_array(t_address)dyn_storage"
					},
					{
						"astId": 166,
						"contract": "Bank.sol:Merchant",
						"label": "curGrant",
						"offset": 0,
						"slot": "7",
						"type": "t_array(t_address)dyn_storage"
					},
					{
						"astId": 171,
						"contract": "Bank.sol:Merchant",
						"label": "grantPair",
						"offset": 0,
						"slot": "8",
						"type": "t_mapping(t_bytes32,t_array(t_address)dyn_storage)"
					}
				],
				"types": {
					"t_address": {
						"encoding": "inplace",
						"label": "address",
						"numberOfBytes": "20"
					},
					"t_array(t_address)dyn_storage": {
						"base": "t_address",
						"encoding": "dynamic_array",
						"label": "address[]",
						"numberOfBytes": "32"
					},
					"t_bytes32": {
						"encoding": "inplace",
						"label": "bytes32",
						"numberOfBytes": "32"
					},
					"t_mapping(t_bytes32,t_array(t_address)dyn_storage)": {
						"encoding": "mapping",
						"key": "t_bytes32",
						"label": "mapping(bytes32 => address[])",
						"numberOfBytes": "32",
						"value": "t_array(t_address)dyn_storage"
					},
					"t_uint256": {
						"encoding": "inplace",
						"label": "uint256",
						"numberOfBytes": "32"
					}
				}
			},
			"userdoc": {
				"methods": {}
			}
		}
	}
}