{
	"Bank.sol": {
		"Coupon": {
			"abi": [
				{
					"inputs": [
						{
							"internalType": "uint256",
							"name": "_value",
							"type": "uint256"
						},
						{
							"internalType": "uint256",
							"name": "_limit",
							"type": "uint256"
						},
						{
							"internalType": "bytes32",
							"name": "_startDate",
							"type": "bytes32"
						},
						{
							"internalType": "bytes32",
							"name": "_endDate",
							"type": "bytes32"
						}
					],
					"payable": false,
					"stateMutability": "nonpayable",
					"type": "constructor"
				},
				{
					"constant": true,
					"inputs": [],
					"name": "getConsumeDate",
					"outputs": [
						{
							"internalType": "bytes32",
							"name": "",
							"type": "bytes32"
						}
					],
					"payable": false,
					"stateMutability": "view",
					"type": "function"
				},
				{
					"constant": true,
					"inputs": [],
					"name": "getConsumeValue",
					"outputs": [
						{
							"internalType": "uint256",
							"name": "",
							"type": "uint256"
						}
					],
					"payable": false,
					"stateMutability": "view",
					"type": "function"
				},
				{
					"constant": true,
					"inputs": [],
					"name": "getEndDate",
					"outputs": [
						{
							"internalType": "bytes32",
							"name": "",
							"type": "bytes32"
						}
					],
					"payable": false,
					"stateMutability": "view",
					"type": "function"
				},
				{
					"constant": true,
					"inputs": [],
					"name": "getGranter",
					"outputs": [
						{
							"internalType": "address",
							"name": "",
							"type": "address"
						}
					],
					"payable": false,
					"stateMutability": "view",
					"type": "function"
				},
				{
					"constant": true,
					"inputs": [],
					"name": "getLimit",
					"outputs": [
						{
							"internalType": "uint256",
							"name": "",
							"type": "uint256"
						}
					],
					"payable": false,
					"stateMutability": "view",
					"type": "function"
				},
				{
					"constant": true,
					"inputs": [],
					"name": "getObtainDate",
					"outputs": [
						{
							"internalType": "bytes32",
							"name": "",
							"type": "bytes32"
						}
					],
					"payable": false,
					"stateMutability": "view",
					"type": "function"
				},
				{
					"constant": true,
					"inputs": [],
					"name": "getObtainValue",
					"outputs": [
						{
							"internalType": "uint256",
							"name": "",
							"type": "uint256"
						}
					],
					"payable": false,
					"stateMutability": "view",
					"type": "function"
				},
				{
					"constant": true,
					"inputs": [],
					"name": "getOwner",
					"outputs": [
						{
							"internalType": "address",
							"name": "",
							"type": "address"
						}
					],
					"payable": false,
					"stateMutability": "view",
					"type": "function"
				},
				{
					"constant": true,
					"inputs": [],
					"name": "getStartDate",
					"outputs": [
						{
							"internalType": "bytes32",
							"name": "",
							"type": "bytes32"
						}
					],
					"payable": false,
					"stateMutability": "view",
					"type": "function"
				},
				{
					"constant": true,
					"inputs": [],
					"name": "getState",
					"outputs": [
						{
							"internalType": "uint256",
							"name": "",
							"type": "uint256"
						}
					],
					"payable": false,
					"stateMutability": "view",
					"type": "function"
				},
				{
					"constant": true,
					"inputs": [],
					"name": "getValue",
					"outputs": [
						{
							"internalType": "uint256",
							"name": "",
							"type": "uint256"
						}
					],
					"payable": false,
					"stateMutability": "view",
					"type": "function"
				},
				{
					"constant": false,
					"inputs": [
						{
							"internalType": "bytes32",
							"name": "_date",
							"type": "bytes32"
						}
					],
					"name": "setConsumeDate",
					"outputs": [],
					"payable": false,
					"stateMutability": "nonpayable",
					"type": "function"
				},
				{
					"constant": false,
					"inputs": [
						{
							"internalType": "uint256",
							"name": "_value",
							"type": "uint256"
						}
					],
					"name": "setConsumeValue",
					"outputs": [],
					"payable": false,
					"stateMutability": "nonpayable",
					"type": "function"
				},
				{
					"constant": false,
					"inputs": [
						{
							"internalType": "address",
							"name": "_granter",
							"type": "address"
						}
					],
					"name": "setGranter",
					"outputs": [],
					"payable": false,
					"stateMutability": "nonpayable",
					"type": "function"
				},
				{
					"constant": false,
					"inputs": [
						{
							"internalType": "bytes32",
							"name": "date",
							"type": "bytes32"
						}
					],
					"name": "setObtainDate",
					"outputs": [],
					"payable": false,
					"stateMutability": "nonpayable",
					"type": "function"
				},
				{
					"constant": false,
					"inputs": [
						{
							"internalType": "uint256",
							"name": "_obtainValue",
							"type": "uint256"
						}
					],
					"name": "setObtainValue",
					"outputs": [],
					"payable": false,
					"stateMutability": "nonpayable",
					"type": "function"
				},
				{
					"constant": false,
					"inputs": [
						{
							"internalType": "address",
							"name": "addr",
							"type": "address"
						}
					],
					"name": "setOwner",
					"outputs": [],
					"payable": false,
					"stateMutability": "nonpayable",
					"type": "function"
				},
				{
					"constant": false,
					"inputs": [
						{
							"internalType": "uint256",
							"name": "_state",
							"type": "uint256"
						}
					],
					"name": "setState",
					"outputs": [],
					"payable": false,
					"stateMutability": "nonpayable",
					"type": "function"
				}
			],
			"devdoc": {
				"methods": {}
			},
			"evm": {
				"assembly": "    /* \"Bank.sol\":8226:10376  contract Coupon {\r... */\n  mstore(0x40, 0x80)\n    /* \"Bank.sol\":8482:8483  1 */\n  0x01\n    /* \"Bank.sol\":8469:8483  uint state = 1 */\n  0x0a\n  sstore\n    /* \"Bank.sol\":8490:8769  constructor(uint _value, uint _limit, bytes32 _startDate, bytes32 _endDate) public {\r... */\n  callvalue\n    /* \"--CODEGEN--\":8:17   */\n  dup1\n    /* \"--CODEGEN--\":5:7   */\n  iszero\n  tag_1\n  jumpi\n    /* \"--CODEGEN--\":30:31   */\n  0x00\n    /* \"--CODEGEN--\":27:28   */\n  dup1\n    /* \"--CODEGEN--\":20:32   */\n  revert\n    /* \"--CODEGEN--\":5:7   */\ntag_1:\n    /* \"Bank.sol\":8490:8769  constructor(uint _value, uint _limit, bytes32 _startDate, bytes32 _endDate) public {\r... */\n  pop\n  mload(0x40)\n  sub(codesize, bytecodeSize)\n  dup1\n  bytecodeSize\n  dup4\n  codecopy\n  dup2\n  dup2\n  add\n  0x40\n  mstore\n    /* \"--CODEGEN--\":13:16   */\n  0x80\n    /* \"--CODEGEN--\":8:11   */\n  dup2\n    /* \"--CODEGEN--\":5:17   */\n  lt\n    /* \"--CODEGEN--\":2:4   */\n  iszero\n  tag_2\n  jumpi\n    /* \"--CODEGEN--\":30:31   */\n  0x00\n    /* \"--CODEGEN--\":27:28   */\n  dup1\n    /* \"--CODEGEN--\":20:32   */\n  revert\n    /* \"--CODEGEN--\":2:4   */\ntag_2:\n    /* \"Bank.sol\":8490:8769  constructor(uint _value, uint _limit, bytes32 _startDate, bytes32 _endDate) public {\r... */\n  dup2\n  add\n  swap1\n  dup1\n  dup1\n  mload\n  swap1\n  0x20\n  add\n  swap1\n  swap3\n  swap2\n  swap1\n  dup1\n  mload\n  swap1\n  0x20\n  add\n  swap1\n  swap3\n  swap2\n  swap1\n  dup1\n  mload\n  swap1\n  0x20\n  add\n  swap1\n  swap3\n  swap2\n  swap1\n  dup1\n  mload\n  swap1\n  0x20\n  add\n  swap1\n  swap3\n  swap2\n  swap1\n  pop\n  pop\n  pop\n    /* \"Bank.sol\":8592:8598  _value */\n  dup4\n    /* \"Bank.sol\":8584:8589  value */\n  0x02\n    /* \"Bank.sol\":8584:8598  value = _value */\n  dup2\n  swap1\n  sstore\n  pop\n    /* \"Bank.sol\":8617:8623  _limit */\n  dup3\n    /* \"Bank.sol\":8609:8614  limit */\n  0x03\n    /* \"Bank.sol\":8609:8623  limit = _limit */\n  dup2\n  swap1\n  sstore\n  pop\n    /* \"Bank.sol\":8642:8652  msg.sender */\n  caller\n    /* \"Bank.sol\":8634:8639  owner */\n  0x00\n  dup1\n    /* \"Bank.sol\":8634:8652  owner = msg.sender */\n  0x0100\n  exp\n  dup2\n  sload\n  dup2\n  0xffffffffffffffffffffffffffffffffffffffff\n  mul\n  not\n  and\n  swap1\n  dup4\n  0xffffffffffffffffffffffffffffffffffffffff\n  and\n  mul\n  or\n  swap1\n  sstore\n  pop\n    /* \"Bank.sol\":8675:8685  _startDate */\n  dup2\n    /* \"Bank.sol\":8663:8672  startDate */\n  0x04\n    /* \"Bank.sol\":8663:8685  startDate = _startDate */\n  dup2\n  swap1\n  sstore\n  pop\n    /* \"Bank.sol\":8706:8714  _endDate */\n  dup1\n    /* \"Bank.sol\":8696:8703  endDate */\n  0x05\n    /* \"Bank.sol\":8696:8714  endDate = _endDate */\n  dup2\n  swap1\n  sstore\n  pop\n    /* \"Bank.sol\":8740:8741  0 */\n  0x00\n    /* \"Bank.sol\":8725:8737  consumeValue */\n  0x09\n    /* \"Bank.sol\":8725:8741  consumeValue = 0 */\n  dup2\n  swap1\n  sstore\n  pop\n    /* \"Bank.sol\":8760:8761  1 */\n  0x01\n    /* \"Bank.sol\":8752:8757  state */\n  0x0a\n    /* \"Bank.sol\":8752:8761  state = 1 */\n  dup2\n  swap1\n  sstore\n  pop\n    /* \"Bank.sol\":8490:8769  constructor(uint _value, uint _limit, bytes32 _startDate, bytes32 _endDate) public {\r... */\n  pop\n  pop\n  pop\n  pop\n    /* \"Bank.sol\":8226:10376  contract Coupon {\r... */\n  dataSize(sub_0)\n  dup1\n  dataOffset(sub_0)\n  0x00\n  codecopy\n  0x00\n  return\nstop\n\nsub_0: assembly {\n        /* \"Bank.sol\":8226:10376  contract Coupon {\r... */\n      mstore(0x40, 0x80)\n      callvalue\n        /* \"--CODEGEN--\":8:17   */\n      dup1\n        /* \"--CODEGEN--\":5:7   */\n      iszero\n      tag_1\n      jumpi\n        /* \"--CODEGEN--\":30:31   */\n      0x00\n        /* \"--CODEGEN--\":27:28   */\n      dup1\n        /* \"--CODEGEN--\":20:32   */\n      revert\n        /* \"--CODEGEN--\":5:7   */\n    tag_1:\n        /* \"Bank.sol\":8226:10376  contract Coupon {\r... */\n      pop\n      jumpi(tag_2, lt(calldatasize, 0x04))\n      shr(0xe0, calldataload(0x00))\n      dup1\n      0x988a6e0e\n      gt\n      tag_21\n      jumpi\n      dup1\n      0xb295a00e\n      gt\n      tag_22\n      jumpi\n      dup1\n      0xb295a00e\n      eq\n      tag_16\n      jumpi\n      dup1\n      0xb956064c\n      eq\n      tag_17\n      jumpi\n      dup1\n      0xe28f863e\n      eq\n      tag_18\n      jumpi\n      dup1\n      0xf1acc453\n      eq\n      tag_19\n      jumpi\n      dup1\n      0xfb61d1dc\n      eq\n      tag_20\n      jumpi\n      jump(tag_2)\n    tag_22:\n      dup1\n      0x988a6e0e\n      eq\n      tag_12\n      jumpi\n      dup1\n      0xa8ac6a19\n      eq\n      tag_13\n      jumpi\n      dup1\n      0xa9e966b7\n      eq\n      tag_14\n      jumpi\n      dup1\n      0xb1356488\n      eq\n      tag_15\n      jumpi\n      jump(tag_2)\n    tag_21:\n      dup1\n      0x54da0114\n      gt\n      tag_23\n      jumpi\n      dup1\n      0x54da0114\n      eq\n      tag_7\n      jumpi\n      dup1\n      0x6d86ee28\n      eq\n      tag_8\n      jumpi\n      dup1\n      0x782ca44f\n      eq\n      tag_9\n      jumpi\n      dup1\n      0x78f305c6\n      eq\n      tag_10\n      jumpi\n      dup1\n      0x893d20e8\n      eq\n      tag_11\n      jumpi\n      jump(tag_2)\n    tag_23:\n      dup1\n      0x13af4035\n      eq\n      tag_3\n      jumpi\n      dup1\n      0x16016af8\n      eq\n      tag_4\n      jumpi\n      dup1\n      0x1865c57d\n      eq\n      tag_5\n      jumpi\n      dup1\n      0x20965255\n      eq\n      tag_6\n      jumpi\n    tag_2:\n      0x00\n      dup1\n      revert\n        /* \"Bank.sol\":8775:8845  function setOwner(address addr) public {\r... */\n    tag_3:\n      tag_24\n      0x04\n      dup1\n      calldatasize\n      sub\n        /* \"--CODEGEN--\":13:15   */\n      0x20\n        /* \"--CODEGEN--\":8:11   */\n      dup2\n        /* \"--CODEGEN--\":5:16   */\n      lt\n        /* \"--CODEGEN--\":2:4   */\n      iszero\n      tag_25\n      jumpi\n        /* \"--CODEGEN--\":29:30   */\n      0x00\n        /* \"--CODEGEN--\":26:27   */\n      dup1\n        /* \"--CODEGEN--\":19:31   */\n      revert\n        /* \"--CODEGEN--\":2:4   */\n    tag_25:\n        /* \"Bank.sol\":8775:8845  function setOwner(address addr) public {\r... */\n      dup2\n      add\n      swap1\n      dup1\n      dup1\n      calldataload\n      0xffffffffffffffffffffffffffffffffffffffff\n      and\n      swap1\n      0x20\n      add\n      swap1\n      swap3\n      swap2\n      swap1\n      pop\n      pop\n      pop\n      tag_26\n      jump\t// in\n    tag_24:\n      stop\n        /* \"Bank.sol\":8937:9017  function setObtainDate(bytes32 date) public {\r... */\n    tag_4:\n      tag_27\n      0x04\n      dup1\n      calldatasize\n      sub\n        /* \"--CODEGEN--\":13:15   */\n      0x20\n        /* \"--CODEGEN--\":8:11   */\n      dup2\n        /* \"--CODEGEN--\":5:16   */\n      lt\n        /* \"--CODEGEN--\":2:4   */\n      iszero\n      tag_28\n      jumpi\n        /* \"--CODEGEN--\":29:30   */\n      0x00\n        /* \"--CODEGEN--\":26:27   */\n      dup1\n        /* \"--CODEGEN--\":19:31   */\n      revert\n        /* \"--CODEGEN--\":2:4   */\n    tag_28:\n        /* \"Bank.sol\":8937:9017  function setObtainDate(bytes32 date) public {\r... */\n      dup2\n      add\n      swap1\n      dup1\n      dup1\n      calldataload\n      swap1\n      0x20\n      add\n      swap1\n      swap3\n      swap2\n      swap1\n      pop\n      pop\n      pop\n      tag_29\n      jump\t// in\n    tag_27:\n      stop\n        /* \"Bank.sol\":10005:10082  function getState() public view returns(uint) {\r... */\n    tag_5:\n      tag_30\n      tag_31\n      jump\t// in\n    tag_30:\n      mload(0x40)\n      dup1\n      dup3\n      dup2\n      mstore\n      0x20\n      add\n      swap2\n      pop\n      pop\n      mload(0x40)\n      dup1\n      swap2\n      sub\n      swap1\n      return\n        /* \"Bank.sol\":9364:9441  function getValue() public view returns(uint) {\r... */\n    tag_6:\n      tag_32\n      tag_33\n      jump\t// in\n    tag_32:\n      mload(0x40)\n      dup1\n      dup3\n      dup2\n      mstore\n      0x20\n      add\n      swap2\n      pop\n      pop\n      mload(0x40)\n      dup1\n      swap2\n      sub\n      swap1\n      return\n        /* \"Bank.sol\":9191:9275  function setConsumeDate(bytes32 _date) public {\r... */\n    tag_7:\n      tag_34\n      0x04\n      dup1\n      calldatasize\n      sub\n        /* \"--CODEGEN--\":13:15   */\n      0x20\n        /* \"--CODEGEN--\":8:11   */\n      dup2\n        /* \"--CODEGEN--\":5:16   */\n      lt\n        /* \"--CODEGEN--\":2:4   */\n      iszero\n      tag_35\n      jumpi\n        /* \"--CODEGEN--\":29:30   */\n      0x00\n        /* \"--CODEGEN--\":26:27   */\n      dup1\n        /* \"--CODEGEN--\":19:31   */\n      revert\n        /* \"--CODEGEN--\":2:4   */\n    tag_35:\n        /* \"Bank.sol\":9191:9275  function setConsumeDate(bytes32 _date) public {\r... */\n      dup2\n      add\n      swap1\n      dup1\n      dup1\n      calldataload\n      swap1\n      0x20\n      add\n      swap1\n      swap3\n      swap2\n      swap1\n      pop\n      pop\n      pop\n      tag_36\n      jump\t// in\n    tag_34:\n      stop\n        /* \"Bank.sol\":9721:9803  function setGranter(address _granter) public {\r... */\n    tag_8:\n      tag_37\n      0x04\n      dup1\n      calldatasize\n      sub\n        /* \"--CODEGEN--\":13:15   */\n      0x20\n        /* \"--CODEGEN--\":8:11   */\n      dup2\n        /* \"--CODEGEN--\":5:16   */\n      lt\n        /* \"--CODEGEN--\":2:4   */\n      iszero\n      tag_38\n      jumpi\n        /* \"--CODEGEN--\":29:30   */\n      0x00\n        /* \"--CODEGEN--\":26:27   */\n      dup1\n        /* \"--CODEGEN--\":19:31   */\n      revert\n        /* \"--CODEGEN--\":2:4   */\n    tag_38:\n        /* \"Bank.sol\":9721:9803  function setGranter(address _granter) public {\r... */\n      dup2\n      add\n      swap1\n      dup1\n      dup1\n      calldataload\n      0xffffffffffffffffffffffffffffffffffffffff\n      and\n      swap1\n      0x20\n      add\n      swap1\n      swap3\n      swap2\n      swap1\n      pop\n      pop\n      pop\n      tag_39\n      jump\t// in\n    tag_37:\n      stop\n        /* \"Bank.sol\":10184:10275  function getConsumeValue() public view returns(uint) {\r... */\n    tag_9:\n      tag_40\n      tag_41\n      jump\t// in\n    tag_40:\n      mload(0x40)\n      dup1\n      dup3\n      dup2\n      mstore\n      0x20\n      add\n      swap2\n      pop\n      pop\n      mload(0x40)\n      dup1\n      swap2\n      sub\n      swap1\n      return\n        /* \"Bank.sol\":9537:9625  function getStartDate() public view returns(bytes32) {\r... */\n    tag_10:\n      tag_42\n      tag_43\n      jump\t// in\n    tag_42:\n      mload(0x40)\n      dup1\n      dup3\n      dup2\n      mstore\n      0x20\n      add\n      swap2\n      pop\n      pop\n      mload(0x40)\n      dup1\n      swap2\n      sub\n      swap1\n      return\n        /* \"Bank.sol\":8851:8931  function getOwner() public view returns(address) {\r... */\n    tag_11:\n      tag_44\n      tag_45\n      jump\t// in\n    tag_44:\n      mload(0x40)\n      dup1\n      dup3\n      0xffffffffffffffffffffffffffffffffffffffff\n      and\n      0xffffffffffffffffffffffffffffffffffffffff\n      and\n      dup2\n      mstore\n      0x20\n      add\n      swap2\n      pop\n      pop\n      mload(0x40)\n      dup1\n      swap2\n      sub\n      swap1\n      return\n        /* \"Bank.sol\":9631:9715  function getGranter() public view returns(address) {\r... */\n    tag_12:\n      tag_46\n      tag_47\n      jump\t// in\n    tag_46:\n      mload(0x40)\n      dup1\n      dup3\n      0xffffffffffffffffffffffffffffffffffffffff\n      and\n      0xffffffffffffffffffffffffffffffffffffffff\n      and\n      dup2\n      mstore\n      0x20\n      add\n      swap2\n      pop\n      pop\n      mload(0x40)\n      dup1\n      swap2\n      sub\n      swap1\n      return\n        /* \"Bank.sol\":9904:9999  function setObtainValue(uint _obtainValue) public {\r... */\n    tag_13:\n      tag_48\n      0x04\n      dup1\n      calldatasize\n      sub\n        /* \"--CODEGEN--\":13:15   */\n      0x20\n        /* \"--CODEGEN--\":8:11   */\n      dup2\n        /* \"--CODEGEN--\":5:16   */\n      lt\n        /* \"--CODEGEN--\":2:4   */\n      iszero\n      tag_49\n      jumpi\n        /* \"--CODEGEN--\":29:30   */\n      0x00\n        /* \"--CODEGEN--\":26:27   */\n      dup1\n        /* \"--CODEGEN--\":19:31   */\n      revert\n        /* \"--CODEGEN--\":2:4   */\n    tag_49:\n        /* \"Bank.sol\":9904:9999  function setObtainValue(uint _obtainValue) public {\r... */\n      dup2\n      add\n      swap1\n      dup1\n      dup1\n      calldataload\n      swap1\n      0x20\n      add\n      swap1\n      swap3\n      swap2\n      swap1\n      pop\n      pop\n      pop\n      tag_50\n      jump\t// in\n    tag_48:\n      stop\n        /* \"Bank.sol\":9023:9094  function setState(uint _state) public {\r... */\n    tag_14:\n      tag_51\n      0x04\n      dup1\n      calldatasize\n      sub\n        /* \"--CODEGEN--\":13:15   */\n      0x20\n        /* \"--CODEGEN--\":8:11   */\n      dup2\n        /* \"--CODEGEN--\":5:16   */\n      lt\n        /* \"--CODEGEN--\":2:4   */\n      iszero\n      tag_52\n      jumpi\n        /* \"--CODEGEN--\":29:30   */\n      0x00\n        /* \"--CODEGEN--\":26:27   */\n      dup1\n        /* \"--CODEGEN--\":19:31   */\n      revert\n        /* \"--CODEGEN--\":2:4   */\n    tag_52:\n        /* \"Bank.sol\":9023:9094  function setState(uint _state) public {\r... */\n      dup2\n      add\n      swap1\n      dup1\n      dup1\n      calldataload\n      swap1\n      0x20\n      add\n      swap1\n      swap3\n      swap2\n      swap1\n      pop\n      pop\n      pop\n      tag_53\n      jump\t// in\n    tag_51:\n      stop\n        /* \"Bank.sol\":9447:9531  function getEndDate() public view returns(bytes32) {\r... */\n    tag_15:\n      tag_54\n      tag_55\n      jump\t// in\n    tag_54:\n      mload(0x40)\n      dup1\n      dup3\n      dup2\n      mstore\n      0x20\n      add\n      swap2\n      pop\n      pop\n      mload(0x40)\n      dup1\n      swap2\n      sub\n      swap1\n      return\n        /* \"Bank.sol\":9281:9358  function getLimit() public view returns(uint) {\r... */\n    tag_16:\n      tag_56\n      tag_57\n      jump\t// in\n    tag_56:\n      mload(0x40)\n      dup1\n      dup3\n      dup2\n      mstore\n      0x20\n      add\n      swap2\n      pop\n      pop\n      mload(0x40)\n      dup1\n      swap2\n      sub\n      swap1\n      return\n        /* \"Bank.sol\":10281:10373  function getConsumeDate() public view returns(bytes32) {\r... */\n    tag_17:\n      tag_58\n      tag_59\n      jump\t// in\n    tag_58:\n      mload(0x40)\n      dup1\n      dup3\n      dup2\n      mstore\n      0x20\n      add\n      swap2\n      pop\n      pop\n      mload(0x40)\n      dup1\n      swap2\n      sub\n      swap1\n      return\n        /* \"Bank.sol\":9809:9898  function getObtainValue() public view returns(uint) {\r... */\n    tag_18:\n      tag_60\n      tag_61\n      jump\t// in\n    tag_60:\n      mload(0x40)\n      dup1\n      dup3\n      dup2\n      mstore\n      0x20\n      add\n      swap2\n      pop\n      pop\n      mload(0x40)\n      dup1\n      swap2\n      sub\n      swap1\n      return\n        /* \"Bank.sol\":10088:10178  function getObtainDate() public view returns(bytes32) {\r... */\n    tag_19:\n      tag_62\n      tag_63\n      jump\t// in\n    tag_62:\n      mload(0x40)\n      dup1\n      dup3\n      dup2\n      mstore\n      0x20\n      add\n      swap2\n      pop\n      pop\n      mload(0x40)\n      dup1\n      swap2\n      sub\n      swap1\n      return\n        /* \"Bank.sol\":9100:9185  function setConsumeValue(uint _value) public {\r... */\n    tag_20:\n      tag_64\n      0x04\n      dup1\n      calldatasize\n      sub\n        /* \"--CODEGEN--\":13:15   */\n      0x20\n        /* \"--CODEGEN--\":8:11   */\n      dup2\n        /* \"--CODEGEN--\":5:16   */\n      lt\n        /* \"--CODEGEN--\":2:4   */\n      iszero\n      tag_65\n      jumpi\n        /* \"--CODEGEN--\":29:30   */\n      0x00\n        /* \"--CODEGEN--\":26:27   */\n      dup1\n        /* \"--CODEGEN--\":19:31   */\n      revert\n        /* \"--CODEGEN--\":2:4   */\n    tag_65:\n        /* \"Bank.sol\":9100:9185  function setConsumeValue(uint _value) public {\r... */\n      dup2\n      add\n      swap1\n      dup1\n      dup1\n      calldataload\n      swap1\n      0x20\n      add\n      swap1\n      swap3\n      swap2\n      swap1\n      pop\n      pop\n      pop\n      tag_66\n      jump\t// in\n    tag_64:\n      stop\n        /* \"Bank.sol\":8775:8845  function setOwner(address addr) public {\r... */\n    tag_26:\n        /* \"Bank.sol\":8833:8837  addr */\n      dup1\n        /* \"Bank.sol\":8825:8830  owner */\n      0x00\n      dup1\n        /* \"Bank.sol\":8825:8837  owner = addr */\n      0x0100\n      exp\n      dup2\n      sload\n      dup2\n      0xffffffffffffffffffffffffffffffffffffffff\n      mul\n      not\n      and\n      swap1\n      dup4\n      0xffffffffffffffffffffffffffffffffffffffff\n      and\n      mul\n      or\n      swap1\n      sstore\n      pop\n        /* \"Bank.sol\":8775:8845  function setOwner(address addr) public {\r... */\n      pop\n      jump\t// out\n        /* \"Bank.sol\":8937:9017  function setObtainDate(bytes32 date) public {\r... */\n    tag_29:\n        /* \"Bank.sol\":9005:9009  date */\n      dup1\n        /* \"Bank.sol\":8992:9002  obtainDate */\n      0x07\n        /* \"Bank.sol\":8992:9009  obtainDate = date */\n      dup2\n      swap1\n      sstore\n      pop\n        /* \"Bank.sol\":8937:9017  function setObtainDate(bytes32 date) public {\r... */\n      pop\n      jump\t// out\n        /* \"Bank.sol\":10005:10082  function getState() public view returns(uint) {\r... */\n    tag_31:\n        /* \"Bank.sol\":10045:10049  uint */\n      0x00\n        /* \"Bank.sol\":10069:10074  state */\n      sload(0x0a)\n        /* \"Bank.sol\":10062:10074  return state */\n      swap1\n      pop\n        /* \"Bank.sol\":10005:10082  function getState() public view returns(uint) {\r... */\n      swap1\n      jump\t// out\n        /* \"Bank.sol\":9364:9441  function getValue() public view returns(uint) {\r... */\n    tag_33:\n        /* \"Bank.sol\":9404:9408  uint */\n      0x00\n        /* \"Bank.sol\":9428:9433  value */\n      sload(0x02)\n        /* \"Bank.sol\":9421:9433  return value */\n      swap1\n      pop\n        /* \"Bank.sol\":9364:9441  function getValue() public view returns(uint) {\r... */\n      swap1\n      jump\t// out\n        /* \"Bank.sol\":9191:9275  function setConsumeDate(bytes32 _date) public {\r... */\n    tag_36:\n        /* \"Bank.sol\":9262:9267  _date */\n      dup1\n        /* \"Bank.sol\":9248:9259  consumeDate */\n      0x08\n        /* \"Bank.sol\":9248:9267  consumeDate = _date */\n      dup2\n      swap1\n      sstore\n      pop\n        /* \"Bank.sol\":9191:9275  function setConsumeDate(bytes32 _date) public {\r... */\n      pop\n      jump\t// out\n        /* \"Bank.sol\":9721:9803  function setGranter(address _granter) public {\r... */\n    tag_39:\n        /* \"Bank.sol\":9787:9795  _granter */\n      dup1\n        /* \"Bank.sol\":9777:9784  granter */\n      0x01\n      0x00\n        /* \"Bank.sol\":9777:9795  granter = _granter */\n      0x0100\n      exp\n      dup2\n      sload\n      dup2\n      0xffffffffffffffffffffffffffffffffffffffff\n      mul\n      not\n      and\n      swap1\n      dup4\n      0xffffffffffffffffffffffffffffffffffffffff\n      and\n      mul\n      or\n      swap1\n      sstore\n      pop\n        /* \"Bank.sol\":9721:9803  function setGranter(address _granter) public {\r... */\n      pop\n      jump\t// out\n        /* \"Bank.sol\":10184:10275  function getConsumeValue() public view returns(uint) {\r... */\n    tag_41:\n        /* \"Bank.sol\":10231:10235  uint */\n      0x00\n        /* \"Bank.sol\":10255:10267  consumeValue */\n      sload(0x09)\n        /* \"Bank.sol\":10248:10267  return consumeValue */\n      swap1\n      pop\n        /* \"Bank.sol\":10184:10275  function getConsumeValue() public view returns(uint) {\r... */\n      swap1\n      jump\t// out\n        /* \"Bank.sol\":9537:9625  function getStartDate() public view returns(bytes32) {\r... */\n    tag_43:\n        /* \"Bank.sol\":9581:9588  bytes32 */\n      0x00\n        /* \"Bank.sol\":9608:9617  startDate */\n      sload(0x04)\n        /* \"Bank.sol\":9601:9617  return startDate */\n      swap1\n      pop\n        /* \"Bank.sol\":9537:9625  function getStartDate() public view returns(bytes32) {\r... */\n      swap1\n      jump\t// out\n        /* \"Bank.sol\":8851:8931  function getOwner() public view returns(address) {\r... */\n    tag_45:\n        /* \"Bank.sol\":8891:8898  address */\n      0x00\n        /* \"Bank.sol\":8918:8923  owner */\n      dup1\n      0x00\n      swap1\n      sload\n      swap1\n      0x0100\n      exp\n      swap1\n      div\n      0xffffffffffffffffffffffffffffffffffffffff\n      and\n        /* \"Bank.sol\":8911:8923  return owner */\n      swap1\n      pop\n        /* \"Bank.sol\":8851:8931  function getOwner() public view returns(address) {\r... */\n      swap1\n      jump\t// out\n        /* \"Bank.sol\":9631:9715  function getGranter() public view returns(address) {\r... */\n    tag_47:\n        /* \"Bank.sol\":9673:9680  address */\n      0x00\n        /* \"Bank.sol\":9700:9707  granter */\n      0x01\n      0x00\n      swap1\n      sload\n      swap1\n      0x0100\n      exp\n      swap1\n      div\n      0xffffffffffffffffffffffffffffffffffffffff\n      and\n        /* \"Bank.sol\":9693:9707  return granter */\n      swap1\n      pop\n        /* \"Bank.sol\":9631:9715  function getGranter() public view returns(address) {\r... */\n      swap1\n      jump\t// out\n        /* \"Bank.sol\":9904:9999  function setObtainValue(uint _obtainValue) public {\r... */\n    tag_50:\n        /* \"Bank.sol\":9979:9991  _obtainValue */\n      dup1\n        /* \"Bank.sol\":9965:9976  obtainValue */\n      0x06\n        /* \"Bank.sol\":9965:9991  obtainValue = _obtainValue */\n      dup2\n      swap1\n      sstore\n      pop\n        /* \"Bank.sol\":9904:9999  function setObtainValue(uint _obtainValue) public {\r... */\n      pop\n      jump\t// out\n        /* \"Bank.sol\":9023:9094  function setState(uint _state) public {\r... */\n    tag_53:\n        /* \"Bank.sol\":9080:9086  _state */\n      dup1\n        /* \"Bank.sol\":9072:9077  state */\n      0x0a\n        /* \"Bank.sol\":9072:9086  state = _state */\n      dup2\n      swap1\n      sstore\n      pop\n        /* \"Bank.sol\":9023:9094  function setState(uint _state) public {\r... */\n      pop\n      jump\t// out\n        /* \"Bank.sol\":9447:9531  function getEndDate() public view returns(bytes32) {\r... */\n    tag_55:\n        /* \"Bank.sol\":9489:9496  bytes32 */\n      0x00\n        /* \"Bank.sol\":9516:9523  endDate */\n      sload(0x05)\n        /* \"Bank.sol\":9509:9523  return endDate */\n      swap1\n      pop\n        /* \"Bank.sol\":9447:9531  function getEndDate() public view returns(bytes32) {\r... */\n      swap1\n      jump\t// out\n        /* \"Bank.sol\":9281:9358  function getLimit() public view returns(uint) {\r... */\n    tag_57:\n        /* \"Bank.sol\":9321:9325  uint */\n      0x00\n        /* \"Bank.sol\":9345:9350  limit */\n      sload(0x03)\n        /* \"Bank.sol\":9338:9350  return limit */\n      swap1\n      pop\n        /* \"Bank.sol\":9281:9358  function getLimit() public view returns(uint) {\r... */\n      swap1\n      jump\t// out\n        /* \"Bank.sol\":10281:10373  function getConsumeDate() public view returns(bytes32) {\r... */\n    tag_59:\n        /* \"Bank.sol\":10327:10334  bytes32 */\n      0x00\n        /* \"Bank.sol\":10354:10365  consumeDate */\n      sload(0x08)\n        /* \"Bank.sol\":10347:10365  return consumeDate */\n      swap1\n      pop\n        /* \"Bank.sol\":10281:10373  function getConsumeDate() public view returns(bytes32) {\r... */\n      swap1\n      jump\t// out\n        /* \"Bank.sol\":9809:9898  function getObtainValue() public view returns(uint) {\r... */\n    tag_61:\n        /* \"Bank.sol\":9855:9859  uint */\n      0x00\n        /* \"Bank.sol\":9879:9890  obtainValue */\n      sload(0x06)\n        /* \"Bank.sol\":9872:9890  return obtainValue */\n      swap1\n      pop\n        /* \"Bank.sol\":9809:9898  function getObtainValue() public view returns(uint) {\r... */\n      swap1\n      jump\t// out\n        /* \"Bank.sol\":10088:10178  function getObtainDate() public view returns(bytes32) {\r... */\n    tag_63:\n        /* \"Bank.sol\":10133:10140  bytes32 */\n      0x00\n        /* \"Bank.sol\":10160:10170  obtainDate */\n      sload(0x07)\n        /* \"Bank.sol\":10153:10170  return obtainDate */\n      swap1\n      pop\n        /* \"Bank.sol\":10088:10178  function getObtainDate() public view returns(bytes32) {\r... */\n      swap1\n      jump\t// out\n        /* \"Bank.sol\":9100:9185  function setConsumeValue(uint _value) public {\r... */\n    tag_66:\n        /* \"Bank.sol\":9171:9177  _value */\n      dup1\n        /* \"Bank.sol\":9156:9168  consumeValue */\n      0x09\n        /* \"Bank.sol\":9156:9177  consumeValue = _value */\n      dup2\n      swap1\n      sstore\n      pop\n        /* \"Bank.sol\":9100:9185  function setConsumeValue(uint _value) public {\r... */\n      pop\n      jump\t// out\n\n    auxdata: 0xa265627a7a723158202439d9846d8882ac613f69d7d75ada3cc5504f1e0c47311d7c969852845bf72364736f6c63430005110032\n}\n",
				"bytecode": {
					"linkReferences": {},
					"object": "60806040526001600a5534801561001557600080fd5b506040516106ac3803806106ac8339818101604052608081101561003857600080fd5b81019080805190602001909291908051906020019092919080519060200190929190805190602001909291905050508360028190555082600381905550336000806101000a81548173ffffffffffffffffffffffffffffffffffffffff021916908373ffffffffffffffffffffffffffffffffffffffff160217905550816004819055508060058190555060006009819055506001600a81905550505050506105c6806100e66000396000f3fe608060405234801561001057600080fd5b50600436106101165760003560e01c8063988a6e0e116100a2578063b295a00e11610071578063b295a00e14610385578063b956064c146103a3578063e28f863e146103c1578063f1acc453146103df578063fb61d1dc146103fd57610116565b8063988a6e0e146102c1578063a8ac6a191461030b578063a9e966b714610339578063b13564881461036757610116565b806354da0114116100e957806354da0114146101c95780636d86ee28146101f7578063782ca44f1461023b57806378f305c614610259578063893d20e81461027757610116565b806313af40351461011b57806316016af81461015f5780631865c57d1461018d57806320965255146101ab575b600080fd5b61015d6004803603602081101561013157600080fd5b81019080803573ffffffffffffffffffffffffffffffffffffffff16906020019092919050505061042b565b005b61018b6004803603602081101561017557600080fd5b810190808035906020019092919050505061046e565b005b610195610478565b6040518082815260200191505060405180910390f35b6101b3610482565b6040518082815260200191505060405180910390f35b6101f5600480360360208110156101df57600080fd5b810190808035906020019092919050505061048c565b005b6102396004803603602081101561020d57600080fd5b81019080803573ffffffffffffffffffffffffffffffffffffffff169060200190929190505050610496565b005b6102436104da565b6040518082815260200191505060405180910390f35b6102616104e4565b6040518082815260200191505060405180910390f35b61027f6104ee565b604051808273ffffffffffffffffffffffffffffffffffffffff1673ffffffffffffffffffffffffffffffffffffffff16815260200191505060405180910390f35b6102c9610517565b604051808273ffffffffffffffffffffffffffffffffffffffff1673ffffffffffffffffffffffffffffffffffffffff16815260200191505060405180910390f35b6103376004803603602081101561032157600080fd5b8101908080359060200190929190505050610541565b005b6103656004803603602081101561034f57600080fd5b810190808035906020019092919050505061054b565b005b61036f610555565b6040518082815260200191505060405180910390f35b61038d61055f565b6040518082815260200191505060405180910390f35b6103ab610569565b6040518082815260200191505060405180910390f35b6103c9610573565b6040518082815260200191505060405180910390f35b6103e761057d565b6040518082815260200191505060405180910390f35b6104296004803603602081101561041357600080fd5b8101908080359060200190929190505050610587565b005b806000806101000a81548173ffffffffffffffffffffffffffffffffffffffff021916908373ffffffffffffffffffffffffffffffffffffffff16021790555050565b8060078190555050565b6000600a54905090565b6000600254905090565b8060088190555050565b80600160006101000a81548173ffffffffffffffffffffffffffffffffffffffff021916908373ffffffffffffffffffffffffffffffffffffffff16021790555050565b6000600954905090565b6000600454905090565b60008060009054906101000a900473ffffffffffffffffffffffffffffffffffffffff16905090565b6000600160009054906101000a900473ffffffffffffffffffffffffffffffffffffffff16905090565b8060068190555050565b80600a8190555050565b6000600554905090565b6000600354905090565b6000600854905090565b6000600654905090565b6000600754905090565b806009819055505056fea265627a7a723158202439d9846d8882ac613f69d7d75ada3cc5504f1e0c47311d7c969852845bf72364736f6c63430005110032",
					"opcodes": "PUSH1 0x80 PUSH1 0x40 MSTORE PUSH1 0x1 PUSH1 0xA SSTORE CALLVALUE DUP1 ISZERO PUSH2 0x15 JUMPI PUSH1 0x0 DUP1 REVERT JUMPDEST POP PUSH1 0x40 MLOAD PUSH2 0x6AC CODESIZE SUB DUP1 PUSH2 0x6AC DUP4 CODECOPY DUP2 DUP2 ADD PUSH1 0x40 MSTORE PUSH1 0x80 DUP2 LT ISZERO PUSH2 0x38 JUMPI PUSH1 0x0 DUP1 REVERT JUMPDEST DUP2 ADD SWAP1 DUP1 DUP1 MLOAD SWAP1 PUSH1 0x20 ADD SWAP1 SWAP3 SWAP2 SWAP1 DUP1 MLOAD SWAP1 PUSH1 0x20 ADD SWAP1 SWAP3 SWAP2 SWAP1 DUP1 MLOAD SWAP1 PUSH1 0x20 ADD SWAP1 SWAP3 SWAP2 SWAP1 DUP1 MLOAD SWAP1 PUSH1 0x20 ADD SWAP1 SWAP3 SWAP2 SWAP1 POP POP POP DUP4 PUSH1 0x2 DUP2 SWAP1 SSTORE POP DUP3 PUSH1 0x3 DUP2 SWAP1 SSTORE POP CALLER PUSH1 0x0 DUP1 PUSH2 0x100 EXP DUP2 SLOAD DUP2 PUSH20 0xFFFFFFFFFFFFFFFFFFFFFFFFFFFFFFFFFFFFFFFF MUL NOT AND SWAP1 DUP4 PUSH20 0xFFFFFFFFFFFFFFFFFFFFFFFFFFFFFFFFFFFFFFFF AND MUL OR SWAP1 SSTORE POP DUP2 PUSH1 0x4 DUP2 SWAP1 SSTORE POP DUP1 PUSH1 0x5 DUP2 SWAP1 SSTORE POP PUSH1 0x0 PUSH1 0x9 DUP2 SWAP1 SSTORE POP PUSH1 0x1 PUSH1 0xA DUP2 SWAP1 SSTORE POP POP POP POP POP PUSH2 0x5C6 DUP1 PUSH2 0xE6 PUSH1 0x0 CODECOPY PUSH1 0x0 RETURN INVALID PUSH1 0x80 PUSH1 0x40 MSTORE CALLVALUE DUP1 ISZERO PUSH2 0x10 JUMPI PUSH1 0x0 DUP1 REVERT JUMPDEST POP PUSH1 0x4 CALLDATASIZE LT PUSH2 0x116 JUMPI PUSH1 0x0 CALLDATALOAD PUSH1 0xE0 SHR DUP1 PUSH4 0x988A6E0E GT PUSH2 0xA2 JUMPI DUP1 PUSH4 0xB295A00E GT PUSH2 0x71 JUMPI DUP1 PUSH4 0xB295A00E EQ PUSH2 0x385 JUMPI DUP1 PUSH4 0xB956064C EQ PUSH2 0x3A3 JUMPI DUP1 PUSH4 0xE28F863E EQ PUSH2 0x3C1 JUMPI DUP1 PUSH4 0xF1ACC453 EQ PUSH2 0x3DF JUMPI DUP1 PUSH4 0xFB61D1DC EQ PUSH2 0x3FD JUMPI PUSH2 0x116 JUMP JUMPDEST DUP1 PUSH4 0x988A6E0E EQ PUSH2 0x2C1 JUMPI DUP1 PUSH4 0xA8AC6A19 EQ PUSH2 0x30B JUMPI DUP1 PUSH4 0xA9E966B7 EQ PUSH2 0x339 JUMPI DUP1 PUSH4 0xB1356488 EQ PUSH2 0x367 JUMPI PUSH2 0x116 JUMP JUMPDEST DUP1 PUSH4 0x54DA0114 GT PUSH2 0xE9 JUMPI DUP1 PUSH4 0x54DA0114 EQ PUSH2 0x1C9 JUMPI DUP1 PUSH4 0x6D86EE28 EQ PUSH2 0x1F7 JUMPI DUP1 PUSH4 0x782CA44F EQ PUSH2 0x23B JUMPI DUP1 PUSH4 0x78F305C6 EQ PUSH2 0x259 JUMPI DUP1 PUSH4 0x893D20E8 EQ PUSH2 0x277 JUMPI PUSH2 0x116 JUMP JUMPDEST DUP1 PUSH4 0x13AF4035 EQ PUSH2 0x11B JUMPI DUP1 PUSH4 0x16016AF8 EQ PUSH2 0x15F JUMPI DUP1 PUSH4 0x1865C57D EQ PUSH2 0x18D JUMPI DUP1 PUSH4 0x20965255 EQ PUSH2 0x1AB JUMPI JUMPDEST PUSH1 0x0 DUP1 REVERT JUMPDEST PUSH2 0x15D PUSH1 0x4 DUP1 CALLDATASIZE SUB PUSH1 0x20 DUP2 LT ISZERO PUSH2 0x131 JUMPI PUSH1 0x0 DUP1 REVERT JUMPDEST DUP2 ADD SWAP1 DUP1 DUP1 CALLDATALOAD PUSH20 0xFFFFFFFFFFFFFFFFFFFFFFFFFFFFFFFFFFFFFFFF AND SWAP1 PUSH1 0x20 ADD SWAP1 SWAP3 SWAP2 SWAP1 POP POP POP PUSH2 0x42B JUMP JUMPDEST STOP JUMPDEST PUSH2 0x18B PUSH1 0x4 DUP1 CALLDATASIZE SUB PUSH1 0x20 DUP2 LT ISZERO PUSH2 0x175 JUMPI PUSH1 0x0 DUP1 REVERT JUMPDEST DUP2 ADD SWAP1 DUP1 DUP1 CALLDATALOAD SWAP1 PUSH1 0x20 ADD SWAP1 SWAP3 SWAP2 SWAP1 POP POP POP PUSH2 0x46E JUMP JUMPDEST STOP JUMPDEST PUSH2 0x195 PUSH2 0x478 JUMP JUMPDEST PUSH1 0x40 MLOAD DUP1 DUP3 DUP2 MSTORE PUSH1 0x20 ADD SWAP2 POP POP PUSH1 0x40 MLOAD DUP1 SWAP2 SUB SWAP1 RETURN JUMPDEST PUSH2 0x1B3 PUSH2 0x482 JUMP JUMPDEST PUSH1 0x40 MLOAD DUP1 DUP3 DUP2 MSTORE PUSH1 0x20 ADD SWAP2 POP POP PUSH1 0x40 MLOAD DUP1 SWAP2 SUB SWAP1 RETURN JUMPDEST PUSH2 0x1F5 PUSH1 0x4 DUP1 CALLDATASIZE SUB PUSH1 0x20 DUP2 LT ISZERO PUSH2 0x1DF JUMPI PUSH1 0x0 DUP1 REVERT JUMPDEST DUP2 ADD SWAP1 DUP1 DUP1 CALLDATALOAD SWAP1 PUSH1 0x20 ADD SWAP1 SWAP3 SWAP2 SWAP1 POP POP POP PUSH2 0x48C JUMP JUMPDEST STOP JUMPDEST PUSH2 0x239 PUSH1 0x4 DUP1 CALLDATASIZE SUB PUSH1 0x20 DUP2 LT ISZERO PUSH2 0x20D JUMPI PUSH1 0x0 DUP1 REVERT JUMPDEST DUP2 ADD SWAP1 DUP1 DUP1 CALLDATALOAD PUSH20 0xFFFFFFFFFFFFFFFFFFFFFFFFFFFFFFFFFFFFFFFF AND SWAP1 PUSH1 0x20 ADD SWAP1 SWAP3 SWAP2 SWAP1 POP POP POP PUSH2 0x496 JUMP JUMPDEST STOP JUMPDEST PUSH2 0x243 PUSH2 0x4DA JUMP JUMPDEST PUSH1 0x40 MLOAD DUP1 DUP3 DUP2 MSTORE PUSH1 0x20 ADD SWAP2 POP POP PUSH1 0x40 MLOAD DUP1 SWAP2 SUB SWAP1 RETURN JUMPDEST PUSH2 0x261 PUSH2 0x4E4 JUMP JUMPDEST PUSH1 0x40 MLOAD DUP1 DUP3 DUP2 MSTORE PUSH1 0x20 ADD SWAP2 POP POP PUSH1 0x40 MLOAD DUP1 SWAP2 SUB SWAP1 RETURN JUMPDEST PUSH2 0x27F PUSH2 0x4EE JUMP JUMPDEST PUSH1 0x40 MLOAD DUP1 DUP3 PUSH20 0xFFFFFFFFFFFFFFFFFFFFFFFFFFFFFFFFFFFFFFFF AND PUSH20 0xFFFFFFFFFFFFFFFFFFFFFFFFFFFFFFFFFFFFFFFF AND DUP2 MSTORE PUSH1 0x20 ADD SWAP2 POP POP PUSH1 0x40 MLOAD DUP1 SWAP2 SUB SWAP1 RETURN JUMPDEST PUSH2 0x2C9 PUSH2 0x517 JUMP JUMPDEST PUSH1 0x40 MLOAD DUP1 DUP3 PUSH20 0xFFFFFFFFFFFFFFFFFFFFFFFFFFFFFFFFFFFFFFFF AND PUSH20 0xFFFFFFFFFFFFFFFFFFFFFFFFFFFFFFFFFFFFFFFF AND DUP2 MSTORE PUSH1 0x20 ADD SWAP2 POP POP PUSH1 0x40 MLOAD DUP1 SWAP2 SUB SWAP1 RETURN JUMPDEST PUSH2 0x337 PUSH1 0x4 DUP1 CALLDATASIZE SUB PUSH1 0x20 DUP2 LT ISZERO PUSH2 0x321 JUMPI PUSH1 0x0 DUP1 REVERT JUMPDEST DUP2 ADD SWAP1 DUP1 DUP1 CALLDATALOAD SWAP1 PUSH1 0x20 ADD SWAP1 SWAP3 SWAP2 SWAP1 POP POP POP PUSH2 0x541 JUMP JUMPDEST STOP JUMPDEST PUSH2 0x365 PUSH1 0x4 DUP1 CALLDATASIZE SUB PUSH1 0x20 DUP2 LT ISZERO PUSH2 0x34F JUMPI PUSH1 0x0 DUP1 REVERT JUMPDEST DUP2 ADD SWAP1 DUP1 DUP1 CALLDATALOAD SWAP1 PUSH1 0x20 ADD SWAP1 SWAP3 SWAP2 SWAP1 POP POP POP PUSH2 0x54B JUMP JUMPDEST STOP JUMPDEST PUSH2 0x36F PUSH2 0x555 JUMP JUMPDEST PUSH1 0x40 MLOAD DUP1 DUP3 DUP2 MSTORE PUSH1 0x20 ADD SWAP2 POP POP PUSH1 0x40 MLOAD DUP1 SWAP2 SUB SWAP1 RETURN JUMPDEST PUSH2 0x38D PUSH2 0x55F JUMP JUMPDEST PUSH1 0x40 MLOAD DUP1 DUP3 DUP2 MSTORE PUSH1 0x20 ADD SWAP2 POP POP PUSH1 0x40 MLOAD DUP1 SWAP2 SUB SWAP1 RETURN JUMPDEST PUSH2 0x3AB PUSH2 0x569 JUMP JUMPDEST PUSH1 0x40 MLOAD DUP1 DUP3 DUP2 MSTORE PUSH1 0x20 ADD SWAP2 POP POP PUSH1 0x40 MLOAD DUP1 SWAP2 SUB SWAP1 RETURN JUMPDEST PUSH2 0x3C9 PUSH2 0x573 JUMP JUMPDEST PUSH1 0x40 MLOAD DUP1 DUP3 DUP2 MSTORE PUSH1 0x20 ADD SWAP2 POP POP PUSH1 0x40 MLOAD DUP1 SWAP2 SUB SWAP1 RETURN JUMPDEST PUSH2 0x3E7 PUSH2 0x57D JUMP JUMPDEST PUSH1 0x40 MLOAD DUP1 DUP3 DUP2 MSTORE PUSH1 0x20 ADD SWAP2 POP POP PUSH1 0x40 MLOAD DUP1 SWAP2 SUB SWAP1 RETURN JUMPDEST PUSH2 0x429 PUSH1 0x4 DUP1 CALLDATASIZE SUB PUSH1 0x20 DUP2 LT ISZERO PUSH2 0x413 JUMPI PUSH1 0x0 DUP1 REVERT JUMPDEST DUP2 ADD SWAP1 DUP1 DUP1 CALLDATALOAD SWAP1 PUSH1 0x20 ADD SWAP1 SWAP3 SWAP2 SWAP1 POP POP POP PUSH2 0x587 JUMP JUMPDEST STOP JUMPDEST DUP1 PUSH1 0x0 DUP1 PUSH2 0x100 EXP DUP2 SLOAD DUP2 PUSH20 0xFFFFFFFFFFFFFFFFFFFFFFFFFFFFFFFFFFFFFFFF MUL NOT AND SWAP1 DUP4 PUSH20 0xFFFFFFFFFFFFFFFFFFFFFFFFFFFFFFFFFFFFFFFF AND MUL OR SWAP1 SSTORE POP POP JUMP JUMPDEST DUP1 PUSH1 0x7 DUP2 SWAP1 SSTORE POP POP JUMP JUMPDEST PUSH1 0x0 PUSH1 0xA SLOAD SWAP1 POP SWAP1 JUMP JUMPDEST PUSH1 0x0 PUSH1 0x2 SLOAD SWAP1 POP SWAP1 JUMP JUMPDEST DUP1 PUSH1 0x8 DUP2 SWAP1 SSTORE POP POP JUMP JUMPDEST DUP1 PUSH1 0x1 PUSH1 0x0 PUSH2 0x100 EXP DUP2 SLOAD DUP2 PUSH20 0xFFFFFFFFFFFFFFFFFFFFFFFFFFFFFFFFFFFFFFFF MUL NOT AND SWAP1 DUP4 PUSH20 0xFFFFFFFFFFFFFFFFFFFFFFFFFFFFFFFFFFFFFFFF AND MUL OR SWAP1 SSTORE POP POP JUMP JUMPDEST PUSH1 0x0 PUSH1 0x9 SLOAD SWAP1 POP SWAP1 JUMP JUMPDEST PUSH1 0x0 PUSH1 0x4 SLOAD SWAP1 POP SWAP1 JUMP JUMPDEST PUSH1 0x0 DUP1 PUSH1 0x0 SWAP1 SLOAD SWAP1 PUSH2 0x100 EXP SWAP1 DIV PUSH20 0xFFFFFFFFFFFFFFFFFFFFFFFFFFFFFFFFFFFFFFFF AND SWAP1 POP SWAP1 JUMP JUMPDEST PUSH1 0x0 PUSH1 0x1 PUSH1 0x0 SWAP1 SLOAD SWAP1 PUSH2 0x100 EXP SWAP1 DIV PUSH20 0xFFFFFFFFFFFFFFFFFFFFFFFFFFFFFFFFFFFFFFFF AND SWAP1 POP SWAP1 JUMP JUMPDEST DUP1 PUSH1 0x6 DUP2 SWAP1 SSTORE POP POP JUMP JUMPDEST DUP1 PUSH1 0xA DUP2 SWAP1 SSTORE POP POP JUMP JUMPDEST PUSH1 0x0 PUSH1 0x5 SLOAD SWAP1 POP SWAP1 JUMP JUMPDEST PUSH1 0x0 PUSH1 0x3 SLOAD SWAP1 POP SWAP1 JUMP JUMPDEST PUSH1 0x0 PUSH1 0x8 SLOAD SWAP1 POP SWAP1 JUMP JUMPDEST PUSH1 0x0 PUSH1 0x6 SLOAD SWAP1 POP SWAP1 JUMP JUMPDEST PUSH1 0x0 PUSH1 0x7 SLOAD SWAP1 POP SWAP1 JUMP JUMPDEST DUP1 PUSH1 0x9 DUP2 SWAP1 SSTORE POP POP JUMP INVALID LOG2 PUSH6 0x627A7A723158 KECCAK256 0x24 CODECOPY 0xD9 DUP5 PUSH14 0x8882AC613F69D7D75ADA3CC5504F 0x1E 0xC SELFBALANCE BALANCE SAR PUSH29 0x969852845BF72364736F6C634300051100320000000000000000000000 "
				},
				"gasEstimates": {
					"creation": {
						"codeDepositCost": "295600",
						"executionCost": "infinite",
						"totalCost": "infinite"
					},
					"external": {
						"getConsumeDate()": "1057",
						"getConsumeValue()": "1080",
						"getEndDate()": "1102",
						"getGranter()": "1084",
						"getLimit()": "1035",
						"getObtainDate()": "1101",
						"getObtainValue()": "1079",
						"getOwner()": "1172",
						"getStartDate()": "1102",
						"getState()": "1081",
						"getValue()": "1103",
						"setConsumeDate(bytes32)": "20265",
						"setConsumeValue(uint256)": "20352",
						"setGranter(address)": "21146",
						"setObtainDate(bytes32)": "20288",
						"setObtainValue(uint256)": "20287",
						"setOwner(address)": "21125",
						"setState(uint256)": "20309"
					}
				},
				"methodIdentifiers": {
					"getConsumeDate()": "b956064c",
					"getConsumeValue()": "782ca44f",
					"getEndDate()": "b1356488",
					"getGranter()": "988a6e0e",
					"getLimit()": "b295a00e",
					"getObtainDate()": "f1acc453",
					"getObtainValue()": "e28f863e",
					"getOwner()": "893d20e8",
					"getStartDate()": "78f305c6",
					"getState()": "1865c57d",
					"getValue()": "20965255",
					"setConsumeDate(bytes32)": "54da0114",
					"setConsumeValue(uint256)": "fb61d1dc",
					"setGranter(address)": "6d86ee28",
					"setObtainDate(bytes32)": "16016af8",
					"setObtainValue(uint256)": "a8ac6a19",
					"setOwner(address)": "13af4035",
					"setState(uint256)": "a9e966b7"
				}
			},
			"storageLayout": {
				"storage": [
					{
						"astId": 993,
						"contract": "Bank.sol:Coupon",
						"label": "owner",
						"offset": 0,
						"slot": "0",
						"type": "t_address"
					},
					{
						"astId": 995,
						"contract": "Bank.sol:Coupon",
						"label": "granter",
						"offset": 0,
						"slot": "1",
						"type": "t_address"
					},
					{
						"astId": 997,
						"contract": "Bank.sol:Coupon",
						"label": "value",
						"offset": 0,
						"slot": "2",
						"type": "t_uint256"
					},
					{
						"astId": 999,
						"contract": "Bank.sol:Coupon",
						"label": "limit",
						"offset": 0,
						"slot": "3",
						"type": "t_uint256"
					},
					{
						"astId": 1001,
						"contract": "Bank.sol:Coupon",
						"label": "startDate",
						"offset": 0,
						"slot": "4",
						"type": "t_bytes32"
					},
					{
						"astId": 1003,
						"contract": "Bank.sol:Coupon",
						"label": "endDate",
						"offset": 0,
						"slot": "5",
						"type": "t_bytes32"
					},
					{
						"astId": 1005,
						"contract": "Bank.sol:Coupon",
						"label": "obtainValue",
						"offset": 0,
						"slot": "6",
						"type": "t_uint256"
					},
					{
						"astId": 1007,
						"contract": "Bank.sol:Coupon",
						"label": "obtainDate",
						"offset": 0,
						"slot": "7",
						"type": "t_bytes32"
					},
					{
						"astId": 1009,
						"contract": "Bank.sol:Coupon",
						"label": "consumeDate",
						"offset": 0,
						"slot": "8",
						"type": "t_bytes32"
					},
					{
						"astId": 1011,
						"contract": "Bank.sol:Coupon",
						"label": "consumeValue",
						"offset": 0,
						"slot": "9",
						"type": "t_uint256"
					},
					{
						"astId": 1014,
						"contract": "Bank.sol:Coupon",
						"label": "state",
						"offset": 0,
						"slot": "10",
						"type": "t_uint256"
					}
				],
				"types": {
					"t_address": {
						"encoding": "inplace",
						"label": "address",
						"numberOfBytes": "20"
					},
					"t_bytes32": {
						"encoding": "inplace",
						"label": "bytes32",
						"numberOfBytes": "32"
					},
					"t_uint256": {
						"encoding": "inplace",
						"label": "uint256",
						"numberOfBytes": "32"
					}
				}
			},
			"userdoc": {
				"methods": {}
			}
		}
	}
}